{
  "_format": "hh-sol-artifact-1",
  "contractName": "MHT",
  "sourceName": "contracts/MHT.sol",
  "abi": [
    {
      "inputs": [],
      "stateMutability": "nonpayable",
      "type": "constructor"
    },
    {
      "anonymous": false,
      "inputs": [
        {
          "indexed": true,
          "internalType": "address",
          "name": "_from",
          "type": "address"
        },
        {
          "indexed": true,
          "internalType": "address",
          "name": "_to",
          "type": "address"
        },
        {
          "indexed": false,
          "internalType": "uint256",
          "name": "_value",
          "type": "uint256"
        }
      ],
      "name": "Transfer",
      "type": "event"
    },
    {
      "inputs": [
        {
          "internalType": "address",
          "name": "account",
          "type": "address"
        }
      ],
      "name": "balanceOf",
      "outputs": [
        {
          "internalType": "uint256",
          "name": "",
          "type": "uint256"
        }
      ],
      "stateMutability": "view",
      "type": "function"
    },
    {
      "inputs": [
        {
          "internalType": "uint8",
          "name": "riceType",
          "type": "uint8"
        },
        {
          "components": [
            {
              "internalType": "address",
              "name": "seller",
              "type": "address"
            },
            {
              "internalType": "uint256",
              "name": "size",
              "type": "uint256"
            },
            {
              "internalType": "uint256",
              "name": "amount",
              "type": "uint256"
            },
            {
              "internalType": "uint256",
              "name": "price",
              "type": "uint256"
            },
            {
              "internalType": "uint256",
              "name": "startDate",
              "type": "uint256"
            },
            {
              "internalType": "uint256",
              "name": "endDate",
              "type": "uint256"
            }
          ],
          "internalType": "struct MHT.SellItem[]",
          "name": "newItemList",
          "type": "tuple[]"
        }
      ],
      "name": "createPriceItemForAHolding",
      "outputs": [],
      "stateMutability": "nonpayable",
      "type": "function"
    },
    {
      "inputs": [
        {
          "internalType": "uint8",
          "name": "riceType",
          "type": "uint8"
        },
        {
          "components": [
            {
              "internalType": "address",
              "name": "buyer",
              "type": "address"
            },
            {
              "internalType": "address",
              "name": "seller",
              "type": "address"
            },
            {
              "internalType": "uint256",
              "name": "size",
              "type": "uint256"
            },
            {
              "internalType": "uint256",
              "name": "amount",
              "type": "uint256"
            },
            {
              "internalType": "uint256",
              "name": "price",
              "type": "uint256"
            },
            {
              "internalType": "uint256",
              "name": "startDate",
              "type": "uint256"
            },
            {
              "internalType": "uint256",
              "name": "endDate",
              "type": "uint256"
            }
          ],
          "internalType": "struct MHT.BuyItem[]",
          "name": "newItemList",
          "type": "tuple[]"
        }
      ],
      "name": "createRequest",
      "outputs": [],
      "stateMutability": "nonpayable",
      "type": "function"
    },
    {
      "inputs": [
        {
          "internalType": "address",
          "name": "buyer",
          "type": "address"
        }
      ],
      "name": "getBuyerBalance",
      "outputs": [
        {
          "components": [
            {
              "internalType": "address",
              "name": "seller",
              "type": "address"
            },
            {
              "internalType": "uint256",
              "name": "amount",
              "type": "uint256"
            },
            {
              "internalType": "uint8",
              "name": "riceType",
              "type": "uint8"
            },
            {
              "internalType": "uint256",
              "name": "price",
              "type": "uint256"
            },
            {
              "internalType": "uint256",
              "name": "startDate",
              "type": "uint256"
            },
            {
              "internalType": "uint256",
              "name": "endDate",
              "type": "uint256"
            }
          ],
          "internalType": "struct MHT.Item[]",
          "name": "",
          "type": "tuple[]"
        }
      ],
      "stateMutability": "view",
      "type": "function"
    },
    {
      "inputs": [
        {
          "internalType": "address",
          "name": "seller",
          "type": "address"
        },
        {
          "internalType": "uint8",
          "name": "riceType",
          "type": "uint8"
        }
      ],
      "name": "getPriceListBySellerType",
      "outputs": [
        {
          "components": [
            {
              "internalType": "address",
              "name": "seller",
              "type": "address"
            },
            {
              "internalType": "uint256",
              "name": "size",
              "type": "uint256"
            },
            {
              "internalType": "uint256",
              "name": "amount",
              "type": "uint256"
            },
            {
              "internalType": "uint256",
              "name": "price",
              "type": "uint256"
            },
            {
              "internalType": "uint256",
              "name": "startDate",
              "type": "uint256"
            },
            {
              "internalType": "uint256",
              "name": "endDate",
              "type": "uint256"
            }
          ],
          "internalType": "struct MHT.SellItem[]",
          "name": "",
          "type": "tuple[]"
        }
      ],
      "stateMutability": "view",
      "type": "function"
    },
    {
      "inputs": [
        {
          "internalType": "uint8",
          "name": "riceType",
          "type": "uint8"
        }
      ],
      "name": "getPriceListByType",
      "outputs": [
        {
          "components": [
            {
              "internalType": "address",
              "name": "seller",
              "type": "address"
            },
            {
              "internalType": "uint256",
              "name": "size",
              "type": "uint256"
            },
            {
              "internalType": "uint256",
              "name": "amount",
              "type": "uint256"
            },
            {
              "internalType": "uint256",
              "name": "price",
              "type": "uint256"
            },
            {
              "internalType": "uint256",
              "name": "startDate",
              "type": "uint256"
            },
            {
              "internalType": "uint256",
              "name": "endDate",
              "type": "uint256"
            }
          ],
          "internalType": "struct MHT.SellItem[]",
          "name": "",
          "type": "tuple[]"
        }
      ],
      "stateMutability": "view",
      "type": "function"
    },
    {
      "inputs": [
        {
          "internalType": "address",
          "name": "holder",
          "type": "address"
        },
        {
          "internalType": "uint8",
          "name": "riceType",
          "type": "uint8"
        }
      ],
      "name": "getRequestListByHolderType",
      "outputs": [
        {
          "components": [
            {
              "internalType": "address",
              "name": "buyer",
              "type": "address"
            },
            {
              "internalType": "address",
              "name": "seller",
              "type": "address"
            },
            {
              "internalType": "uint256",
              "name": "size",
              "type": "uint256"
            },
            {
              "internalType": "uint256",
              "name": "amount",
              "type": "uint256"
            },
            {
              "internalType": "uint256",
              "name": "price",
              "type": "uint256"
            },
            {
              "internalType": "uint256",
              "name": "startDate",
              "type": "uint256"
            },
            {
              "internalType": "uint256",
              "name": "endDate",
              "type": "uint256"
            }
          ],
          "internalType": "struct MHT.BuyItem[]",
          "name": "",
          "type": "tuple[]"
        }
      ],
      "stateMutability": "view",
      "type": "function"
    },
    {
      "inputs": [
        {
          "internalType": "address",
          "name": "seller",
          "type": "address"
        }
      ],
      "name": "getSellerSoldList",
      "outputs": [
        {
          "components": [
            {
              "internalType": "address",
              "name": "buyer",
              "type": "address"
            },
            {
              "internalType": "uint256",
              "name": "amount",
              "type": "uint256"
            },
            {
              "internalType": "uint8",
              "name": "riceType",
              "type": "uint8"
            },
            {
              "internalType": "uint256",
              "name": "price",
              "type": "uint256"
            },
            {
              "internalType": "uint256",
              "name": "startDate",
              "type": "uint256"
            },
            {
              "internalType": "uint256",
              "name": "endDate",
              "type": "uint256"
            },
            {
              "internalType": "uint256",
              "name": "soldTime",
              "type": "uint256"
            }
          ],
          "internalType": "struct MHT.SoldItem[]",
          "name": "",
          "type": "tuple[]"
        }
      ],
      "stateMutability": "view",
      "type": "function"
    },
    {
      "inputs": [
        {
          "internalType": "address",
          "name": "seller",
          "type": "address"
        }
      ],
      "name": "getSellerTypeBalance",
      "outputs": [
        {
          "components": [
            {
              "internalType": "uint8",
              "name": "riceType",
              "type": "uint8"
            },
            {
              "internalType": "uint256",
              "name": "balance",
              "type": "uint256"
            },
            {
              "internalType": "uint256",
              "name": "startDate",
              "type": "uint256"
            },
            {
              "internalType": "uint256",
              "name": "endDate",
              "type": "uint256"
            }
          ],
          "internalType": "struct MHT.TypeBalance[]",
          "name": "",
          "type": "tuple[]"
        }
      ],
      "stateMutability": "view",
      "type": "function"
    },
    {
      "inputs": [],
      "name": "getTotalBuyerBalance",
      "outputs": [
        {
          "internalType": "uint256",
          "name": "",
          "type": "uint256"
        }
      ],
      "stateMutability": "view",
      "type": "function"
    },
    {
      "inputs": [],
      "name": "getTotalFarmerBalance",
      "outputs": [
        {
          "internalType": "uint256",
          "name": "",
          "type": "uint256"
        }
      ],
      "stateMutability": "view",
      "type": "function"
    },
    {
      "inputs": [],
      "name": "getTotalSupply",
      "outputs": [
        {
          "internalType": "uint256",
          "name": "",
          "type": "uint256"
        }
      ],
      "stateMutability": "view",
      "type": "function"
    },
    {
      "inputs": [
        {
          "internalType": "address",
          "name": "userAdd",
          "type": "address"
        }
      ],
      "name": "isAddressSeller",
      "outputs": [
        {
          "internalType": "bool",
          "name": "",
          "type": "bool"
        }
      ],
      "stateMutability": "view",
      "type": "function"
    },
    {
      "inputs": [
        {
          "components": [
            {
              "internalType": "address",
              "name": "seller",
              "type": "address"
            },
            {
              "internalType": "uint8",
              "name": "riceType",
              "type": "uint8"
            },
            {
              "internalType": "uint256",
              "name": "balance",
              "type": "uint256"
            },
            {
              "internalType": "uint256",
              "name": "startDate",
              "type": "uint256"
            },
            {
              "internalType": "uint256",
              "name": "endDate",
              "type": "uint256"
            }
          ],
          "internalType": "struct MHT.AddressTypeBalance[]",
          "name": "assignedTypeBalance",
          "type": "tuple[]"
        }
      ],
      "name": "issueToSeller",
      "outputs": [],
      "stateMutability": "nonpayable",
      "type": "function"
    },
    {
      "inputs": [],
      "name": "name",
      "outputs": [
        {
          "internalType": "string",
          "name": "",
          "type": "string"
        }
      ],
      "stateMutability": "view",
      "type": "function"
    },
    {
      "inputs": [],
      "name": "owner",
      "outputs": [
        {
          "internalType": "address",
          "name": "",
          "type": "address"
        }
      ],
      "stateMutability": "view",
      "type": "function"
    },
    {
      "inputs": [
        {
          "internalType": "uint8",
          "name": "riceType",
          "type": "uint8"
        },
        {
          "components": [
            {
              "internalType": "address",
              "name": "buyer",
              "type": "address"
            },
            {
              "internalType": "address",
              "name": "seller",
              "type": "address"
            },
            {
              "internalType": "uint256",
              "name": "size",
              "type": "uint256"
            },
            {
              "internalType": "uint256",
              "name": "amount",
              "type": "uint256"
            },
            {
              "internalType": "uint256",
              "name": "price",
              "type": "uint256"
            },
            {
              "internalType": "uint256",
              "name": "startDate",
              "type": "uint256"
            },
            {
              "internalType": "uint256",
              "name": "endDate",
              "type": "uint256"
            }
          ],
          "internalType": "struct MHT.BuyItem[]",
          "name": "newItemList",
          "type": "tuple[]"
        }
      ],
      "name": "sendItemToBuyer",
      "outputs": [],
      "stateMutability": "nonpayable",
      "type": "function"
    },
    {
      "inputs": [],
      "name": "symbol",
      "outputs": [
        {
          "internalType": "string",
          "name": "",
          "type": "string"
        }
      ],
      "stateMutability": "view",
      "type": "function"
    },
    {
      "inputs": [],
      "name": "totalBuyerBalance",
      "outputs": [
        {
          "internalType": "uint256",
          "name": "",
          "type": "uint256"
        }
      ],
      "stateMutability": "view",
      "type": "function"
    },
    {
      "inputs": [],
      "name": "totalFarmerBalance",
      "outputs": [
        {
          "internalType": "uint256",
          "name": "",
          "type": "uint256"
        }
      ],
      "stateMutability": "view",
      "type": "function"
    },
    {
      "inputs": [],
      "name": "totalSupply",
      "outputs": [
        {
          "internalType": "uint256",
          "name": "",
          "type": "uint256"
        }
      ],
      "stateMutability": "view",
      "type": "function"
    },
    {
      "inputs": [
        {
          "internalType": "address",
          "name": "to",
          "type": "address"
        },
        {
          "internalType": "uint256",
          "name": "amount",
          "type": "uint256"
        }
      ],
      "name": "transfer",
      "outputs": [],
      "stateMutability": "nonpayable",
      "type": "function"
    },
    {
      "inputs": [
        {
          "internalType": "address",
          "name": "seller",
          "type": "address"
        },
        {
          "internalType": "address",
          "name": "buyer",
          "type": "address"
        },
        {
          "internalType": "uint256",
          "name": "numTokens",
          "type": "uint256"
        }
      ],
      "name": "transferFrom",
      "outputs": [],
      "stateMutability": "nonpayable",
      "type": "function"
    }
  ],
  "bytecode": "0x60806040526040518060400160405280600e81526020017f4d7920547261646520546f6b656e000000000000000000000000000000000000815250600090816200004a9190620003ae565b506040518060400160405280600381526020017f4d4854000000000000000000000000000000000000000000000000000000000081525060019081620000919190620003ae565b50620f4240600455348015620000a657600080fd5b50600454600660003373ffffffffffffffffffffffffffffffffffffffff1673ffffffffffffffffffffffffffffffffffffffff1681526020019081526020016000208190555033600560006101000a81548173ffffffffffffffffffffffffffffffffffffffff021916908373ffffffffffffffffffffffffffffffffffffffff16021790555062000495565b600081519050919050565b7f4e487b7100000000000000000000000000000000000000000000000000000000600052604160045260246000fd5b7f4e487b7100000000000000000000000000000000000000000000000000000000600052602260045260246000fd5b60006002820490506001821680620001b657607f821691505b602082108103620001cc57620001cb6200016e565b5b50919050565b60008190508160005260206000209050919050565b60006020601f8301049050919050565b600082821b905092915050565b600060088302620002367fffffffffffffffffffffffffffffffffffffffffffffffffffffffffffffffff82620001f7565b620002428683620001f7565b95508019841693508086168417925050509392505050565b6000819050919050565b6000819050919050565b60006200028f6200028962000283846200025a565b62000264565b6200025a565b9050919050565b6000819050919050565b620002ab836200026e565b620002c3620002ba8262000296565b84845462000204565b825550505050565b600090565b620002da620002cb565b620002e7818484620002a0565b505050565b5b818110156200030f5762000303600082620002d0565b600181019050620002ed565b5050565b601f8211156200035e576200032881620001d2565b6200033384620001e7565b8101602085101562000343578190505b6200035b6200035285620001e7565b830182620002ec565b50505b505050565b600082821c905092915050565b6000620003836000198460080262000363565b1980831691505092915050565b60006200039e838362000370565b9150826002028217905092915050565b620003b98262000134565b67ffffffffffffffff811115620003d557620003d46200013f565b5b620003e182546200019d565b620003ee82828562000313565b600060209050601f83116001811462000426576000841562000411578287015190505b6200041d858262000390565b8655506200048d565b601f1984166200043686620001d2565b60005b82811015620004605784890151825560018201915060208501945060208101905062000439565b868310156200048057848901516200047c601f89168262000370565b8355505b6001600288020188555050505b505050505050565b61487380620004a56000396000f3fe608060405234801561001057600080fd5b506004361061014d5760003560e01c80636afb38bf116100c35780639e2890011161007c5780639e289001146103b45780639eefeded146103d2578063a9059cbb14610402578063c4e41b221461041e578063de6f1fed1461043c578063ecb73e501461046c5761014d565b80636afb38bf146102f057806370a082311461030c5780637537a6351461033c57806386b52faf1461035a5780638da5cb5b1461037857806395d89b41146103965761014d565b80632d7f01c3116101155780632d7f01c3146101f657806336466004146102265780633e9970d21461024457806342578ce7146102745780634949c90f146102a45780635943e241146102d45761014d565b806306fdde031461015257806318160ddd1461017057806321ff20361461018e57806323b872dd146101aa57806329b087e8146101c6575b600080fd5b61015a610488565b6040516101679190613632565b60405180910390f35b610178610516565b604051610185919061366d565b60405180910390f35b6101a860048036038101906101a39190613960565b61051c565b005b6101c460048036038101906101bf91906139bc565b6113bb565b005b6101e060048036038101906101db9190613a0f565b6115e7565b6040516101ed9190613b5e565b60405180910390f35b610210600480360381019061020b9190613b80565b6116c0565b60405161021d9190613ce6565b60405180910390f35b61022e6117c0565b60405161023b919061366d565b60405180910390f35b61025e60048036038101906102599190613a0f565b6117ca565b60405161026b9190613e45565b60405180910390f35b61028e60048036038101906102899190613e67565b61190d565b60405161029b9190613ce6565b60405180910390f35b6102be60048036038101906102b99190613a0f565b611c07565b6040516102cb9190613fd1565b60405180910390f35b6102ee60048036038101906102e99190613960565b611d40565b005b61030a60048036038101906103059190614156565b611e83565b005b61032660048036038101906103219190613a0f565b61258f565b604051610333919061366d565b60405180910390f35b6103446125d8565b604051610351919061366d565b60405180910390f35b6103626125de565b60405161036f919061366d565b60405180910390f35b6103806125e4565b60405161038d91906141c1565b60405180910390f35b61039e61260a565b6040516103ab9190613632565b60405180910390f35b6103bc612698565b6040516103c9919061366d565b60405180910390f35b6103ec60048036038101906103e79190613e67565b6126a2565b6040516103f99190614319565b60405180910390f35b61041c6004803603810190610417919061433b565b6129f2565b005b610426612b89565b604051610433919061366d565b60405180910390f35b61045660048036038101906104519190613a0f565b612b93565b6040516104639190614396565b60405180910390f35b61048660048036038101906104819190614500565b612bf2565b005b6000805461049590614578565b80601f01602080910402602001604051908101604052809291908181526020018280546104c190614578565b801561050e5780601f106104e35761010080835404028352916020019161050e565b820191906000526020600020905b8154815290600101906020018083116104f157829003601f168201915b505050505081565b60045481565b6105246134c2565b60005b600760008460008151811061053f5761053e6145a9565b5b60200260200101516020015173ffffffffffffffffffffffffffffffffffffffff1673ffffffffffffffffffffffffffffffffffffffff16815260200190815260200160002080549050811015610860578360ff1660076000856000815181106105ac576105ab6145a9565b5b60200260200101516020015173ffffffffffffffffffffffffffffffffffffffff1673ffffffffffffffffffffffffffffffffffffffff1681526020019081526020016000208281548110610604576106036145a9565b5b906000526020600020906004020160000160009054906101000a900460ff1660ff161480156106d2575082600081518110610642576106416145a9565b5b602002602001015160a001516007600085600081518110610666576106656145a9565b5b60200260200101516020015173ffffffffffffffffffffffffffffffffffffffff1673ffffffffffffffffffffffffffffffffffffffff16815260200190815260200160002082815481106106be576106bd6145a9565b5b906000526020600020906004020160020154145b801561077d5750826000815181106106ed576106ec6145a9565b5b602002602001015160c001516007600085600081518110610711576107106145a9565b5b60200260200101516020015173ffffffffffffffffffffffffffffffffffffffff1673ffffffffffffffffffffffffffffffffffffffff1681526020019081526020016000208281548110610769576107686145a9565b5b906000526020600020906004020160030154145b1561084d57600760008460008151811061079a576107996145a9565b5b60200260200101516020015173ffffffffffffffffffffffffffffffffffffffff1673ffffffffffffffffffffffffffffffffffffffff16815260200190815260200160002081815481106107f2576107f16145a9565b5b90600052602060002090600402016040518060800160405290816000820160009054906101000a900460ff1660ff1660ff16815260200160018201548152602001600282015481526020016003820154815250509150610860565b808061085890614607565b915050610527565b506108696134ed565b600080600090505b600a60008760ff1660ff16815260200190815260200160002080549050811015610bc557846000815181106108a9576108a86145a9565b5b60200260200101516020015173ffffffffffffffffffffffffffffffffffffffff16600a60008860ff1660ff16815260200190815260200160002082815481106108f6576108f56145a9565b5b906000526020600020906006020160000160009054906101000a900473ffffffffffffffffffffffffffffffffffffffff1673ffffffffffffffffffffffffffffffffffffffff161480156109a557508460008151811061095a576109596145a9565b5b602002602001015160a00151600a60008860ff1660ff1681526020019081526020016000208281548110610991576109906145a9565b5b906000526020600020906006020160040154145b8015610a0b5750846000815181106109c0576109bf6145a9565b5b602002602001015160c00151600a60008860ff1660ff16815260200190815260200160002082815481106109f7576109f66145a9565b5b906000526020600020906006020160050154145b8015610a71575084600081518110610a2657610a256145a9565b5b602002602001015160800151600a60008860ff1660ff1681526020019081526020016000208281548110610a5d57610a5c6145a9565b5b906000526020600020906006020160030154145b8015610ad7575084600081518110610a8c57610a8b6145a9565b5b602002602001015160400151600a60008860ff1660ff1681526020019081526020016000208281548110610ac357610ac26145a9565b5b906000526020600020906006020160010154145b15610bb257600a60008760ff1660ff1681526020019081526020016000208181548110610b0757610b066145a9565b5b90600052602060002090600602016040518060c00160405290816000820160009054906101000a900473ffffffffffffffffffffffffffffffffffffffff1673ffffffffffffffffffffffffffffffffffffffff1673ffffffffffffffffffffffffffffffffffffffff168152602001600182015481526020016002820154815260200160038201548152602001600482015481526020016005820154815250509250809150610bc5565b8080610bbd90614607565b915050610871565b50600080600090505b8551811015610c3f57858181518110610bea57610be96145a9565b5b602002602001015160400151868281518110610c0957610c086145a9565b5b602002602001015160600151610c1f919061464f565b82610c2a9190614691565b91508080610c3790614607565b915050610bce565b5082602001518360400151610c54919061464f565b8110610c95576040517f08c379a0000000000000000000000000000000000000000000000000000000008152600401610c8c90614711565b60405180910390fd5b83602001518110610cdb576040517f08c379a0000000000000000000000000000000000000000000000000000000008152600401610cd29061477d565b60405180910390fd5b60005b855181101561125f57858181518110610cfa57610cf96145a9565b5b60200260200101516060015184604001818151610d17919061479d565b91508181525050858181518110610d3157610d306145a9565b5b602002602001015160400151868281518110610d5057610d4f6145a9565b5b602002602001015160600151610d66919061464f565b85602001818151610d77919061479d565b9150818152505060006040518060c00160405280888481518110610d9e57610d9d6145a9565b5b60200260200101516020015173ffffffffffffffffffffffffffffffffffffffff168152602001888481518110610dd857610dd76145a9565b5b60200260200101516060015181526020018960ff168152602001888481518110610e0557610e046145a9565b5b6020026020010151608001518152602001888481518110610e2957610e286145a9565b5b602002602001015160a001518152602001888481518110610e4d57610e4c6145a9565b5b602002602001015160c00151815250905060096000888481518110610e7557610e746145a9565b5b60200260200101516000015173ffffffffffffffffffffffffffffffffffffffff1673ffffffffffffffffffffffffffffffffffffffff16815260200190815260200160002081908060018154018082558091505060019003906000526020600020906006020160009091909190915060008201518160000160006101000a81548173ffffffffffffffffffffffffffffffffffffffff021916908373ffffffffffffffffffffffffffffffffffffffff1602179055506020820151816001015560408201518160020160006101000a81548160ff021916908360ff160217905550606082015181600301556080820151816004015560a08201518160050155505060006040518060e00160405280898581518110610f9757610f966145a9565b5b60200260200101516000015173ffffffffffffffffffffffffffffffffffffffff168152602001898581518110610fd157610fd06145a9565b5b60200260200101516060015181526020018a60ff168152602001898581518110610ffe57610ffd6145a9565b5b6020026020010151608001518152602001898581518110611022576110216145a9565b5b602002602001015160a001518152602001898581518110611046576110456145a9565b5b602002602001015160c00151815260200142815250905060086000898581518110611074576110736145a9565b5b60200260200101516020015173ffffffffffffffffffffffffffffffffffffffff1673ffffffffffffffffffffffffffffffffffffffff16815260200190815260200160002081908060018154018082558091505060019003906000526020600020906007020160009091909190915060008201518160000160006101000a81548173ffffffffffffffffffffffffffffffffffffffff021916908373ffffffffffffffffffffffffffffffffffffffff1602179055506020820151816001015560408201518160020160006101000a81548160ff021916908360ff160217905550606082015181600301556080820151816004015560a0820151816005015560c082015181600601555050878381518110611193576111926145a9565b5b60200260200101516000015173ffffffffffffffffffffffffffffffffffffffff163373ffffffffffffffffffffffffffffffffffffffff167fddf252ad1be2c89b69c2b068fc378daa952ba7f163c4a11628f55a4df523b3ef8a8681518110611200576111ff6145a9565b5b6020026020010151604001518b878151811061121f5761121e6145a9565b5b602002602001015160600151611235919061464f565b604051611242919061366d565b60405180910390a35050808061125790614607565b915050610cde565b5060008360400151036112fc57600a60008760ff1660ff1681526020019081526020016000208281548110611297576112966145a9565b5b9060005260206000209060060201600080820160006101000a81549073ffffffffffffffffffffffffffffffffffffffff02191690556001820160009055600282016000905560038201600090556004820160009055600582016000905550506113b3565b82600a60008860ff1660ff1681526020019081526020016000208381548110611328576113276145a9565b5b906000526020600020906006020160008201518160000160006101000a81548173ffffffffffffffffffffffffffffffffffffffff021916908373ffffffffffffffffffffffffffffffffffffffff1602179055506020820151816001015560408201518160020155606082015181600301556080820151816004015560a082015181600501559050505b505050505050565b600660008473ffffffffffffffffffffffffffffffffffffffff1673ffffffffffffffffffffffffffffffffffffffff1681526020019081526020016000205481111561140757600080fd5b600560009054906101000a900473ffffffffffffffffffffffffffffffffffffffff1673ffffffffffffffffffffffffffffffffffffffff168373ffffffffffffffffffffffffffffffffffffffff161461146157600080fd5b80600660008573ffffffffffffffffffffffffffffffffffffffff1673ffffffffffffffffffffffffffffffffffffffff168152602001908152602001600020546114ac919061479d565b600660008573ffffffffffffffffffffffffffffffffffffffff1673ffffffffffffffffffffffffffffffffffffffff1681526020019081526020016000208190555080600660008473ffffffffffffffffffffffffffffffffffffffff1673ffffffffffffffffffffffffffffffffffffffff1681526020019081526020016000205461153a9190614691565b600660008473ffffffffffffffffffffffffffffffffffffffff1673ffffffffffffffffffffffffffffffffffffffff168152602001908152602001600020819055508173ffffffffffffffffffffffffffffffffffffffff168373ffffffffffffffffffffffffffffffffffffffff167fddf252ad1be2c89b69c2b068fc378daa952ba7f163c4a11628f55a4df523b3ef836040516115da919061366d565b60405180910390a3505050565b6060600760008373ffffffffffffffffffffffffffffffffffffffff1673ffffffffffffffffffffffffffffffffffffffff168152602001908152602001600020805480602002602001604051908101604052809291908181526020016000905b828210156116b557838290600052602060002090600402016040518060800160405290816000820160009054906101000a900460ff1660ff1660ff168152602001600182015481526020016002820154815260200160038201548152505081526020019060010190611648565b505050509050919050565b6060600a60008360ff1660ff168152602001908152602001600020805480602002602001604051908101604052809291908181526020016000905b828210156117b557838290600052602060002090600602016040518060c00160405290816000820160009054906101000a900473ffffffffffffffffffffffffffffffffffffffff1673ffffffffffffffffffffffffffffffffffffffff1673ffffffffffffffffffffffffffffffffffffffff16815260200160018201548152602001600282015481526020016003820154815260200160048201548152602001600582015481525050815260200190600101906116fb565b505050509050919050565b6000600254905090565b6060600860008373ffffffffffffffffffffffffffffffffffffffff1673ffffffffffffffffffffffffffffffffffffffff168152602001908152602001600020805480602002602001604051908101604052809291908181526020016000905b8282101561190257838290600052602060002090600702016040518060e00160405290816000820160009054906101000a900473ffffffffffffffffffffffffffffffffffffffff1673ffffffffffffffffffffffffffffffffffffffff1673ffffffffffffffffffffffffffffffffffffffff168152602001600182015481526020016002820160009054906101000a900460ff1660ff1660ff1681526020016003820154815260200160048201548152602001600582015481526020016006820154815250508152602001906001019061182b565b505050509050919050565b6060600080600090505b600a60008560ff1660ff168152602001908152602001600020805490508110156119ec578473ffffffffffffffffffffffffffffffffffffffff16600a60008660ff1660ff168152602001908152602001600020828154811061197d5761197c6145a9565b5b906000526020600020906006020160000160009054906101000a900473ffffffffffffffffffffffffffffffffffffffff1673ffffffffffffffffffffffffffffffffffffffff16036119d95781806119d590614607565b9250505b80806119e490614607565b915050611917565b5060008167ffffffffffffffff811115611a0957611a086136da565b5b604051908082528060200260200182016040528015611a4257816020015b611a2f6134ed565b815260200190600190039081611a275790505b5090506000805b600a60008760ff1660ff16815260200190815260200160002080549050811015611bfa578673ffffffffffffffffffffffffffffffffffffffff16600a60008860ff1660ff1681526020019081526020016000208281548110611aaf57611aae6145a9565b5b906000526020600020906006020160000160009054906101000a900473ffffffffffffffffffffffffffffffffffffffff1673ffffffffffffffffffffffffffffffffffffffff1603611be757600a60008760ff1660ff1681526020019081526020016000208181548110611b2757611b266145a9565b5b90600052602060002090600602016040518060c00160405290816000820160009054906101000a900473ffffffffffffffffffffffffffffffffffffffff1673ffffffffffffffffffffffffffffffffffffffff1673ffffffffffffffffffffffffffffffffffffffff16815260200160018201548152602001600282015481526020016003820154815260200160048201548152602001600582015481525050838381518110611bdb57611bda6145a9565b5b60200260200101819052505b8080611bf290614607565b915050611a49565b5081935050505092915050565b6060600960008373ffffffffffffffffffffffffffffffffffffffff1673ffffffffffffffffffffffffffffffffffffffff168152602001908152602001600020805480602002602001604051908101604052809291908181526020016000905b82821015611d3557838290600052602060002090600602016040518060c00160405290816000820160009054906101000a900473ffffffffffffffffffffffffffffffffffffffff1673ffffffffffffffffffffffffffffffffffffffff1673ffffffffffffffffffffffffffffffffffffffff168152602001600182015481526020016002820160009054906101000a900460ff1660ff1660ff168152602001600382015481526020016004820154815260200160058201548152505081526020019060010190611c68565b505050509050919050565b60005b8151811015611e7e57600b60008460ff1660ff168152602001908152602001600020828281518110611d7857611d776145a9565b5b6020026020010151908060018154018082558091505060019003906000526020600020906007020160009091909190915060008201518160000160006101000a81548173ffffffffffffffffffffffffffffffffffffffff021916908373ffffffffffffffffffffffffffffffffffffffff16021790555060208201518160010160006101000a81548173ffffffffffffffffffffffffffffffffffffffff021916908373ffffffffffffffffffffffffffffffffffffffff16021790555060408201518160020155606082015181600301556080820151816004015560a0820151816005015560c0820151816006015550508080611e7690614607565b915050611d43565b505050565b600080600080600090505b6007600086600081518110611ea657611ea56145a9565b5b60200260200101516000015173ffffffffffffffffffffffffffffffffffffffff1673ffffffffffffffffffffffffffffffffffffffff16815260200190815260200160002080549050811015612185578560ff166007600087600081518110611f1357611f126145a9565b5b60200260200101516000015173ffffffffffffffffffffffffffffffffffffffff1673ffffffffffffffffffffffffffffffffffffffff1681526020019081526020016000208281548110611f6b57611f6a6145a9565b5b906000526020600020906004020160000160009054906101000a900460ff1660ff16148015612039575084600081518110611fa957611fa86145a9565b5b6020026020010151608001516007600087600081518110611fcd57611fcc6145a9565b5b60200260200101516000015173ffffffffffffffffffffffffffffffffffffffff1673ffffffffffffffffffffffffffffffffffffffff1681526020019081526020016000208281548110612025576120246145a9565b5b906000526020600020906004020160020154145b80156120e4575084600081518110612054576120536145a9565b5b602002602001015160a001516007600087600081518110612078576120776145a9565b5b60200260200101516000015173ffffffffffffffffffffffffffffffffffffffff1673ffffffffffffffffffffffffffffffffffffffff16815260200190815260200160002082815481106120d0576120cf6145a9565b5b906000526020600020906004020160030154145b15612172576007600086600081518110612101576121006145a9565b5b60200260200101516000015173ffffffffffffffffffffffffffffffffffffffff1673ffffffffffffffffffffffffffffffffffffffff1681526020019081526020016000208181548110612159576121586145a9565b5b9060005260206000209060040201600101549350612185565b808061217d90614607565b915050611e8e565b5060005b600a60008760ff1660ff168152602001908152602001600020805490508110156123cd57846000815181106121c1576121c06145a9565b5b60200260200101516000015173ffffffffffffffffffffffffffffffffffffffff16600a60008860ff1660ff168152602001908152602001600020828154811061220e5761220d6145a9565b5b906000526020600020906006020160000160009054906101000a900473ffffffffffffffffffffffffffffffffffffffff1673ffffffffffffffffffffffffffffffffffffffff161480156122bd575084600081518110612272576122716145a9565b5b602002602001015160800151600a60008860ff1660ff16815260200190815260200160002082815481106122a9576122a86145a9565b5b906000526020600020906006020160040154145b80156123235750846000815181106122d8576122d76145a9565b5b602002602001015160a00151600a60008860ff1660ff168152602001908152602001600020828154811061230f5761230e6145a9565b5b906000526020600020906006020160050154145b156123ba57600a60008760ff1660ff1681526020019081526020016000208181548110612353576123526145a9565b5b906000526020600020906006020160010154600a60008860ff1660ff16815260200190815260200160002082815481106123905761238f6145a9565b5b9060005260206000209060060201600201546123ac919061464f565b836123b79190614691565b92505b80806123c590614607565b915050612189565b5060005b8451811015612442578481815181106123ed576123ec6145a9565b5b60200260200101516020015185828151811061240c5761240b6145a9565b5b602002602001015160400151612422919061464f565b8261242d9190614691565b9150808061243a90614607565b9150506123d1565b508281836124509190614691565b10612490576040517f08c379a00000000000000000000000000000000000000000000000000000000081526004016124879061477d565b60405180910390fd5b60005b845181101561258757600a60008760ff1660ff1681526020019081526020016000208582815181106124c8576124c76145a9565b5b6020026020010151908060018154018082558091505060019003906000526020600020906006020160009091909190915060008201518160000160006101000a81548173ffffffffffffffffffffffffffffffffffffffff021916908373ffffffffffffffffffffffffffffffffffffffff1602179055506020820151816001015560408201518160020155606082015181600301556080820151816004015560a082015181600501555050808061257f90614607565b915050612493565b505050505050565b6000600660008373ffffffffffffffffffffffffffffffffffffffff1673ffffffffffffffffffffffffffffffffffffffff168152602001908152602001600020549050919050565b60035481565b60025481565b600560009054906101000a900473ffffffffffffffffffffffffffffffffffffffff1681565b6001805461261790614578565b80601f016020809104026020016040519081016040528092919081815260200182805461264390614578565b80156126905780601f1061266557610100808354040283529160200191612690565b820191906000526020600020905b81548152906001019060200180831161267357829003601f168201915b505050505081565b6000600354905090565b6060600080600090505b600b60008560ff1660ff16815260200190815260200160002080549050811015612781578473ffffffffffffffffffffffffffffffffffffffff16600b60008660ff1660ff1681526020019081526020016000208281548110612712576127116145a9565b5b906000526020600020906007020160010160009054906101000a900473ffffffffffffffffffffffffffffffffffffffff1673ffffffffffffffffffffffffffffffffffffffff160361276e57818061276a90614607565b9250505b808061277990614607565b9150506126ac565b5060008167ffffffffffffffff81111561279e5761279d6136da565b5b6040519080825280602002602001820160405280156127d757816020015b6127c4613539565b8152602001906001900390816127bc5790505b5090506000805b600a60008760ff1660ff168152602001908152602001600020805490508110156129e5578673ffffffffffffffffffffffffffffffffffffffff16600b60008860ff1660ff1681526020019081526020016000208281548110612844576128436145a9565b5b906000526020600020906007020160010160009054906101000a900473ffffffffffffffffffffffffffffffffffffffff1673ffffffffffffffffffffffffffffffffffffffff16036129d257600b60008760ff1660ff16815260200190815260200160002081815481106128bc576128bb6145a9565b5b90600052602060002090600702016040518060e00160405290816000820160009054906101000a900473ffffffffffffffffffffffffffffffffffffffff1673ffffffffffffffffffffffffffffffffffffffff1673ffffffffffffffffffffffffffffffffffffffff1681526020016001820160009054906101000a900473ffffffffffffffffffffffffffffffffffffffff1673ffffffffffffffffffffffffffffffffffffffff1673ffffffffffffffffffffffffffffffffffffffff168152602001600282015481526020016003820154815260200160048201548152602001600582015481526020016006820154815250508383815181106129c6576129c56145a9565b5b60200260200101819052505b80806129dd90614607565b9150506127de565b5081935050505092915050565b80600660003373ffffffffffffffffffffffffffffffffffffffff1673ffffffffffffffffffffffffffffffffffffffff168152602001908152602001600020541015612a74576040517f08c379a0000000000000000000000000000000000000000000000000000000008152600401612a6b9061481d565b60405180910390fd5b80600660003373ffffffffffffffffffffffffffffffffffffffff1673ffffffffffffffffffffffffffffffffffffffff1681526020019081526020016000206000828254612ac3919061479d565b9250508190555080600660008473ffffffffffffffffffffffffffffffffffffffff1673ffffffffffffffffffffffffffffffffffffffff1681526020019081526020016000206000828254612b199190614691565b925050819055508173ffffffffffffffffffffffffffffffffffffffff163373ffffffffffffffffffffffffffffffffffffffff167fddf252ad1be2c89b69c2b068fc378daa952ba7f163c4a11628f55a4df523b3ef83604051612b7d919061366d565b60405180910390a35050565b6000600454905090565b600080600760008473ffffffffffffffffffffffffffffffffffffffff1673ffffffffffffffffffffffffffffffffffffffff168152602001908152602001600020805490501115612be85760019050612bed565b600090505b919050565b600560009054906101000a900473ffffffffffffffffffffffffffffffffffffffff1673ffffffffffffffffffffffffffffffffffffffff163373ffffffffffffffffffffffffffffffffffffffff1614612c4c57600080fd5b6000612c5782613466565b905080600660003373ffffffffffffffffffffffffffffffffffffffff1673ffffffffffffffffffffffffffffffffffffffff168152602001908152602001600020541015612cdb576040517f08c379a0000000000000000000000000000000000000000000000000000000008152600401612cd29061481d565b60405180910390fd5b60005b8251811015613461576000838281518110612cfc57612cfb6145a9565b5b60200260200101516000015190506000600760008373ffffffffffffffffffffffffffffffffffffffff1673ffffffffffffffffffffffffffffffffffffffff16815260200190815260200160002080549050111561315f576000805b600760008473ffffffffffffffffffffffffffffffffffffffff1673ffffffffffffffffffffffffffffffffffffffff1681526020019081526020016000208054905081101561300757858481518110612db657612db56145a9565b5b60200260200101516020015160ff16600760008573ffffffffffffffffffffffffffffffffffffffff1673ffffffffffffffffffffffffffffffffffffffff1681526020019081526020016000208281548110612e1657612e156145a9565b5b906000526020600020906004020160000160009054906101000a900460ff1660ff16148015612ec45750858481518110612e5357612e526145a9565b5b602002602001015160600151600760008573ffffffffffffffffffffffffffffffffffffffff1673ffffffffffffffffffffffffffffffffffffffff1681526020019081526020016000208281548110612eb057612eaf6145a9565b5b906000526020600020906004020160020154145b8015612f4f5750858481518110612ede57612edd6145a9565b5b602002602001015160800151600760008573ffffffffffffffffffffffffffffffffffffffff1673ffffffffffffffffffffffffffffffffffffffff1681526020019081526020016000208281548110612f3b57612f3a6145a9565b5b906000526020600020906004020160030154145b15612ff457858481518110612f6757612f666145a9565b5b602002602001015160400151600760008573ffffffffffffffffffffffffffffffffffffffff1673ffffffffffffffffffffffffffffffffffffffff1681526020019081526020016000208281548110612fc457612fc36145a9565b5b90600052602060002090600402016001016000828254612fe49190614691565b9250508190555060019150613007565b8080612fff90614607565b915050612d59565b5080613159576000604051806080016040528087868151811061302d5761302c6145a9565b5b60200260200101516020015160ff168152602001878681518110613054576130536145a9565b5b6020026020010151604001518152602001878681518110613078576130776145a9565b5b602002602001015160600151815260200187868151811061309c5761309b6145a9565b5b6020026020010151608001518152509050600760008473ffffffffffffffffffffffffffffffffffffffff1673ffffffffffffffffffffffffffffffffffffffff16815260200190815260200160002081908060018154018082558091505060019003906000526020600020906004020160009091909190915060008201518160000160006101000a81548160ff021916908360ff1602179055506020820151816001015560408201518160020155606082015181600301555050505b506132ab565b6000604051806080016040528086858151811061317f5761317e6145a9565b5b60200260200101516020015160ff1681526020018685815181106131a6576131a56145a9565b5b60200260200101516040015181526020018685815181106131ca576131c96145a9565b5b60200260200101516060015181526020018685815181106131ee576131ed6145a9565b5b6020026020010151608001518152509050600760008373ffffffffffffffffffffffffffffffffffffffff1673ffffffffffffffffffffffffffffffffffffffff16815260200190815260200160002081908060018154018082558091505060019003906000526020600020906004020160009091909190915060008201518160000160006101000a81548160ff021916908360ff1602179055506020820151816001015560408201518160020155606082015181600301555050505b8382815181106132be576132bd6145a9565b5b602002602001015160400151600660003373ffffffffffffffffffffffffffffffffffffffff1673ffffffffffffffffffffffffffffffffffffffff1681526020019081526020016000206000828254613318919061479d565b92505081905550838281518110613332576133316145a9565b5b602002602001015160400151600660008373ffffffffffffffffffffffffffffffffffffffff1673ffffffffffffffffffffffffffffffffffffffff168152602001908152602001600020600082825461338c9190614691565b925050819055508382815181106133a6576133a56145a9565b5b602002602001015160400151600260008282546133c39190614691565b925050819055508073ffffffffffffffffffffffffffffffffffffffff163373ffffffffffffffffffffffffffffffffffffffff167fddf252ad1be2c89b69c2b068fc378daa952ba7f163c4a11628f55a4df523b3ef86858151811061342c5761342b6145a9565b5b602002602001015160400151604051613445919061366d565b60405180910390a350808061345990614607565b915050612cde565b505050565b6000806000905060005b83518110156134b85783818151811061348c5761348b6145a9565b5b602002602001015160400151826134a39190614691565b915080806134b090614607565b915050613470565b5080915050919050565b6040518060800160405280600060ff1681526020016000815260200160008152602001600081525090565b6040518060c00160405280600073ffffffffffffffffffffffffffffffffffffffff16815260200160008152602001600081526020016000815260200160008152602001600081525090565b6040518060e00160405280600073ffffffffffffffffffffffffffffffffffffffff168152602001600073ffffffffffffffffffffffffffffffffffffffff16815260200160008152602001600081526020016000815260200160008152602001600081525090565b600081519050919050565b600082825260208201905092915050565b60005b838110156135dc5780820151818401526020810190506135c1565b60008484015250505050565b6000601f19601f8301169050919050565b6000613604826135a2565b61360e81856135ad565b935061361e8185602086016135be565b613627816135e8565b840191505092915050565b6000602082019050818103600083015261364c81846135f9565b905092915050565b6000819050919050565b61366781613654565b82525050565b6000602082019050613682600083018461365e565b92915050565b6000604051905090565b600080fd5b600080fd5b600060ff82169050919050565b6136b28161369c565b81146136bd57600080fd5b50565b6000813590506136cf816136a9565b92915050565b600080fd5b7f4e487b7100000000000000000000000000000000000000000000000000000000600052604160045260246000fd5b613712826135e8565b810181811067ffffffffffffffff82111715613731576137306136da565b5b80604052505050565b6000613744613688565b90506137508282613709565b919050565b600067ffffffffffffffff8211156137705761376f6136da565b5b602082029050602081019050919050565b600080fd5b600080fd5b600073ffffffffffffffffffffffffffffffffffffffff82169050919050565b60006137b68261378b565b9050919050565b6137c6816137ab565b81146137d157600080fd5b50565b6000813590506137e3816137bd565b92915050565b6137f281613654565b81146137fd57600080fd5b50565b60008135905061380f816137e9565b92915050565b600060e0828403121561382b5761382a613786565b5b61383560e061373a565b90506000613845848285016137d4565b6000830152506020613859848285016137d4565b602083015250604061386d84828501613800565b604083015250606061388184828501613800565b606083015250608061389584828501613800565b60808301525060a06138a984828501613800565b60a08301525060c06138bd84828501613800565b60c08301525092915050565b60006138dc6138d784613755565b61373a565b90508083825260208201905060e084028301858111156138ff576138fe613781565b5b835b8181101561392857806139148882613815565b84526020840193505060e081019050613901565b5050509392505050565b600082601f830112613947576139466136d5565b5b81356139578482602086016138c9565b91505092915050565b6000806040838503121561397757613976613692565b5b6000613985858286016136c0565b925050602083013567ffffffffffffffff8111156139a6576139a5613697565b5b6139b285828601613932565b9150509250929050565b6000806000606084860312156139d5576139d4613692565b5b60006139e3868287016137d4565b93505060206139f4868287016137d4565b9250506040613a0586828701613800565b9150509250925092565b600060208284031215613a2557613a24613692565b5b6000613a33848285016137d4565b91505092915050565b600081519050919050565b600082825260208201905092915050565b6000819050602082019050919050565b613a718161369c565b82525050565b613a8081613654565b82525050565b608082016000820151613a9c6000850182613a68565b506020820151613aaf6020850182613a77565b506040820151613ac26040850182613a77565b506060820151613ad56060850182613a77565b50505050565b6000613ae78383613a86565b60808301905092915050565b6000602082019050919050565b6000613b0b82613a3c565b613b158185613a47565b9350613b2083613a58565b8060005b83811015613b51578151613b388882613adb565b9750613b4383613af3565b925050600181019050613b24565b5085935050505092915050565b60006020820190508181036000830152613b788184613b00565b905092915050565b600060208284031215613b9657613b95613692565b5b6000613ba4848285016136c0565b91505092915050565b600081519050919050565b600082825260208201905092915050565b6000819050602082019050919050565b613be2816137ab565b82525050565b60c082016000820151613bfe6000850182613bd9565b506020820151613c116020850182613a77565b506040820151613c246040850182613a77565b506060820151613c376060850182613a77565b506080820151613c4a6080850182613a77565b5060a0820151613c5d60a0850182613a77565b50505050565b6000613c6f8383613be8565b60c08301905092915050565b6000602082019050919050565b6000613c9382613bad565b613c9d8185613bb8565b9350613ca883613bc9565b8060005b83811015613cd9578151613cc08882613c63565b9750613ccb83613c7b565b925050600181019050613cac565b5085935050505092915050565b60006020820190508181036000830152613d008184613c88565b905092915050565b600081519050919050565b600082825260208201905092915050565b6000819050602082019050919050565b60e082016000820151613d4a6000850182613bd9565b506020820151613d5d6020850182613a77565b506040820151613d706040850182613a68565b506060820151613d836060850182613a77565b506080820151613d966080850182613a77565b5060a0820151613da960a0850182613a77565b5060c0820151613dbc60c0850182613a77565b50505050565b6000613dce8383613d34565b60e08301905092915050565b6000602082019050919050565b6000613df282613d08565b613dfc8185613d13565b9350613e0783613d24565b8060005b83811015613e38578151613e1f8882613dc2565b9750613e2a83613dda565b925050600181019050613e0b565b5085935050505092915050565b60006020820190508181036000830152613e5f8184613de7565b905092915050565b60008060408385031215613e7e57613e7d613692565b5b6000613e8c858286016137d4565b9250506020613e9d858286016136c0565b9150509250929050565b600081519050919050565b600082825260208201905092915050565b6000819050602082019050919050565b60c082016000820151613ee96000850182613bd9565b506020820151613efc6020850182613a77565b506040820151613f0f6040850182613a68565b506060820151613f226060850182613a77565b506080820151613f356080850182613a77565b5060a0820151613f4860a0850182613a77565b50505050565b6000613f5a8383613ed3565b60c08301905092915050565b6000602082019050919050565b6000613f7e82613ea7565b613f888185613eb2565b9350613f9383613ec3565b8060005b83811015613fc4578151613fab8882613f4e565b9750613fb683613f66565b925050600181019050613f97565b5085935050505092915050565b60006020820190508181036000830152613feb8184613f73565b905092915050565b600067ffffffffffffffff82111561400e5761400d6136da565b5b602082029050602081019050919050565b600060c0828403121561403557614034613786565b5b61403f60c061373a565b9050600061404f848285016137d4565b600083015250602061406384828501613800565b602083015250604061407784828501613800565b604083015250606061408b84828501613800565b606083015250608061409f84828501613800565b60808301525060a06140b384828501613800565b60a08301525092915050565b60006140d26140cd84613ff3565b61373a565b90508083825260208201905060c084028301858111156140f5576140f4613781565b5b835b8181101561411e578061410a888261401f565b84526020840193505060c0810190506140f7565b5050509392505050565b600082601f83011261413d5761413c6136d5565b5b813561414d8482602086016140bf565b91505092915050565b6000806040838503121561416d5761416c613692565b5b600061417b858286016136c0565b925050602083013567ffffffffffffffff81111561419c5761419b613697565b5b6141a885828601614128565b9150509250929050565b6141bb816137ab565b82525050565b60006020820190506141d660008301846141b2565b92915050565b600081519050919050565b600082825260208201905092915050565b6000819050602082019050919050565b60e08201600082015161421e6000850182613bd9565b5060208201516142316020850182613bd9565b5060408201516142446040850182613a77565b5060608201516142576060850182613a77565b50608082015161426a6080850182613a77565b5060a082015161427d60a0850182613a77565b5060c082015161429060c0850182613a77565b50505050565b60006142a28383614208565b60e08301905092915050565b6000602082019050919050565b60006142c6826141dc565b6142d081856141e7565b93506142db836141f8565b8060005b8381101561430c5781516142f38882614296565b97506142fe836142ae565b9250506001810190506142df565b5085935050505092915050565b6000602082019050818103600083015261433381846142bb565b905092915050565b6000806040838503121561435257614351613692565b5b6000614360858286016137d4565b925050602061437185828601613800565b9150509250929050565b60008115159050919050565b6143908161437b565b82525050565b60006020820190506143ab6000830184614387565b92915050565b600067ffffffffffffffff8211156143cc576143cb6136da565b5b602082029050602081019050919050565b600060a082840312156143f3576143f2613786565b5b6143fd60a061373a565b9050600061440d848285016137d4565b6000830152506020614421848285016136c0565b602083015250604061443584828501613800565b604083015250606061444984828501613800565b606083015250608061445d84828501613800565b60808301525092915050565b600061447c614477846143b1565b61373a565b90508083825260208201905060a0840283018581111561449f5761449e613781565b5b835b818110156144c857806144b488826143dd565b84526020840193505060a0810190506144a1565b5050509392505050565b600082601f8301126144e7576144e66136d5565b5b81356144f7848260208601614469565b91505092915050565b60006020828403121561451657614515613692565b5b600082013567ffffffffffffffff81111561453457614533613697565b5b614540848285016144d2565b91505092915050565b7f4e487b7100000000000000000000000000000000000000000000000000000000600052602260045260246000fd5b6000600282049050600182168061459057607f821691505b6020821081036145a3576145a2614549565b5b50919050565b7f4e487b7100000000000000000000000000000000000000000000000000000000600052603260045260246000fd5b7f4e487b7100000000000000000000000000000000000000000000000000000000600052601160045260246000fd5b600061461282613654565b91507fffffffffffffffffffffffffffffffffffffffffffffffffffffffffffffffff8203614644576146436145d8565b5b600182019050919050565b600061465a82613654565b915061466583613654565b925082820261467381613654565b9150828204841483151761468a576146896145d8565b5b5092915050565b600061469c82613654565b91506146a783613654565b92508282019050808211156146bf576146be6145d8565b5b92915050565b7f53656c6c204974656d206e6f7420656e6f756768000000000000000000000000600082015250565b60006146fb6014836135ad565b9150614706826146c5565b602082019050919050565b6000602082019050818103600083015261472a816146ee565b9050919050565b7f42616c616e6365206e6f7420656e6f7567680000000000000000000000000000600082015250565b60006147676012836135ad565b915061477282614731565b602082019050919050565b600060208201905081810360008301526147968161475a565b9050919050565b60006147a882613654565b91506147b383613654565b92508282039050818111156147cb576147ca6145d8565b5b92915050565b7f4e6f7420656e6f75676820746f6b656e73000000000000000000000000000000600082015250565b60006148076011836135ad565b9150614812826147d1565b602082019050919050565b60006020820190508181036000830152614836816147fa565b905091905056fea2646970667358221220b0752f7467e928adeecaf86e597f592573d50ac2dbebed78457f63cd228cd94764736f6c63430008110033",
  "linkReferences": {},
  "deployedLinkReferences": {}
}