{
  "_format": "hh-sol-artifact-1",
  "contractName": "MHT",
  "sourceName": "contracts/MHT.sol",
  "abi": [
    {
      "inputs": [],
      "stateMutability": "nonpayable",
      "type": "constructor"
    },
    {
      "anonymous": false,
      "inputs": [
        {
          "indexed": true,
          "internalType": "address",
          "name": "_from",
          "type": "address"
        },
        {
          "indexed": true,
          "internalType": "address",
          "name": "_to",
          "type": "address"
        },
        {
          "indexed": false,
          "internalType": "uint256",
          "name": "_value",
          "type": "uint256"
        }
      ],
      "name": "Transfer",
      "type": "event"
    },
    {
      "inputs": [
        {
          "internalType": "address",
          "name": "account",
          "type": "address"
        }
      ],
      "name": "balanceOf",
      "outputs": [
        {
          "internalType": "uint256",
          "name": "",
          "type": "uint256"
        }
      ],
      "stateMutability": "view",
      "type": "function"
    },
    {
      "inputs": [
        {
          "internalType": "uint8",
          "name": "riceType",
          "type": "uint8"
        },
        {
          "components": [
            {
              "internalType": "address",
              "name": "seller",
              "type": "address"
            },
            {
              "internalType": "uint256",
              "name": "size",
              "type": "uint256"
            },
            {
              "internalType": "uint256",
              "name": "amount",
              "type": "uint256"
            },
            {
              "internalType": "uint256",
              "name": "price",
              "type": "uint256"
            },
            {
              "internalType": "uint256",
              "name": "startDate",
              "type": "uint256"
            },
            {
              "internalType": "uint256",
              "name": "endDate",
              "type": "uint256"
            }
          ],
          "internalType": "struct MHT.SellItem[]",
          "name": "newItemList",
          "type": "tuple[]"
        }
      ],
      "name": "createPriceItemForAHolding",
      "outputs": [],
      "stateMutability": "nonpayable",
      "type": "function"
    },
    {
      "inputs": [
        {
          "internalType": "uint8",
          "name": "riceType",
          "type": "uint8"
        },
        {
          "components": [
            {
              "internalType": "address",
              "name": "buyer",
              "type": "address"
            },
            {
              "internalType": "address",
              "name": "seller",
              "type": "address"
            },
            {
              "internalType": "uint256",
              "name": "size",
              "type": "uint256"
            },
            {
              "internalType": "uint256",
              "name": "amount",
              "type": "uint256"
            },
            {
              "internalType": "uint256",
              "name": "price",
              "type": "uint256"
            },
            {
              "internalType": "uint256",
              "name": "startDate",
              "type": "uint256"
            },
            {
              "internalType": "uint256",
              "name": "endDate",
              "type": "uint256"
            }
          ],
          "internalType": "struct MHT.BuyItem[]",
          "name": "newItemList",
          "type": "tuple[]"
        }
      ],
      "name": "createRequest",
      "outputs": [],
      "stateMutability": "nonpayable",
      "type": "function"
    },
    {
      "inputs": [
        {
          "internalType": "address",
          "name": "buyer",
          "type": "address"
        }
      ],
      "name": "getBuyerBalance",
      "outputs": [
        {
          "components": [
            {
              "internalType": "address",
              "name": "seller",
              "type": "address"
            },
            {
              "internalType": "uint256",
              "name": "amount",
              "type": "uint256"
            },
            {
              "internalType": "uint8",
              "name": "riceType",
              "type": "uint8"
            },
            {
              "internalType": "uint256",
              "name": "price",
              "type": "uint256"
            },
            {
              "internalType": "uint256",
              "name": "startDate",
              "type": "uint256"
            },
            {
              "internalType": "uint256",
              "name": "endDate",
              "type": "uint256"
            }
          ],
          "internalType": "struct MHT.Item[]",
          "name": "",
          "type": "tuple[]"
        }
      ],
      "stateMutability": "view",
      "type": "function"
    },
    {
      "inputs": [
        {
          "internalType": "address",
          "name": "buyer",
          "type": "address"
        },
        {
          "internalType": "uint8",
          "name": "riceType",
          "type": "uint8"
        }
      ],
      "name": "getBuyerRequestListByType",
      "outputs": [
        {
          "components": [
            {
              "internalType": "address",
              "name": "buyer",
              "type": "address"
            },
            {
              "internalType": "address",
              "name": "seller",
              "type": "address"
            },
            {
              "internalType": "uint256",
              "name": "size",
              "type": "uint256"
            },
            {
              "internalType": "uint256",
              "name": "amount",
              "type": "uint256"
            },
            {
              "internalType": "uint256",
              "name": "price",
              "type": "uint256"
            },
            {
              "internalType": "uint256",
              "name": "startDate",
              "type": "uint256"
            },
            {
              "internalType": "uint256",
              "name": "endDate",
              "type": "uint256"
            }
          ],
          "internalType": "struct MHT.BuyItem[]",
          "name": "",
          "type": "tuple[]"
        }
      ],
      "stateMutability": "view",
      "type": "function"
    },
    {
      "inputs": [
        {
          "internalType": "address",
          "name": "seller",
          "type": "address"
        },
        {
          "internalType": "uint8",
          "name": "riceType",
          "type": "uint8"
        }
      ],
      "name": "getPriceListBySellerType",
      "outputs": [
        {
          "components": [
            {
              "internalType": "address",
              "name": "seller",
              "type": "address"
            },
            {
              "internalType": "uint256",
              "name": "size",
              "type": "uint256"
            },
            {
              "internalType": "uint256",
              "name": "amount",
              "type": "uint256"
            },
            {
              "internalType": "uint256",
              "name": "price",
              "type": "uint256"
            },
            {
              "internalType": "uint256",
              "name": "startDate",
              "type": "uint256"
            },
            {
              "internalType": "uint256",
              "name": "endDate",
              "type": "uint256"
            }
          ],
          "internalType": "struct MHT.SellItem[]",
          "name": "",
          "type": "tuple[]"
        }
      ],
      "stateMutability": "view",
      "type": "function"
    },
    {
      "inputs": [
        {
          "internalType": "uint8",
          "name": "riceType",
          "type": "uint8"
        }
      ],
      "name": "getPriceListByType",
      "outputs": [
        {
          "components": [
            {
              "internalType": "address",
              "name": "seller",
              "type": "address"
            },
            {
              "internalType": "uint256",
              "name": "size",
              "type": "uint256"
            },
            {
              "internalType": "uint256",
              "name": "amount",
              "type": "uint256"
            },
            {
              "internalType": "uint256",
              "name": "price",
              "type": "uint256"
            },
            {
              "internalType": "uint256",
              "name": "startDate",
              "type": "uint256"
            },
            {
              "internalType": "uint256",
              "name": "endDate",
              "type": "uint256"
            }
          ],
          "internalType": "struct MHT.SellItem[]",
          "name": "",
          "type": "tuple[]"
        }
      ],
      "stateMutability": "view",
      "type": "function"
    },
    {
      "inputs": [
        {
          "internalType": "address",
          "name": "seller",
          "type": "address"
        },
        {
          "internalType": "uint8",
          "name": "riceType",
          "type": "uint8"
        }
      ],
      "name": "getSellerRequestListBType",
      "outputs": [
        {
          "components": [
            {
              "internalType": "address",
              "name": "buyer",
              "type": "address"
            },
            {
              "internalType": "address",
              "name": "seller",
              "type": "address"
            },
            {
              "internalType": "uint256",
              "name": "size",
              "type": "uint256"
            },
            {
              "internalType": "uint256",
              "name": "amount",
              "type": "uint256"
            },
            {
              "internalType": "uint256",
              "name": "price",
              "type": "uint256"
            },
            {
              "internalType": "uint256",
              "name": "startDate",
              "type": "uint256"
            },
            {
              "internalType": "uint256",
              "name": "endDate",
              "type": "uint256"
            }
          ],
          "internalType": "struct MHT.BuyItem[]",
          "name": "",
          "type": "tuple[]"
        }
      ],
      "stateMutability": "view",
      "type": "function"
    },
    {
      "inputs": [
        {
          "internalType": "address",
          "name": "seller",
          "type": "address"
        }
      ],
      "name": "getSellerSoldList",
      "outputs": [
        {
          "components": [
            {
              "internalType": "address",
              "name": "buyer",
              "type": "address"
            },
            {
              "internalType": "uint256",
              "name": "amount",
              "type": "uint256"
            },
            {
              "internalType": "uint8",
              "name": "riceType",
              "type": "uint8"
            },
            {
              "internalType": "uint256",
              "name": "price",
              "type": "uint256"
            },
            {
              "internalType": "uint256",
              "name": "startDate",
              "type": "uint256"
            },
            {
              "internalType": "uint256",
              "name": "endDate",
              "type": "uint256"
            },
            {
              "internalType": "uint256",
              "name": "soldTime",
              "type": "uint256"
            }
          ],
          "internalType": "struct MHT.SoldItem[]",
          "name": "",
          "type": "tuple[]"
        }
      ],
      "stateMutability": "view",
      "type": "function"
    },
    {
      "inputs": [
        {
          "internalType": "address",
          "name": "seller",
          "type": "address"
        }
      ],
      "name": "getSellerTypeBalance",
      "outputs": [
        {
          "components": [
            {
              "internalType": "uint8",
              "name": "riceType",
              "type": "uint8"
            },
            {
              "internalType": "uint256",
              "name": "balance",
              "type": "uint256"
            },
            {
              "internalType": "uint256",
              "name": "startDate",
              "type": "uint256"
            },
            {
              "internalType": "uint256",
              "name": "endDate",
              "type": "uint256"
            }
          ],
          "internalType": "struct MHT.TypeBalance[]",
          "name": "",
          "type": "tuple[]"
        }
      ],
      "stateMutability": "view",
      "type": "function"
    },
    {
      "inputs": [],
      "name": "getTotalBuyerBalance",
      "outputs": [
        {
          "internalType": "uint256",
          "name": "",
          "type": "uint256"
        }
      ],
      "stateMutability": "view",
      "type": "function"
    },
    {
      "inputs": [],
      "name": "getTotalFarmerBalance",
      "outputs": [
        {
          "internalType": "uint256",
          "name": "",
          "type": "uint256"
        }
      ],
      "stateMutability": "view",
      "type": "function"
    },
    {
      "inputs": [],
      "name": "getTotalSupply",
      "outputs": [
        {
          "internalType": "uint256",
          "name": "",
          "type": "uint256"
        }
      ],
      "stateMutability": "view",
      "type": "function"
    },
    {
      "inputs": [
        {
          "internalType": "address",
          "name": "seller",
          "type": "address"
        }
      ],
      "name": "getUnharvestBalance",
      "outputs": [
        {
          "components": [
            {
              "internalType": "uint8",
              "name": "riceType",
              "type": "uint8"
            },
            {
              "internalType": "uint256",
              "name": "balance",
              "type": "uint256"
            },
            {
              "internalType": "uint256",
              "name": "startDate",
              "type": "uint256"
            },
            {
              "internalType": "uint256",
              "name": "endDate",
              "type": "uint256"
            }
          ],
          "internalType": "struct MHT.TypeBalance[]",
          "name": "",
          "type": "tuple[]"
        }
      ],
      "stateMutability": "view",
      "type": "function"
    },
    {
      "inputs": [
        {
          "internalType": "address",
          "name": "seller",
          "type": "address"
        },
        {
          "components": [
            {
              "internalType": "uint8",
              "name": "riceType",
              "type": "uint8"
            },
            {
              "internalType": "uint256",
              "name": "balance",
              "type": "uint256"
            },
            {
              "internalType": "uint256",
              "name": "startDate",
              "type": "uint256"
            },
            {
              "internalType": "uint256",
              "name": "endDate",
              "type": "uint256"
            }
          ],
          "internalType": "struct MHT.TypeBalance",
          "name": "unharvestItem",
          "type": "tuple"
        }
      ],
      "name": "harvest",
      "outputs": [],
      "stateMutability": "nonpayable",
      "type": "function"
    },
    {
      "inputs": [
        {
          "internalType": "address",
          "name": "userAdd",
          "type": "address"
        }
      ],
      "name": "isAddressSeller",
      "outputs": [
        {
          "internalType": "bool",
          "name": "",
          "type": "bool"
        }
      ],
      "stateMutability": "view",
      "type": "function"
    },
    {
      "inputs": [],
      "name": "name",
      "outputs": [
        {
          "internalType": "string",
          "name": "",
          "type": "string"
        }
      ],
      "stateMutability": "view",
      "type": "function"
    },
    {
      "inputs": [],
      "name": "owner",
      "outputs": [
        {
          "internalType": "address",
          "name": "",
          "type": "address"
        }
      ],
      "stateMutability": "view",
      "type": "function"
    },
    {
      "inputs": [
        {
          "internalType": "uint8",
          "name": "riceType",
          "type": "uint8"
        },
        {
          "components": [
            {
              "internalType": "address",
              "name": "buyer",
              "type": "address"
            },
            {
              "internalType": "address",
              "name": "seller",
              "type": "address"
            },
            {
              "internalType": "uint256",
              "name": "size",
              "type": "uint256"
            },
            {
              "internalType": "uint256",
              "name": "amount",
              "type": "uint256"
            },
            {
              "internalType": "uint256",
              "name": "price",
              "type": "uint256"
            },
            {
              "internalType": "uint256",
              "name": "startDate",
              "type": "uint256"
            },
            {
              "internalType": "uint256",
              "name": "endDate",
              "type": "uint256"
            }
          ],
          "internalType": "struct MHT.BuyItem[]",
          "name": "newItemList",
          "type": "tuple[]"
        }
      ],
      "name": "sendItemToBuyer",
      "outputs": [],
      "stateMutability": "nonpayable",
      "type": "function"
    },
    {
      "inputs": [
        {
          "components": [
            {
              "internalType": "address",
              "name": "seller",
              "type": "address"
            },
            {
              "internalType": "uint8",
              "name": "riceType",
              "type": "uint8"
            },
            {
              "internalType": "uint256",
              "name": "balance",
              "type": "uint256"
            },
            {
              "internalType": "uint256",
              "name": "startDate",
              "type": "uint256"
            },
            {
              "internalType": "uint256",
              "name": "endDate",
              "type": "uint256"
            }
          ],
          "internalType": "struct MHT.AddressTypeBalance[]",
          "name": "assignedTypeBalance",
          "type": "tuple[]"
        }
      ],
      "name": "setUnHarvestBalance",
      "outputs": [],
      "stateMutability": "nonpayable",
      "type": "function"
    },
    {
      "inputs": [],
      "name": "symbol",
      "outputs": [
        {
          "internalType": "string",
          "name": "",
          "type": "string"
        }
      ],
      "stateMutability": "view",
      "type": "function"
    },
    {
      "inputs": [],
      "name": "totalBuyerBalance",
      "outputs": [
        {
          "internalType": "uint256",
          "name": "",
          "type": "uint256"
        }
      ],
      "stateMutability": "view",
      "type": "function"
    },
    {
      "inputs": [],
      "name": "totalFarmerBalance",
      "outputs": [
        {
          "internalType": "uint256",
          "name": "",
          "type": "uint256"
        }
      ],
      "stateMutability": "view",
      "type": "function"
    },
    {
      "inputs": [],
      "name": "totalSupply",
      "outputs": [
        {
          "internalType": "uint256",
          "name": "",
          "type": "uint256"
        }
      ],
      "stateMutability": "view",
      "type": "function"
    },
    {
      "inputs": [
        {
          "internalType": "address",
          "name": "to",
          "type": "address"
        },
        {
          "internalType": "uint256",
          "name": "amount",
          "type": "uint256"
        }
      ],
      "name": "transfer",
      "outputs": [],
      "stateMutability": "nonpayable",
      "type": "function"
    },
    {
      "inputs": [
        {
          "internalType": "address",
          "name": "seller",
          "type": "address"
        },
        {
          "internalType": "address",
          "name": "buyer",
          "type": "address"
        },
        {
          "internalType": "uint256",
          "name": "numTokens",
          "type": "uint256"
        }
      ],
      "name": "transferFrom",
      "outputs": [],
      "stateMutability": "nonpayable",
      "type": "function"
    }
  ],
  "bytecode": "0x60806040526040518060400160405280600e81526020017f4d7920547261646520546f6b656e000000000000000000000000000000000000815250600090816200004a9190620003ae565b506040518060400160405280600381526020017f4d4854000000000000000000000000000000000000000000000000000000000081525060019081620000919190620003ae565b50620f4240600455348015620000a657600080fd5b50600454600660003373ffffffffffffffffffffffffffffffffffffffff1673ffffffffffffffffffffffffffffffffffffffff1681526020019081526020016000208190555033600560006101000a81548173ffffffffffffffffffffffffffffffffffffffff021916908373ffffffffffffffffffffffffffffffffffffffff16021790555062000495565b600081519050919050565b7f4e487b7100000000000000000000000000000000000000000000000000000000600052604160045260246000fd5b7f4e487b7100000000000000000000000000000000000000000000000000000000600052602260045260246000fd5b60006002820490506001821680620001b657607f821691505b602082108103620001cc57620001cb6200016e565b5b50919050565b60008190508160005260206000209050919050565b60006020601f8301049050919050565b600082821b905092915050565b600060088302620002367fffffffffffffffffffffffffffffffffffffffffffffffffffffffffffffffff82620001f7565b620002428683620001f7565b95508019841693508086168417925050509392505050565b6000819050919050565b6000819050919050565b60006200028f6200028962000283846200025a565b62000264565b6200025a565b9050919050565b6000819050919050565b620002ab836200026e565b620002c3620002ba8262000296565b84845462000204565b825550505050565b600090565b620002da620002cb565b620002e7818484620002a0565b505050565b5b818110156200030f5762000303600082620002d0565b600181019050620002ed565b5050565b601f8211156200035e576200032881620001d2565b6200033384620001e7565b8101602085101562000343578190505b6200035b6200035285620001e7565b830182620002ec565b50505b505050565b600082821c905092915050565b6000620003836000198460080262000363565b1980831691505092915050565b60006200039e838362000370565b9150826002028217905092915050565b620003b98262000134565b67ffffffffffffffff811115620003d557620003d46200013f565b5b620003e182546200019d565b620003ee82828562000313565b600060209050601f83116001811462000426576000841562000411578287015190505b6200041d858262000390565b8655506200048d565b601f1984166200043686620001d2565b60005b82811015620004605784890151825560018201915060208501945060208101905062000439565b868310156200048057848901516200047c601f89168262000370565b8355505b6001600288020188555050505b505050505050565b61520d80620004a56000396000f3fe608060405234801561001057600080fd5b506004361061018e5760003560e01c80636afb38bf116100de57806395d89b4111610097578063bdf107b311610071578063bdf107b3146104ab578063c4e41b22146104db578063d4999971146104f9578063de6f1fed146105155761018e565b806395d89b41146104535780639e28900114610471578063a9059cbb1461048f5761018e565b80636afb38bf1461037d57806370a08231146103995780637537a635146103c9578063836ff0d3146103e757806386b52faf146104175780638da5cb5b146104355761018e565b806329b087e81161014b5780633e9970d2116101255780633e9970d2146102d157806342578ce7146103015780634949c90f146103315780635943e241146103615761018e565b806329b087e8146102535780632d7f01c31461028357806336466004146102b35761018e565b806306fdde031461019357806318160ddd146101b15780631a6dcc06146101cf5780631c0e7d91146101eb57806321ff20361461021b57806323b872dd14610237575b600080fd5b61019b610545565b6040516101a89190613ea8565b60405180910390f35b6101b96105d3565b6040516101c69190613ee3565b60405180910390f35b6101e960048036038101906101e491906140cd565b6105d9565b005b6102056004803603810190610200919061410d565b610f14565b604051610212919061425c565b60405180910390f35b610235600480360381019061023091906143ff565b610fed565b005b610251600480360381019061024c919061445b565b611e8c565b005b61026d6004803603810190610268919061410d565b6120b8565b60405161027a919061425c565b60405180910390f35b61029d600480360381019061029891906144ae565b612191565b6040516102aa9190614614565b60405180910390f35b6102bb612291565b6040516102c89190613ee3565b60405180910390f35b6102eb60048036038101906102e6919061410d565b61229b565b6040516102f89190614773565b60405180910390f35b61031b60048036038101906103169190614795565b6123de565b6040516103289190614614565b60405180910390f35b61034b6004803603810190610346919061410d565b6126d8565b60405161035891906148ff565b60405180910390f35b61037b600480360381019061037691906143ff565b612811565b005b61039760048036038101906103929190614a84565b612954565b005b6103b360048036038101906103ae919061410d565b613060565b6040516103c09190613ee3565b60405180910390f35b6103d16130a9565b6040516103de9190613ee3565b60405180910390f35b61040160048036038101906103fc9190614795565b6130af565b60405161040e9190614c1d565b60405180910390f35b61041f6133ff565b60405161042c9190613ee3565b60405180910390f35b61043d613405565b60405161044a9190614c4e565b60405180910390f35b61045b61342b565b6040516104689190613ea8565b60405180910390f35b6104796134b9565b6040516104869190613ee3565b60405180910390f35b6104a960048036038101906104a49190614c69565b6134c3565b005b6104c560048036038101906104c09190614795565b61365a565b6040516104d29190614c1d565b60405180910390f35b6104e36139aa565b6040516104f09190613ee3565b60405180910390f35b610513600480360381019061050e9190614df8565b6139b4565b005b61052f600480360381019061052a919061410d565b613c30565b60405161053c9190614e5c565b60405180910390f35b6000805461055290614ea6565b80601f016020809104026020016040519081016040528092919081815260200182805461057e90614ea6565b80156105cb5780601f106105a0576101008083540402835291602001916105cb565b820191906000526020600020905b8154815290600101906020018083116105ae57829003601f168201915b505050505081565b60045481565b8173ffffffffffffffffffffffffffffffffffffffff163373ffffffffffffffffffffffffffffffffffffffff161461061157600080fd5b6000806000905060005b600760008673ffffffffffffffffffffffffffffffffffffffff1673ffffffffffffffffffffffffffffffffffffffff1681526020019081526020016000208054905081101561085857836000015160ff16600760008773ffffffffffffffffffffffffffffffffffffffff1673ffffffffffffffffffffffffffffffffffffffff16815260200190815260200160002082815481106106be576106bd614ed7565b5b906000526020600020906004020160000160009054906101000a900460ff1660ff1614801561075257508360400151600760008773ffffffffffffffffffffffffffffffffffffffff1673ffffffffffffffffffffffffffffffffffffffff168152602001908152602001600020828154811061073e5761073d614ed7565b5b906000526020600020906004020160020154145b80156107c357508360600151600760008773ffffffffffffffffffffffffffffffffffffffff1673ffffffffffffffffffffffffffffffffffffffff16815260200190815260200160002082815481106107af576107ae614ed7565b5b906000526020600020906004020160030154145b801561083457508360200151600760008773ffffffffffffffffffffffffffffffffffffffff1673ffffffffffffffffffffffffffffffffffffffff16815260200190815260200160002082815481106108205761081f614ed7565b5b906000526020600020906004020160010154145b156108455780925060019150610858565b808061085090614f35565b91505061061b565b5080610899576040517f08c379a000000000000000000000000000000000000000000000000000000000815260040161089090614fc9565b60405180910390fd5b600760008573ffffffffffffffffffffffffffffffffffffffff1673ffffffffffffffffffffffffffffffffffffffff16815260200190815260200160002082815481106108ea576108e9614ed7565b5b9060005260206000209060040201600080820160006101000a81549060ff021916905560018201600090556002820160009055600382016000905550506000600860008673ffffffffffffffffffffffffffffffffffffffff1673ffffffffffffffffffffffffffffffffffffffff168152602001908152602001600020805490501115610cac576000805b600860008773ffffffffffffffffffffffffffffffffffffffff1673ffffffffffffffffffffffffffffffffffffffff16815260200190815260200160002080549050811015610bbc57846000015160ff16600860008873ffffffffffffffffffffffffffffffffffffffff1673ffffffffffffffffffffffffffffffffffffffff1681526020019081526020016000208281548110610a1957610a18614ed7565b5b906000526020600020906004020160000160009054906101000a900460ff1660ff16148015610aad57508460400151600860008873ffffffffffffffffffffffffffffffffffffffff1673ffffffffffffffffffffffffffffffffffffffff1681526020019081526020016000208281548110610a9957610a98614ed7565b5b906000526020600020906004020160020154145b8015610b1e57508460600151600860008873ffffffffffffffffffffffffffffffffffffffff1673ffffffffffffffffffffffffffffffffffffffff1681526020019081526020016000208281548110610b0a57610b09614ed7565b5b906000526020600020906004020160030154145b15610ba9578460200151600860008873ffffffffffffffffffffffffffffffffffffffff1673ffffffffffffffffffffffffffffffffffffffff1681526020019081526020016000208281548110610b7957610b78614ed7565b5b90600052602060002090600402016001016000828254610b999190614fe9565b9250508190555060019150610bbc565b8080610bb490614f35565b915050610976565b5080610ca65760006040518060800160405280866000015160ff168152602001866020015181526020018660400151815260200186606001518152509050600860008773ffffffffffffffffffffffffffffffffffffffff1673ffffffffffffffffffffffffffffffffffffffff16815260200190815260200160002081908060018154018082558091505060019003906000526020600020906004020160009091909190915060008201518160000160006101000a81548160ff021916908360ff1602179055506020820151816001015560408201518160020155606082015181600301555050505b50610d90565b60006040518060800160405280856000015160ff168152602001856020015181526020018560400151815260200185606001518152509050600860008673ffffffffffffffffffffffffffffffffffffffff1673ffffffffffffffffffffffffffffffffffffffff16815260200190815260200160002081908060018154018082558091505060019003906000526020600020906004020160009091909190915060008201518160000160006101000a81548160ff021916908360ff1602179055506020820151816001015560408201518160020155606082015181600301555050505b826020015160066000600560009054906101000a900473ffffffffffffffffffffffffffffffffffffffff1673ffffffffffffffffffffffffffffffffffffffff1673ffffffffffffffffffffffffffffffffffffffff1681526020019081526020016000206000828254610e05919061501d565b925050819055508260200151600660008673ffffffffffffffffffffffffffffffffffffffff1673ffffffffffffffffffffffffffffffffffffffff1681526020019081526020016000206000828254610e5f9190614fe9565b92505081905550826020015160026000828254610e7c9190614fe9565b925050819055508373ffffffffffffffffffffffffffffffffffffffff16600560009054906101000a900473ffffffffffffffffffffffffffffffffffffffff1673ffffffffffffffffffffffffffffffffffffffff167fddf252ad1be2c89b69c2b068fc378daa952ba7f163c4a11628f55a4df523b3ef8560200151604051610f069190613ee3565b60405180910390a350505050565b6060600760008373ffffffffffffffffffffffffffffffffffffffff1673ffffffffffffffffffffffffffffffffffffffff168152602001908152602001600020805480602002602001604051908101604052809291908181526020016000905b82821015610fe257838290600052602060002090600402016040518060800160405290816000820160009054906101000a900460ff1660ff1660ff168152602001600182015481526020016002820154815260200160038201548152505081526020019060010190610f75565b505050509050919050565b610ff5613d38565b60005b60086000846000815181106110105761100f614ed7565b5b60200260200101516020015173ffffffffffffffffffffffffffffffffffffffff1673ffffffffffffffffffffffffffffffffffffffff16815260200190815260200160002080549050811015611331578360ff16600860008560008151811061107d5761107c614ed7565b5b60200260200101516020015173ffffffffffffffffffffffffffffffffffffffff1673ffffffffffffffffffffffffffffffffffffffff16815260200190815260200160002082815481106110d5576110d4614ed7565b5b906000526020600020906004020160000160009054906101000a900460ff1660ff161480156111a357508260008151811061111357611112614ed7565b5b602002602001015160a00151600860008560008151811061113757611136614ed7565b5b60200260200101516020015173ffffffffffffffffffffffffffffffffffffffff1673ffffffffffffffffffffffffffffffffffffffff168152602001908152602001600020828154811061118f5761118e614ed7565b5b906000526020600020906004020160020154145b801561124e5750826000815181106111be576111bd614ed7565b5b602002602001015160c0015160086000856000815181106111e2576111e1614ed7565b5b60200260200101516020015173ffffffffffffffffffffffffffffffffffffffff1673ffffffffffffffffffffffffffffffffffffffff168152602001908152602001600020828154811061123a57611239614ed7565b5b906000526020600020906004020160030154145b1561131e57600860008460008151811061126b5761126a614ed7565b5b60200260200101516020015173ffffffffffffffffffffffffffffffffffffffff1673ffffffffffffffffffffffffffffffffffffffff16815260200190815260200160002081815481106112c3576112c2614ed7565b5b90600052602060002090600402016040518060800160405290816000820160009054906101000a900460ff1660ff1660ff16815260200160018201548152602001600282015481526020016003820154815250509150611331565b808061132990614f35565b915050610ff8565b5061133a613d63565b600080600090505b600b60008760ff1660ff16815260200190815260200160002080549050811015611696578460008151811061137a57611379614ed7565b5b60200260200101516020015173ffffffffffffffffffffffffffffffffffffffff16600b60008860ff1660ff16815260200190815260200160002082815481106113c7576113c6614ed7565b5b906000526020600020906006020160000160009054906101000a900473ffffffffffffffffffffffffffffffffffffffff1673ffffffffffffffffffffffffffffffffffffffff1614801561147657508460008151811061142b5761142a614ed7565b5b602002602001015160a00151600b60008860ff1660ff168152602001908152602001600020828154811061146257611461614ed7565b5b906000526020600020906006020160040154145b80156114dc57508460008151811061149157611490614ed7565b5b602002602001015160c00151600b60008860ff1660ff16815260200190815260200160002082815481106114c8576114c7614ed7565b5b906000526020600020906006020160050154145b80156115425750846000815181106114f7576114f6614ed7565b5b602002602001015160800151600b60008860ff1660ff168152602001908152602001600020828154811061152e5761152d614ed7565b5b906000526020600020906006020160030154145b80156115a857508460008151811061155d5761155c614ed7565b5b602002602001015160400151600b60008860ff1660ff168152602001908152602001600020828154811061159457611593614ed7565b5b906000526020600020906006020160010154145b1561168357600b60008760ff1660ff16815260200190815260200160002081815481106115d8576115d7614ed7565b5b90600052602060002090600602016040518060c00160405290816000820160009054906101000a900473ffffffffffffffffffffffffffffffffffffffff1673ffffffffffffffffffffffffffffffffffffffff1673ffffffffffffffffffffffffffffffffffffffff168152602001600182015481526020016002820154815260200160038201548152602001600482015481526020016005820154815250509250809150611696565b808061168e90614f35565b915050611342565b50600080600090505b8551811015611710578581815181106116bb576116ba614ed7565b5b6020026020010151604001518682815181106116da576116d9614ed7565b5b6020026020010151606001516116f09190615051565b826116fb9190614fe9565b9150808061170890614f35565b91505061169f565b50826020015183604001516117259190615051565b8110611766576040517f08c379a000000000000000000000000000000000000000000000000000000000815260040161175d906150df565b60405180910390fd5b836020015181106117ac576040517f08c379a00000000000000000000000000000000000000000000000000000000081526004016117a39061514b565b60405180910390fd5b60005b8551811015611d30578581815181106117cb576117ca614ed7565b5b602002602001015160600151846040018181516117e8919061501d565b9150818152505085818151811061180257611801614ed7565b5b60200260200101516040015186828151811061182157611820614ed7565b5b6020026020010151606001516118379190615051565b85602001818151611848919061501d565b9150818152505060006040518060c0016040528088848151811061186f5761186e614ed7565b5b60200260200101516020015173ffffffffffffffffffffffffffffffffffffffff1681526020018884815181106118a9576118a8614ed7565b5b60200260200101516060015181526020018960ff1681526020018884815181106118d6576118d5614ed7565b5b60200260200101516080015181526020018884815181106118fa576118f9614ed7565b5b602002602001015160a00151815260200188848151811061191e5761191d614ed7565b5b602002602001015160c001518152509050600a600088848151811061194657611945614ed7565b5b60200260200101516000015173ffffffffffffffffffffffffffffffffffffffff1673ffffffffffffffffffffffffffffffffffffffff16815260200190815260200160002081908060018154018082558091505060019003906000526020600020906006020160009091909190915060008201518160000160006101000a81548173ffffffffffffffffffffffffffffffffffffffff021916908373ffffffffffffffffffffffffffffffffffffffff1602179055506020820151816001015560408201518160020160006101000a81548160ff021916908360ff160217905550606082015181600301556080820151816004015560a08201518160050155505060006040518060e00160405280898581518110611a6857611a67614ed7565b5b60200260200101516000015173ffffffffffffffffffffffffffffffffffffffff168152602001898581518110611aa257611aa1614ed7565b5b60200260200101516060015181526020018a60ff168152602001898581518110611acf57611ace614ed7565b5b6020026020010151608001518152602001898581518110611af357611af2614ed7565b5b602002602001015160a001518152602001898581518110611b1757611b16614ed7565b5b602002602001015160c00151815260200142815250905060096000898581518110611b4557611b44614ed7565b5b60200260200101516020015173ffffffffffffffffffffffffffffffffffffffff1673ffffffffffffffffffffffffffffffffffffffff16815260200190815260200160002081908060018154018082558091505060019003906000526020600020906007020160009091909190915060008201518160000160006101000a81548173ffffffffffffffffffffffffffffffffffffffff021916908373ffffffffffffffffffffffffffffffffffffffff1602179055506020820151816001015560408201518160020160006101000a81548160ff021916908360ff160217905550606082015181600301556080820151816004015560a0820151816005015560c082015181600601555050878381518110611c6457611c63614ed7565b5b60200260200101516000015173ffffffffffffffffffffffffffffffffffffffff163373ffffffffffffffffffffffffffffffffffffffff167fddf252ad1be2c89b69c2b068fc378daa952ba7f163c4a11628f55a4df523b3ef8a8681518110611cd157611cd0614ed7565b5b6020026020010151604001518b8781518110611cf057611cef614ed7565b5b602002602001015160600151611d069190615051565b604051611d139190613ee3565b60405180910390a350508080611d2890614f35565b9150506117af565b506000836040015103611dcd57600b60008760ff1660ff1681526020019081526020016000208281548110611d6857611d67614ed7565b5b9060005260206000209060060201600080820160006101000a81549073ffffffffffffffffffffffffffffffffffffffff0219169055600182016000905560028201600090556003820160009055600482016000905560058201600090555050611e84565b82600b60008860ff1660ff1681526020019081526020016000208381548110611df957611df8614ed7565b5b906000526020600020906006020160008201518160000160006101000a81548173ffffffffffffffffffffffffffffffffffffffff021916908373ffffffffffffffffffffffffffffffffffffffff1602179055506020820151816001015560408201518160020155606082015181600301556080820151816004015560a082015181600501559050505b505050505050565b600660008473ffffffffffffffffffffffffffffffffffffffff1673ffffffffffffffffffffffffffffffffffffffff16815260200190815260200160002054811115611ed857600080fd5b600560009054906101000a900473ffffffffffffffffffffffffffffffffffffffff1673ffffffffffffffffffffffffffffffffffffffff168373ffffffffffffffffffffffffffffffffffffffff1614611f3257600080fd5b80600660008573ffffffffffffffffffffffffffffffffffffffff1673ffffffffffffffffffffffffffffffffffffffff16815260200190815260200160002054611f7d919061501d565b600660008573ffffffffffffffffffffffffffffffffffffffff1673ffffffffffffffffffffffffffffffffffffffff1681526020019081526020016000208190555080600660008473ffffffffffffffffffffffffffffffffffffffff1673ffffffffffffffffffffffffffffffffffffffff1681526020019081526020016000205461200b9190614fe9565b600660008473ffffffffffffffffffffffffffffffffffffffff1673ffffffffffffffffffffffffffffffffffffffff168152602001908152602001600020819055508173ffffffffffffffffffffffffffffffffffffffff168373ffffffffffffffffffffffffffffffffffffffff167fddf252ad1be2c89b69c2b068fc378daa952ba7f163c4a11628f55a4df523b3ef836040516120ab9190613ee3565b60405180910390a3505050565b6060600860008373ffffffffffffffffffffffffffffffffffffffff1673ffffffffffffffffffffffffffffffffffffffff168152602001908152602001600020805480602002602001604051908101604052809291908181526020016000905b8282101561218657838290600052602060002090600402016040518060800160405290816000820160009054906101000a900460ff1660ff1660ff168152602001600182015481526020016002820154815260200160038201548152505081526020019060010190612119565b505050509050919050565b6060600b60008360ff1660ff168152602001908152602001600020805480602002602001604051908101604052809291908181526020016000905b8282101561228657838290600052602060002090600602016040518060c00160405290816000820160009054906101000a900473ffffffffffffffffffffffffffffffffffffffff1673ffffffffffffffffffffffffffffffffffffffff1673ffffffffffffffffffffffffffffffffffffffff16815260200160018201548152602001600282015481526020016003820154815260200160048201548152602001600582015481525050815260200190600101906121cc565b505050509050919050565b6000600254905090565b6060600960008373ffffffffffffffffffffffffffffffffffffffff1673ffffffffffffffffffffffffffffffffffffffff168152602001908152602001600020805480602002602001604051908101604052809291908181526020016000905b828210156123d357838290600052602060002090600702016040518060e00160405290816000820160009054906101000a900473ffffffffffffffffffffffffffffffffffffffff1673ffffffffffffffffffffffffffffffffffffffff1673ffffffffffffffffffffffffffffffffffffffff168152602001600182015481526020016002820160009054906101000a900460ff1660ff1660ff168152602001600382015481526020016004820154815260200160058201548152602001600682015481525050815260200190600101906122fc565b505050509050919050565b6060600080600090505b600b60008560ff1660ff168152602001908152602001600020805490508110156124bd578473ffffffffffffffffffffffffffffffffffffffff16600b60008660ff1660ff168152602001908152602001600020828154811061244e5761244d614ed7565b5b906000526020600020906006020160000160009054906101000a900473ffffffffffffffffffffffffffffffffffffffff1673ffffffffffffffffffffffffffffffffffffffff16036124aa5781806124a690614f35565b9250505b80806124b590614f35565b9150506123e8565b5060008167ffffffffffffffff8111156124da576124d9613f75565b5b60405190808252806020026020018201604052801561251357816020015b612500613d63565b8152602001906001900390816124f85790505b5090506000805b600b60008760ff1660ff168152602001908152602001600020805490508110156126cb578673ffffffffffffffffffffffffffffffffffffffff16600b60008860ff1660ff16815260200190815260200160002082815481106125805761257f614ed7565b5b906000526020600020906006020160000160009054906101000a900473ffffffffffffffffffffffffffffffffffffffff1673ffffffffffffffffffffffffffffffffffffffff16036126b857600b60008760ff1660ff16815260200190815260200160002081815481106125f8576125f7614ed7565b5b90600052602060002090600602016040518060c00160405290816000820160009054906101000a900473ffffffffffffffffffffffffffffffffffffffff1673ffffffffffffffffffffffffffffffffffffffff1673ffffffffffffffffffffffffffffffffffffffff168152602001600182015481526020016002820154815260200160038201548152602001600482015481526020016005820154815250508383815181106126ac576126ab614ed7565b5b60200260200101819052505b80806126c390614f35565b91505061251a565b5081935050505092915050565b6060600a60008373ffffffffffffffffffffffffffffffffffffffff1673ffffffffffffffffffffffffffffffffffffffff168152602001908152602001600020805480602002602001604051908101604052809291908181526020016000905b8282101561280657838290600052602060002090600602016040518060c00160405290816000820160009054906101000a900473ffffffffffffffffffffffffffffffffffffffff1673ffffffffffffffffffffffffffffffffffffffff1673ffffffffffffffffffffffffffffffffffffffff168152602001600182015481526020016002820160009054906101000a900460ff1660ff1660ff168152602001600382015481526020016004820154815260200160058201548152505081526020019060010190612739565b505050509050919050565b60005b815181101561294f57600c60008460ff1660ff16815260200190815260200160002082828151811061284957612848614ed7565b5b6020026020010151908060018154018082558091505060019003906000526020600020906007020160009091909190915060008201518160000160006101000a81548173ffffffffffffffffffffffffffffffffffffffff021916908373ffffffffffffffffffffffffffffffffffffffff16021790555060208201518160010160006101000a81548173ffffffffffffffffffffffffffffffffffffffff021916908373ffffffffffffffffffffffffffffffffffffffff16021790555060408201518160020155606082015181600301556080820151816004015560a0820151816005015560c082015181600601555050808061294790614f35565b915050612814565b505050565b600080600080600090505b600860008660008151811061297757612976614ed7565b5b60200260200101516000015173ffffffffffffffffffffffffffffffffffffffff1673ffffffffffffffffffffffffffffffffffffffff16815260200190815260200160002080549050811015612c56578560ff1660086000876000815181106129e4576129e3614ed7565b5b60200260200101516000015173ffffffffffffffffffffffffffffffffffffffff1673ffffffffffffffffffffffffffffffffffffffff1681526020019081526020016000208281548110612a3c57612a3b614ed7565b5b906000526020600020906004020160000160009054906101000a900460ff1660ff16148015612b0a575084600081518110612a7a57612a79614ed7565b5b6020026020010151608001516008600087600081518110612a9e57612a9d614ed7565b5b60200260200101516000015173ffffffffffffffffffffffffffffffffffffffff1673ffffffffffffffffffffffffffffffffffffffff1681526020019081526020016000208281548110612af657612af5614ed7565b5b906000526020600020906004020160020154145b8015612bb5575084600081518110612b2557612b24614ed7565b5b602002602001015160a001516008600087600081518110612b4957612b48614ed7565b5b60200260200101516000015173ffffffffffffffffffffffffffffffffffffffff1673ffffffffffffffffffffffffffffffffffffffff1681526020019081526020016000208281548110612ba157612ba0614ed7565b5b906000526020600020906004020160030154145b15612c43576008600086600081518110612bd257612bd1614ed7565b5b60200260200101516000015173ffffffffffffffffffffffffffffffffffffffff1673ffffffffffffffffffffffffffffffffffffffff1681526020019081526020016000208181548110612c2a57612c29614ed7565b5b9060005260206000209060040201600101549350612c56565b8080612c4e90614f35565b91505061295f565b5060005b600b60008760ff1660ff16815260200190815260200160002080549050811015612e9e5784600081518110612c9257612c91614ed7565b5b60200260200101516000015173ffffffffffffffffffffffffffffffffffffffff16600b60008860ff1660ff1681526020019081526020016000208281548110612cdf57612cde614ed7565b5b906000526020600020906006020160000160009054906101000a900473ffffffffffffffffffffffffffffffffffffffff1673ffffffffffffffffffffffffffffffffffffffff16148015612d8e575084600081518110612d4357612d42614ed7565b5b602002602001015160800151600b60008860ff1660ff1681526020019081526020016000208281548110612d7a57612d79614ed7565b5b906000526020600020906006020160040154145b8015612df4575084600081518110612da957612da8614ed7565b5b602002602001015160a00151600b60008860ff1660ff1681526020019081526020016000208281548110612de057612ddf614ed7565b5b906000526020600020906006020160050154145b15612e8b57600b60008760ff1660ff1681526020019081526020016000208181548110612e2457612e23614ed7565b5b906000526020600020906006020160010154600b60008860ff1660ff1681526020019081526020016000208281548110612e6157612e60614ed7565b5b906000526020600020906006020160020154612e7d9190615051565b83612e889190614fe9565b92505b8080612e9690614f35565b915050612c5a565b5060005b8451811015612f1357848181518110612ebe57612ebd614ed7565b5b602002602001015160200151858281518110612edd57612edc614ed7565b5b602002602001015160400151612ef39190615051565b82612efe9190614fe9565b91508080612f0b90614f35565b915050612ea2565b50828183612f219190614fe9565b10612f61576040517f08c379a0000000000000000000000000000000000000000000000000000000008152600401612f589061514b565b60405180910390fd5b60005b845181101561305857600b60008760ff1660ff168152602001908152602001600020858281518110612f9957612f98614ed7565b5b6020026020010151908060018154018082558091505060019003906000526020600020906006020160009091909190915060008201518160000160006101000a81548173ffffffffffffffffffffffffffffffffffffffff021916908373ffffffffffffffffffffffffffffffffffffffff1602179055506020820151816001015560408201518160020155606082015181600301556080820151816004015560a082015181600501555050808061305090614f35565b915050612f64565b505050505050565b6000600660008373ffffffffffffffffffffffffffffffffffffffff1673ffffffffffffffffffffffffffffffffffffffff168152602001908152602001600020549050919050565b60035481565b6060600080600090505b600c60008560ff1660ff1681526020019081526020016000208054905081101561318e578473ffffffffffffffffffffffffffffffffffffffff16600c60008660ff1660ff168152602001908152602001600020828154811061311f5761311e614ed7565b5b906000526020600020906007020160010160009054906101000a900473ffffffffffffffffffffffffffffffffffffffff1673ffffffffffffffffffffffffffffffffffffffff160361317b57818061317790614f35565b9250505b808061318690614f35565b9150506130b9565b5060008167ffffffffffffffff8111156131ab576131aa613f75565b5b6040519080825280602002602001820160405280156131e457816020015b6131d1613daf565b8152602001906001900390816131c95790505b5090506000805b600b60008760ff1660ff168152602001908152602001600020805490508110156133f2578673ffffffffffffffffffffffffffffffffffffffff16600c60008860ff1660ff168152602001908152602001600020828154811061325157613250614ed7565b5b906000526020600020906007020160010160009054906101000a900473ffffffffffffffffffffffffffffffffffffffff1673ffffffffffffffffffffffffffffffffffffffff16036133df57600c60008760ff1660ff16815260200190815260200160002081815481106132c9576132c8614ed7565b5b90600052602060002090600702016040518060e00160405290816000820160009054906101000a900473ffffffffffffffffffffffffffffffffffffffff1673ffffffffffffffffffffffffffffffffffffffff1673ffffffffffffffffffffffffffffffffffffffff1681526020016001820160009054906101000a900473ffffffffffffffffffffffffffffffffffffffff1673ffffffffffffffffffffffffffffffffffffffff1673ffffffffffffffffffffffffffffffffffffffff168152602001600282015481526020016003820154815260200160048201548152602001600582015481526020016006820154815250508383815181106133d3576133d2614ed7565b5b60200260200101819052505b80806133ea90614f35565b9150506131eb565b5081935050505092915050565b60025481565b600560009054906101000a900473ffffffffffffffffffffffffffffffffffffffff1681565b6001805461343890614ea6565b80601f016020809104026020016040519081016040528092919081815260200182805461346490614ea6565b80156134b15780601f10613486576101008083540402835291602001916134b1565b820191906000526020600020905b81548152906001019060200180831161349457829003601f168201915b505050505081565b6000600354905090565b80600660003373ffffffffffffffffffffffffffffffffffffffff1673ffffffffffffffffffffffffffffffffffffffff168152602001908152602001600020541015613545576040517f08c379a000000000000000000000000000000000000000000000000000000000815260040161353c906151b7565b60405180910390fd5b80600660003373ffffffffffffffffffffffffffffffffffffffff1673ffffffffffffffffffffffffffffffffffffffff1681526020019081526020016000206000828254613594919061501d565b9250508190555080600660008473ffffffffffffffffffffffffffffffffffffffff1673ffffffffffffffffffffffffffffffffffffffff16815260200190815260200160002060008282546135ea9190614fe9565b925050819055508173ffffffffffffffffffffffffffffffffffffffff163373ffffffffffffffffffffffffffffffffffffffff167fddf252ad1be2c89b69c2b068fc378daa952ba7f163c4a11628f55a4df523b3ef8360405161364e9190613ee3565b60405180910390a35050565b6060600080600090505b600c60008560ff1660ff16815260200190815260200160002080549050811015613739578473ffffffffffffffffffffffffffffffffffffffff16600c60008660ff1660ff16815260200190815260200160002082815481106136ca576136c9614ed7565b5b906000526020600020906007020160000160009054906101000a900473ffffffffffffffffffffffffffffffffffffffff1673ffffffffffffffffffffffffffffffffffffffff160361372657818061372290614f35565b9250505b808061373190614f35565b915050613664565b5060008167ffffffffffffffff81111561375657613755613f75565b5b60405190808252806020026020018201604052801561378f57816020015b61377c613daf565b8152602001906001900390816137745790505b5090506000805b600b60008760ff1660ff1681526020019081526020016000208054905081101561399d578673ffffffffffffffffffffffffffffffffffffffff16600c60008860ff1660ff16815260200190815260200160002082815481106137fc576137fb614ed7565b5b906000526020600020906007020160000160009054906101000a900473ffffffffffffffffffffffffffffffffffffffff1673ffffffffffffffffffffffffffffffffffffffff160361398a57600c60008760ff1660ff168152602001908152602001600020818154811061387457613873614ed7565b5b90600052602060002090600702016040518060e00160405290816000820160009054906101000a900473ffffffffffffffffffffffffffffffffffffffff1673ffffffffffffffffffffffffffffffffffffffff1673ffffffffffffffffffffffffffffffffffffffff1681526020016001820160009054906101000a900473ffffffffffffffffffffffffffffffffffffffff1673ffffffffffffffffffffffffffffffffffffffff1673ffffffffffffffffffffffffffffffffffffffff1681526020016002820154815260200160038201548152602001600482015481526020016005820154815260200160068201548152505083838151811061397e5761397d614ed7565b5b60200260200101819052505b808061399590614f35565b915050613796565b5081935050505092915050565b6000600454905090565b600560009054906101000a900473ffffffffffffffffffffffffffffffffffffffff1673ffffffffffffffffffffffffffffffffffffffff163373ffffffffffffffffffffffffffffffffffffffff1614613a0e57600080fd5b6000613a1982613cdc565b905080600660003373ffffffffffffffffffffffffffffffffffffffff1673ffffffffffffffffffffffffffffffffffffffff168152602001908152602001600020541015613a9d576040517f08c379a0000000000000000000000000000000000000000000000000000000008152600401613a94906151b7565b60405180910390fd5b60005b8251811015613c2b576000838281518110613abe57613abd614ed7565b5b602002602001015160000151905060006040518060800160405280868581518110613aec57613aeb614ed7565b5b60200260200101516020015160ff168152602001868581518110613b1357613b12614ed7565b5b6020026020010151604001518152602001868581518110613b3757613b36614ed7565b5b6020026020010151606001518152602001868581518110613b5b57613b5a614ed7565b5b6020026020010151608001518152509050600760008373ffffffffffffffffffffffffffffffffffffffff1673ffffffffffffffffffffffffffffffffffffffff16815260200190815260200160002081908060018154018082558091505060019003906000526020600020906004020160009091909190915060008201518160000160006101000a81548160ff021916908360ff160217905550602082015181600101556040820151816002015560608201518160030155505050508080613c2390614f35565b915050613aa0565b505050565b600080600860008473ffffffffffffffffffffffffffffffffffffffff1673ffffffffffffffffffffffffffffffffffffffff168152602001908152602001600020805490501180613cc457506000600760008473ffffffffffffffffffffffffffffffffffffffff1673ffffffffffffffffffffffffffffffffffffffff16815260200190815260200160002080549050115b15613cd25760019050613cd7565b600090505b919050565b6000806000905060005b8351811015613d2e57838181518110613d0257613d01614ed7565b5b60200260200101516040015182613d199190614fe9565b91508080613d2690614f35565b915050613ce6565b5080915050919050565b6040518060800160405280600060ff1681526020016000815260200160008152602001600081525090565b6040518060c00160405280600073ffffffffffffffffffffffffffffffffffffffff16815260200160008152602001600081526020016000815260200160008152602001600081525090565b6040518060e00160405280600073ffffffffffffffffffffffffffffffffffffffff168152602001600073ffffffffffffffffffffffffffffffffffffffff16815260200160008152602001600081526020016000815260200160008152602001600081525090565b600081519050919050565b600082825260208201905092915050565b60005b83811015613e52578082015181840152602081019050613e37565b60008484015250505050565b6000601f19601f8301169050919050565b6000613e7a82613e18565b613e848185613e23565b9350613e94818560208601613e34565b613e9d81613e5e565b840191505092915050565b60006020820190508181036000830152613ec28184613e6f565b905092915050565b6000819050919050565b613edd81613eca565b82525050565b6000602082019050613ef86000830184613ed4565b92915050565b6000604051905090565b600080fd5b600080fd5b600073ffffffffffffffffffffffffffffffffffffffff82169050919050565b6000613f3d82613f12565b9050919050565b613f4d81613f32565b8114613f5857600080fd5b50565b600081359050613f6a81613f44565b92915050565b600080fd5b7f4e487b7100000000000000000000000000000000000000000000000000000000600052604160045260246000fd5b613fad82613e5e565b810181811067ffffffffffffffff82111715613fcc57613fcb613f75565b5b80604052505050565b6000613fdf613efe565b9050613feb8282613fa4565b919050565b600060ff82169050919050565b61400681613ff0565b811461401157600080fd5b50565b60008135905061402381613ffd565b92915050565b61403281613eca565b811461403d57600080fd5b50565b60008135905061404f81614029565b92915050565b60006080828403121561406b5761406a613f70565b5b6140756080613fd5565b9050600061408584828501614014565b600083015250602061409984828501614040565b60208301525060406140ad84828501614040565b60408301525060606140c184828501614040565b60608301525092915050565b60008060a083850312156140e4576140e3613f08565b5b60006140f285828601613f5b565b925050602061410385828601614055565b9150509250929050565b60006020828403121561412357614122613f08565b5b600061413184828501613f5b565b91505092915050565b600081519050919050565b600082825260208201905092915050565b6000819050602082019050919050565b61416f81613ff0565b82525050565b61417e81613eca565b82525050565b60808201600082015161419a6000850182614166565b5060208201516141ad6020850182614175565b5060408201516141c06040850182614175565b5060608201516141d36060850182614175565b50505050565b60006141e58383614184565b60808301905092915050565b6000602082019050919050565b60006142098261413a565b6142138185614145565b935061421e83614156565b8060005b8381101561424f57815161423688826141d9565b9750614241836141f1565b925050600181019050614222565b5085935050505092915050565b6000602082019050818103600083015261427681846141fe565b905092915050565b600080fd5b600067ffffffffffffffff82111561429e5761429d613f75565b5b602082029050602081019050919050565b600080fd5b600060e082840312156142ca576142c9613f70565b5b6142d460e0613fd5565b905060006142e484828501613f5b565b60008301525060206142f884828501613f5b565b602083015250604061430c84828501614040565b604083015250606061432084828501614040565b606083015250608061433484828501614040565b60808301525060a061434884828501614040565b60a08301525060c061435c84828501614040565b60c08301525092915050565b600061437b61437684614283565b613fd5565b90508083825260208201905060e0840283018581111561439e5761439d6142af565b5b835b818110156143c757806143b388826142b4565b84526020840193505060e0810190506143a0565b5050509392505050565b600082601f8301126143e6576143e561427e565b5b81356143f6848260208601614368565b91505092915050565b6000806040838503121561441657614415613f08565b5b600061442485828601614014565b925050602083013567ffffffffffffffff81111561444557614444613f0d565b5b614451858286016143d1565b9150509250929050565b60008060006060848603121561447457614473613f08565b5b600061448286828701613f5b565b935050602061449386828701613f5b565b92505060406144a486828701614040565b9150509250925092565b6000602082840312156144c4576144c3613f08565b5b60006144d284828501614014565b91505092915050565b600081519050919050565b600082825260208201905092915050565b6000819050602082019050919050565b61451081613f32565b82525050565b60c08201600082015161452c6000850182614507565b50602082015161453f6020850182614175565b5060408201516145526040850182614175565b5060608201516145656060850182614175565b5060808201516145786080850182614175565b5060a082015161458b60a0850182614175565b50505050565b600061459d8383614516565b60c08301905092915050565b6000602082019050919050565b60006145c1826144db565b6145cb81856144e6565b93506145d6836144f7565b8060005b838110156146075781516145ee8882614591565b97506145f9836145a9565b9250506001810190506145da565b5085935050505092915050565b6000602082019050818103600083015261462e81846145b6565b905092915050565b600081519050919050565b600082825260208201905092915050565b6000819050602082019050919050565b60e0820160008201516146786000850182614507565b50602082015161468b6020850182614175565b50604082015161469e6040850182614166565b5060608201516146b16060850182614175565b5060808201516146c46080850182614175565b5060a08201516146d760a0850182614175565b5060c08201516146ea60c0850182614175565b50505050565b60006146fc8383614662565b60e08301905092915050565b6000602082019050919050565b600061472082614636565b61472a8185614641565b935061473583614652565b8060005b8381101561476657815161474d88826146f0565b975061475883614708565b925050600181019050614739565b5085935050505092915050565b6000602082019050818103600083015261478d8184614715565b905092915050565b600080604083850312156147ac576147ab613f08565b5b60006147ba85828601613f5b565b92505060206147cb85828601614014565b9150509250929050565b600081519050919050565b600082825260208201905092915050565b6000819050602082019050919050565b60c0820160008201516148176000850182614507565b50602082015161482a6020850182614175565b50604082015161483d6040850182614166565b5060608201516148506060850182614175565b5060808201516148636080850182614175565b5060a082015161487660a0850182614175565b50505050565b60006148888383614801565b60c08301905092915050565b6000602082019050919050565b60006148ac826147d5565b6148b681856147e0565b93506148c1836147f1565b8060005b838110156148f25781516148d9888261487c565b97506148e483614894565b9250506001810190506148c5565b5085935050505092915050565b6000602082019050818103600083015261491981846148a1565b905092915050565b600067ffffffffffffffff82111561493c5761493b613f75565b5b602082029050602081019050919050565b600060c0828403121561496357614962613f70565b5b61496d60c0613fd5565b9050600061497d84828501613f5b565b600083015250602061499184828501614040565b60208301525060406149a584828501614040565b60408301525060606149b984828501614040565b60608301525060806149cd84828501614040565b60808301525060a06149e184828501614040565b60a08301525092915050565b6000614a006149fb84614921565b613fd5565b90508083825260208201905060c08402830185811115614a2357614a226142af565b5b835b81811015614a4c5780614a38888261494d565b84526020840193505060c081019050614a25565b5050509392505050565b600082601f830112614a6b57614a6a61427e565b5b8135614a7b8482602086016149ed565b91505092915050565b60008060408385031215614a9b57614a9a613f08565b5b6000614aa985828601614014565b925050602083013567ffffffffffffffff811115614aca57614ac9613f0d565b5b614ad685828601614a56565b9150509250929050565b600081519050919050565b600082825260208201905092915050565b6000819050602082019050919050565b60e082016000820151614b226000850182614507565b506020820151614b356020850182614507565b506040820151614b486040850182614175565b506060820151614b5b6060850182614175565b506080820151614b6e6080850182614175565b5060a0820151614b8160a0850182614175565b5060c0820151614b9460c0850182614175565b50505050565b6000614ba68383614b0c565b60e08301905092915050565b6000602082019050919050565b6000614bca82614ae0565b614bd48185614aeb565b9350614bdf83614afc565b8060005b83811015614c10578151614bf78882614b9a565b9750614c0283614bb2565b925050600181019050614be3565b5085935050505092915050565b60006020820190508181036000830152614c378184614bbf565b905092915050565b614c4881613f32565b82525050565b6000602082019050614c636000830184614c3f565b92915050565b60008060408385031215614c8057614c7f613f08565b5b6000614c8e85828601613f5b565b9250506020614c9f85828601614040565b9150509250929050565b600067ffffffffffffffff821115614cc457614cc3613f75565b5b602082029050602081019050919050565b600060a08284031215614ceb57614cea613f70565b5b614cf560a0613fd5565b90506000614d0584828501613f5b565b6000830152506020614d1984828501614014565b6020830152506040614d2d84828501614040565b6040830152506060614d4184828501614040565b6060830152506080614d5584828501614040565b60808301525092915050565b6000614d74614d6f84614ca9565b613fd5565b90508083825260208201905060a08402830185811115614d9757614d966142af565b5b835b81811015614dc05780614dac8882614cd5565b84526020840193505060a081019050614d99565b5050509392505050565b600082601f830112614ddf57614dde61427e565b5b8135614def848260208601614d61565b91505092915050565b600060208284031215614e0e57614e0d613f08565b5b600082013567ffffffffffffffff811115614e2c57614e2b613f0d565b5b614e3884828501614dca565b91505092915050565b60008115159050919050565b614e5681614e41565b82525050565b6000602082019050614e716000830184614e4d565b92915050565b7f4e487b7100000000000000000000000000000000000000000000000000000000600052602260045260246000fd5b60006002820490506001821680614ebe57607f821691505b602082108103614ed157614ed0614e77565b5b50919050565b7f4e487b7100000000000000000000000000000000000000000000000000000000600052603260045260246000fd5b7f4e487b7100000000000000000000000000000000000000000000000000000000600052601160045260246000fd5b6000614f4082613eca565b91507fffffffffffffffffffffffffffffffffffffffffffffffffffffffffffffffff8203614f7257614f71614f06565b5b600182019050919050565b7f556e48617276657374206974656d206e6f7420666f756e640000000000000000600082015250565b6000614fb3601883613e23565b9150614fbe82614f7d565b602082019050919050565b60006020820190508181036000830152614fe281614fa6565b9050919050565b6000614ff482613eca565b9150614fff83613eca565b925082820190508082111561501757615016614f06565b5b92915050565b600061502882613eca565b915061503383613eca565b925082820390508181111561504b5761504a614f06565b5b92915050565b600061505c82613eca565b915061506783613eca565b925082820261507581613eca565b9150828204841483151761508c5761508b614f06565b5b5092915050565b7f53656c6c204974656d206e6f7420656e6f756768000000000000000000000000600082015250565b60006150c9601483613e23565b91506150d482615093565b602082019050919050565b600060208201905081810360008301526150f8816150bc565b9050919050565b7f42616c616e6365206e6f7420656e6f7567680000000000000000000000000000600082015250565b6000615135601283613e23565b9150615140826150ff565b602082019050919050565b6000602082019050818103600083015261516481615128565b9050919050565b7f4e6f7420656e6f75676820746f6b656e73000000000000000000000000000000600082015250565b60006151a1601183613e23565b91506151ac8261516b565b602082019050919050565b600060208201905081810360008301526151d081615194565b905091905056fea26469706673582212202a1f68a396a817466b3f62e0c525ba80c564d7a02fa7c800f6d757e480475c3d64736f6c63430008110033",
  "linkReferences": {},
  "deployedLinkReferences": {}
}