{
  "_format": "hh-sol-artifact-1",
  "contractName": "MHT",
  "sourceName": "contracts/MHT.sol",
  "abi": [
    {
      "inputs": [],
      "stateMutability": "nonpayable",
      "type": "constructor"
    },
    {
      "anonymous": false,
      "inputs": [
        {
          "indexed": true,
          "internalType": "address",
          "name": "_from",
          "type": "address"
        },
        {
          "indexed": true,
          "internalType": "address",
          "name": "_to",
          "type": "address"
        },
        {
          "indexed": false,
          "internalType": "uint256",
          "name": "_value",
          "type": "uint256"
        }
      ],
      "name": "Transfer",
      "type": "event"
    },
    {
      "inputs": [
        {
          "internalType": "address",
          "name": "account",
          "type": "address"
        }
      ],
      "name": "balanceOf",
      "outputs": [
        {
          "internalType": "uint256",
          "name": "",
          "type": "uint256"
        }
      ],
      "stateMutability": "view",
      "type": "function"
    },
    {
      "inputs": [],
      "name": "getTotalBuyerBalance",
      "outputs": [
        {
          "internalType": "uint256",
          "name": "",
          "type": "uint256"
        }
      ],
      "stateMutability": "view",
      "type": "function"
    },
    {
      "inputs": [],
      "name": "getTotalFarmerBalance",
      "outputs": [
        {
          "internalType": "uint256",
          "name": "",
          "type": "uint256"
        }
      ],
      "stateMutability": "view",
      "type": "function"
    },
    {
      "inputs": [],
      "name": "getTotalSupply",
      "outputs": [
        {
          "internalType": "uint256",
          "name": "",
          "type": "uint256"
        }
      ],
      "stateMutability": "view",
      "type": "function"
    },
    {
      "inputs": [
        {
          "internalType": "address",
          "name": "userAdd",
          "type": "address"
        }
      ],
      "name": "isAddressSeller",
      "outputs": [
        {
          "internalType": "bool",
          "name": "",
          "type": "bool"
        }
      ],
      "stateMutability": "view",
      "type": "function"
    },
    {
      "inputs": [
        {
          "components": [
            {
              "internalType": "address",
              "name": "seller",
              "type": "address"
            },
            {
              "internalType": "uint8",
              "name": "riceType",
              "type": "uint8"
            },
            {
              "internalType": "uint256",
              "name": "balance",
              "type": "uint256"
            },
            {
              "internalType": "uint256",
              "name": "startDate",
              "type": "uint256"
            },
            {
              "internalType": "uint256",
              "name": "endDate",
              "type": "uint256"
            }
          ],
          "internalType": "struct MHT.addressTypeBalance[]",
          "name": "assignedTypeBalance",
          "type": "tuple[]"
        }
      ],
      "name": "issueToSeller",
      "outputs": [],
      "stateMutability": "nonpayable",
      "type": "function"
    },
    {
      "inputs": [],
      "name": "name",
      "outputs": [
        {
          "internalType": "string",
          "name": "",
          "type": "string"
        }
      ],
      "stateMutability": "view",
      "type": "function"
    },
    {
      "inputs": [],
      "name": "owner",
      "outputs": [
        {
          "internalType": "address",
          "name": "",
          "type": "address"
        }
      ],
      "stateMutability": "view",
      "type": "function"
    },
    {
      "inputs": [],
      "name": "symbol",
      "outputs": [
        {
          "internalType": "string",
          "name": "",
          "type": "string"
        }
      ],
      "stateMutability": "view",
      "type": "function"
    },
    {
      "inputs": [],
      "name": "totalBuyerBalance",
      "outputs": [
        {
          "internalType": "uint256",
          "name": "",
          "type": "uint256"
        }
      ],
      "stateMutability": "view",
      "type": "function"
    },
    {
      "inputs": [],
      "name": "totalFarmerBalance",
      "outputs": [
        {
          "internalType": "uint256",
          "name": "",
          "type": "uint256"
        }
      ],
      "stateMutability": "view",
      "type": "function"
    },
    {
      "inputs": [],
      "name": "totalSupply",
      "outputs": [
        {
          "internalType": "uint256",
          "name": "",
          "type": "uint256"
        }
      ],
      "stateMutability": "view",
      "type": "function"
    },
    {
      "inputs": [
        {
          "internalType": "address",
          "name": "to",
          "type": "address"
        },
        {
          "internalType": "uint256",
          "name": "amount",
          "type": "uint256"
        }
      ],
      "name": "transfer",
      "outputs": [],
      "stateMutability": "nonpayable",
      "type": "function"
    },
    {
      "inputs": [
        {
          "internalType": "address",
          "name": "seller",
          "type": "address"
        },
        {
          "internalType": "address",
          "name": "buyer",
          "type": "address"
        },
        {
          "internalType": "uint256",
          "name": "numTokens",
          "type": "uint256"
        }
      ],
      "name": "transferFrom",
      "outputs": [],
      "stateMutability": "nonpayable",
      "type": "function"
    }
  ],
  "bytecode": "0x60806040526040518060400160405280600e81526020017f4d7920547261646520546f6b656e000000000000000000000000000000000000815250600090816200004a9190620003ae565b506040518060400160405280600381526020017f4d4854000000000000000000000000000000000000000000000000000000000081525060019081620000919190620003ae565b50620f4240600455348015620000a657600080fd5b50600454600660003373ffffffffffffffffffffffffffffffffffffffff1673ffffffffffffffffffffffffffffffffffffffff1681526020019081526020016000208190555033600560006101000a81548173ffffffffffffffffffffffffffffffffffffffff021916908373ffffffffffffffffffffffffffffffffffffffff16021790555062000495565b600081519050919050565b7f4e487b7100000000000000000000000000000000000000000000000000000000600052604160045260246000fd5b7f4e487b7100000000000000000000000000000000000000000000000000000000600052602260045260246000fd5b60006002820490506001821680620001b657607f821691505b602082108103620001cc57620001cb6200016e565b5b50919050565b60008190508160005260206000209050919050565b60006020601f8301049050919050565b600082821b905092915050565b600060088302620002367fffffffffffffffffffffffffffffffffffffffffffffffffffffffffffffffff82620001f7565b620002428683620001f7565b95508019841693508086168417925050509392505050565b6000819050919050565b6000819050919050565b60006200028f6200028962000283846200025a565b62000264565b6200025a565b9050919050565b6000819050919050565b620002ab836200026e565b620002c3620002ba8262000296565b84845462000204565b825550505050565b600090565b620002da620002cb565b620002e7818484620002a0565b505050565b5b818110156200030f5762000303600082620002d0565b600181019050620002ed565b5050565b601f8211156200035e576200032881620001d2565b6200033384620001e7565b8101602085101562000343578190505b6200035b6200035285620001e7565b830182620002ec565b50505b505050565b600082821c905092915050565b6000620003836000198460080262000363565b1980831691505092915050565b60006200039e838362000370565b9150826002028217905092915050565b620003b98262000134565b67ffffffffffffffff811115620003d557620003d46200013f565b5b620003e182546200019d565b620003ee82828562000313565b600060209050601f83116001811462000426576000841562000411578287015190505b6200041d858262000390565b8655506200048d565b601f1984166200043686620001d2565b60005b82811015620004605784890151825560018201915060208501945060208101905062000439565b868310156200048057848901516200047c601f89168262000370565b8355505b6001600288020188555050505b505050505050565b61186d80620004a56000396000f3fe608060405234801561001057600080fd5b50600436106100ea5760003560e01c80638da5cb5b1161008c578063a9059cbb11610066578063a9059cbb1461022b578063c4e41b2214610247578063de6f1fed14610265578063ecb73e5014610295576100ea565b80638da5cb5b146101d157806395d89b41146101ef5780639e2890011461020d576100ea565b806336466004116100c8578063364660041461014757806370a08231146101655780637537a6351461019557806386b52faf146101b3576100ea565b806306fdde03146100ef57806318160ddd1461010d57806323b872dd1461012b575b600080fd5b6100f76102b1565b60405161010491906111ee565b60405180910390f35b61011561033f565b6040516101229190611229565b60405180910390f35b610145600480360381019061014091906112e2565b610345565b005b61014f610571565b60405161015c9190611229565b60405180910390f35b61017f600480360381019061017a9190611335565b61057b565b60405161018c9190611229565b60405180910390f35b61019d6105c4565b6040516101aa9190611229565b60405180910390f35b6101bb6105ca565b6040516101c89190611229565b60405180910390f35b6101d96105d0565b6040516101e69190611371565b60405180910390f35b6101f76105f6565b60405161020491906111ee565b60405180910390f35b610215610684565b6040516102229190611229565b60405180910390f35b6102456004803603810190610240919061138c565b61068e565b005b61024f610825565b60405161025c9190611229565b60405180910390f35b61027f600480360381019061027a9190611335565b61082f565b60405161028c91906113e7565b60405180910390f35b6102af60048036038101906102aa9190611614565b61088e565b005b600080546102be9061168c565b80601f01602080910402602001604051908101604052809291908181526020018280546102ea9061168c565b80156103375780601f1061030c57610100808354040283529160200191610337565b820191906000526020600020905b81548152906001019060200180831161031a57829003601f168201915b505050505081565b60045481565b600660008473ffffffffffffffffffffffffffffffffffffffff1673ffffffffffffffffffffffffffffffffffffffff1681526020019081526020016000205481111561039157600080fd5b600560009054906101000a900473ffffffffffffffffffffffffffffffffffffffff1673ffffffffffffffffffffffffffffffffffffffff168373ffffffffffffffffffffffffffffffffffffffff16146103eb57600080fd5b80600660008573ffffffffffffffffffffffffffffffffffffffff1673ffffffffffffffffffffffffffffffffffffffff1681526020019081526020016000205461043691906116ec565b600660008573ffffffffffffffffffffffffffffffffffffffff1673ffffffffffffffffffffffffffffffffffffffff1681526020019081526020016000208190555080600660008473ffffffffffffffffffffffffffffffffffffffff1673ffffffffffffffffffffffffffffffffffffffff168152602001908152602001600020546104c49190611720565b600660008473ffffffffffffffffffffffffffffffffffffffff1673ffffffffffffffffffffffffffffffffffffffff168152602001908152602001600020819055508173ffffffffffffffffffffffffffffffffffffffff168373ffffffffffffffffffffffffffffffffffffffff167fddf252ad1be2c89b69c2b068fc378daa952ba7f163c4a11628f55a4df523b3ef836040516105649190611229565b60405180910390a3505050565b6000600254905090565b6000600660008373ffffffffffffffffffffffffffffffffffffffff1673ffffffffffffffffffffffffffffffffffffffff168152602001908152602001600020549050919050565b60035481565b60025481565b600560009054906101000a900473ffffffffffffffffffffffffffffffffffffffff1681565b600180546106039061168c565b80601f016020809104026020016040519081016040528092919081815260200182805461062f9061168c565b801561067c5780601f106106515761010080835404028352916020019161067c565b820191906000526020600020905b81548152906001019060200180831161065f57829003601f168201915b505050505081565b6000600354905090565b80600660003373ffffffffffffffffffffffffffffffffffffffff1673ffffffffffffffffffffffffffffffffffffffff168152602001908152602001600020541015610710576040517f08c379a0000000000000000000000000000000000000000000000000000000008152600401610707906117a0565b60405180910390fd5b80600660003373ffffffffffffffffffffffffffffffffffffffff1673ffffffffffffffffffffffffffffffffffffffff168152602001908152602001600020600082825461075f91906116ec565b9250508190555080600660008473ffffffffffffffffffffffffffffffffffffffff1673ffffffffffffffffffffffffffffffffffffffff16815260200190815260200160002060008282546107b59190611720565b925050819055508173ffffffffffffffffffffffffffffffffffffffff163373ffffffffffffffffffffffffffffffffffffffff167fddf252ad1be2c89b69c2b068fc378daa952ba7f163c4a11628f55a4df523b3ef836040516108199190611229565b60405180910390a35050565b6000600454905090565b600080600760008473ffffffffffffffffffffffffffffffffffffffff1673ffffffffffffffffffffffffffffffffffffffff1681526020019081526020016000208054905011156108845760019050610889565b600090505b919050565b600560009054906101000a900473ffffffffffffffffffffffffffffffffffffffff1673ffffffffffffffffffffffffffffffffffffffff163373ffffffffffffffffffffffffffffffffffffffff16146108e857600080fd5b60006108f382611102565b905080600660003373ffffffffffffffffffffffffffffffffffffffff1673ffffffffffffffffffffffffffffffffffffffff168152602001908152602001600020541015610977576040517f08c379a000000000000000000000000000000000000000000000000000000000815260040161096e906117a0565b60405180910390fd5b60005b82518110156110fd576000838281518110610998576109976117c0565b5b60200260200101516000015190506000600760008373ffffffffffffffffffffffffffffffffffffffff1673ffffffffffffffffffffffffffffffffffffffff168152602001908152602001600020805490501115610dfb576000805b600760008473ffffffffffffffffffffffffffffffffffffffff1673ffffffffffffffffffffffffffffffffffffffff16815260200190815260200160002080549050811015610ca357858481518110610a5257610a516117c0565b5b60200260200101516020015160ff16600760008573ffffffffffffffffffffffffffffffffffffffff1673ffffffffffffffffffffffffffffffffffffffff1681526020019081526020016000208281548110610ab257610ab16117c0565b5b906000526020600020906004020160000160009054906101000a900460ff1660ff16148015610b605750858481518110610aef57610aee6117c0565b5b602002602001015160600151600760008573ffffffffffffffffffffffffffffffffffffffff1673ffffffffffffffffffffffffffffffffffffffff1681526020019081526020016000208281548110610b4c57610b4b6117c0565b5b906000526020600020906004020160020154145b8015610beb5750858481518110610b7a57610b796117c0565b5b602002602001015160800151600760008573ffffffffffffffffffffffffffffffffffffffff1673ffffffffffffffffffffffffffffffffffffffff1681526020019081526020016000208281548110610bd757610bd66117c0565b5b906000526020600020906004020160030154145b15610c9057858481518110610c0357610c026117c0565b5b602002602001015160400151600760008573ffffffffffffffffffffffffffffffffffffffff1673ffffffffffffffffffffffffffffffffffffffff1681526020019081526020016000208281548110610c6057610c5f6117c0565b5b90600052602060002090600402016001016000828254610c809190611720565b9250508190555060019150610ca3565b8080610c9b906117ef565b9150506109f5565b5080610df55760006040518060800160405280878681518110610cc957610cc86117c0565b5b60200260200101516020015160ff168152602001878681518110610cf057610cef6117c0565b5b6020026020010151604001518152602001878681518110610d1457610d136117c0565b5b6020026020010151606001518152602001878681518110610d3857610d376117c0565b5b6020026020010151608001518152509050600760008473ffffffffffffffffffffffffffffffffffffffff1673ffffffffffffffffffffffffffffffffffffffff16815260200190815260200160002081908060018154018082558091505060019003906000526020600020906004020160009091909190915060008201518160000160006101000a81548160ff021916908360ff1602179055506020820151816001015560408201518160020155606082015181600301555050505b50610f47565b60006040518060800160405280868581518110610e1b57610e1a6117c0565b5b60200260200101516020015160ff168152602001868581518110610e4257610e416117c0565b5b6020026020010151604001518152602001868581518110610e6657610e656117c0565b5b6020026020010151606001518152602001868581518110610e8a57610e896117c0565b5b6020026020010151608001518152509050600760008373ffffffffffffffffffffffffffffffffffffffff1673ffffffffffffffffffffffffffffffffffffffff16815260200190815260200160002081908060018154018082558091505060019003906000526020600020906004020160009091909190915060008201518160000160006101000a81548160ff021916908360ff1602179055506020820151816001015560408201518160020155606082015181600301555050505b838281518110610f5a57610f596117c0565b5b602002602001015160400151600660003373ffffffffffffffffffffffffffffffffffffffff1673ffffffffffffffffffffffffffffffffffffffff1681526020019081526020016000206000828254610fb491906116ec565b92505081905550838281518110610fce57610fcd6117c0565b5b602002602001015160400151600660008373ffffffffffffffffffffffffffffffffffffffff1673ffffffffffffffffffffffffffffffffffffffff16815260200190815260200160002060008282546110289190611720565b92505081905550838281518110611042576110416117c0565b5b6020026020010151604001516002600082825461105f9190611720565b925050819055508073ffffffffffffffffffffffffffffffffffffffff163373ffffffffffffffffffffffffffffffffffffffff167fddf252ad1be2c89b69c2b068fc378daa952ba7f163c4a11628f55a4df523b3ef8685815181106110c8576110c76117c0565b5b6020026020010151604001516040516110e19190611229565b60405180910390a35080806110f5906117ef565b91505061097a565b505050565b6000806000905060005b835181101561115457838181518110611128576111276117c0565b5b6020026020010151604001518261113f9190611720565b9150808061114c906117ef565b91505061110c565b5080915050919050565b600081519050919050565b600082825260208201905092915050565b60005b8381101561119857808201518184015260208101905061117d565b60008484015250505050565b6000601f19601f8301169050919050565b60006111c08261115e565b6111ca8185611169565b93506111da81856020860161117a565b6111e3816111a4565b840191505092915050565b6000602082019050818103600083015261120881846111b5565b905092915050565b6000819050919050565b61122381611210565b82525050565b600060208201905061123e600083018461121a565b92915050565b6000604051905090565b600080fd5b600080fd5b600073ffffffffffffffffffffffffffffffffffffffff82169050919050565b600061128382611258565b9050919050565b61129381611278565b811461129e57600080fd5b50565b6000813590506112b08161128a565b92915050565b6112bf81611210565b81146112ca57600080fd5b50565b6000813590506112dc816112b6565b92915050565b6000806000606084860312156112fb576112fa61124e565b5b6000611309868287016112a1565b935050602061131a868287016112a1565b925050604061132b868287016112cd565b9150509250925092565b60006020828403121561134b5761134a61124e565b5b6000611359848285016112a1565b91505092915050565b61136b81611278565b82525050565b60006020820190506113866000830184611362565b92915050565b600080604083850312156113a3576113a261124e565b5b60006113b1858286016112a1565b92505060206113c2858286016112cd565b9150509250929050565b60008115159050919050565b6113e1816113cc565b82525050565b60006020820190506113fc60008301846113d8565b92915050565b600080fd5b7f4e487b7100000000000000000000000000000000000000000000000000000000600052604160045260246000fd5b61143f826111a4565b810181811067ffffffffffffffff8211171561145e5761145d611407565b5b80604052505050565b6000611471611244565b905061147d8282611436565b919050565b600067ffffffffffffffff82111561149d5761149c611407565b5b602082029050602081019050919050565b600080fd5b600080fd5b600060ff82169050919050565b6114ce816114b8565b81146114d957600080fd5b50565b6000813590506114eb816114c5565b92915050565b600060a08284031215611507576115066114b3565b5b61151160a0611467565b90506000611521848285016112a1565b6000830152506020611535848285016114dc565b6020830152506040611549848285016112cd565b604083015250606061155d848285016112cd565b6060830152506080611571848285016112cd565b60808301525092915050565b600061159061158b84611482565b611467565b90508083825260208201905060a084028301858111156115b3576115b26114ae565b5b835b818110156115dc57806115c888826114f1565b84526020840193505060a0810190506115b5565b5050509392505050565b600082601f8301126115fb576115fa611402565b5b813561160b84826020860161157d565b91505092915050565b60006020828403121561162a5761162961124e565b5b600082013567ffffffffffffffff81111561164857611647611253565b5b611654848285016115e6565b91505092915050565b7f4e487b7100000000000000000000000000000000000000000000000000000000600052602260045260246000fd5b600060028204905060018216806116a457607f821691505b6020821081036116b7576116b661165d565b5b50919050565b7f4e487b7100000000000000000000000000000000000000000000000000000000600052601160045260246000fd5b60006116f782611210565b915061170283611210565b925082820390508181111561171a576117196116bd565b5b92915050565b600061172b82611210565b915061173683611210565b925082820190508082111561174e5761174d6116bd565b5b92915050565b7f4e6f7420656e6f75676820746f6b656e73000000000000000000000000000000600082015250565b600061178a601183611169565b915061179582611754565b602082019050919050565b600060208201905081810360008301526117b98161177d565b9050919050565b7f4e487b7100000000000000000000000000000000000000000000000000000000600052603260045260246000fd5b60006117fa82611210565b91507fffffffffffffffffffffffffffffffffffffffffffffffffffffffffffffffff820361182c5761182b6116bd565b5b60018201905091905056fea26469706673582212209f9f1cfb6f624f3c25ab2de95ac7c6daea365c189905e44f9f9ff9bbdd00e78c64736f6c63430008110033",
  "linkReferences": {},
  "deployedLinkReferences": {}
}