{
  "_format": "hh-sol-artifact-1",
  "contractName": "MHT",
  "sourceName": "contracts/MHT.sol",
  "abi": [
    {
      "inputs": [],
      "stateMutability": "nonpayable",
      "type": "constructor"
    },
    {
      "anonymous": false,
      "inputs": [
        {
          "indexed": true,
          "internalType": "address",
          "name": "_from",
          "type": "address"
        },
        {
          "indexed": true,
          "internalType": "address",
          "name": "_to",
          "type": "address"
        },
        {
          "indexed": false,
          "internalType": "uint256",
          "name": "_value",
          "type": "uint256"
        }
      ],
      "name": "Transfer",
      "type": "event"
    },
    {
      "inputs": [
        {
          "internalType": "address",
          "name": "account",
          "type": "address"
        }
      ],
      "name": "balanceOf",
      "outputs": [
        {
          "internalType": "uint256",
          "name": "",
          "type": "uint256"
        }
      ],
      "stateMutability": "view",
      "type": "function"
    },
    {
      "inputs": [
        {
          "internalType": "uint8",
          "name": "riceType",
          "type": "uint8"
        },
        {
          "components": [
            {
              "internalType": "address",
              "name": "seller",
              "type": "address"
            },
            {
              "internalType": "uint256",
              "name": "size",
              "type": "uint256"
            },
            {
              "internalType": "uint256",
              "name": "amount",
              "type": "uint256"
            },
            {
              "internalType": "uint256",
              "name": "price",
              "type": "uint256"
            },
            {
              "internalType": "uint256",
              "name": "startDate",
              "type": "uint256"
            },
            {
              "internalType": "uint256",
              "name": "endDate",
              "type": "uint256"
            }
          ],
          "internalType": "struct MHT.SellItem[]",
          "name": "newItemList",
          "type": "tuple[]"
        }
      ],
      "name": "createPriceItemForAHolding",
      "outputs": [],
      "stateMutability": "nonpayable",
      "type": "function"
    },
    {
      "inputs": [
        {
          "internalType": "uint8",
          "name": "riceType",
          "type": "uint8"
        },
        {
          "components": [
            {
              "internalType": "address",
              "name": "buyer",
              "type": "address"
            },
            {
              "internalType": "address",
              "name": "seller",
              "type": "address"
            },
            {
              "internalType": "uint256",
              "name": "size",
              "type": "uint256"
            },
            {
              "internalType": "uint256",
              "name": "amount",
              "type": "uint256"
            },
            {
              "internalType": "uint256",
              "name": "price",
              "type": "uint256"
            },
            {
              "internalType": "uint256",
              "name": "startDate",
              "type": "uint256"
            },
            {
              "internalType": "uint256",
              "name": "endDate",
              "type": "uint256"
            }
          ],
          "internalType": "struct MHT.BuyItem[]",
          "name": "newItemList",
          "type": "tuple[]"
        }
      ],
      "name": "createRequest",
      "outputs": [],
      "stateMutability": "nonpayable",
      "type": "function"
    },
    {
      "inputs": [
        {
          "internalType": "address",
          "name": "buyer",
          "type": "address"
        }
      ],
      "name": "getBuyerBalance",
      "outputs": [
        {
          "components": [
            {
              "internalType": "address",
              "name": "seller",
              "type": "address"
            },
            {
              "internalType": "uint256",
              "name": "amount",
              "type": "uint256"
            },
            {
              "internalType": "uint8",
              "name": "riceType",
              "type": "uint8"
            },
            {
              "internalType": "uint256",
              "name": "price",
              "type": "uint256"
            },
            {
              "internalType": "uint256",
              "name": "startDate",
              "type": "uint256"
            },
            {
              "internalType": "uint256",
              "name": "endDate",
              "type": "uint256"
            }
          ],
          "internalType": "struct MHT.Item[]",
          "name": "",
          "type": "tuple[]"
        }
      ],
      "stateMutability": "view",
      "type": "function"
    },
    {
      "inputs": [
        {
          "internalType": "address",
          "name": "buyer",
          "type": "address"
        },
        {
          "internalType": "uint8",
          "name": "riceType",
          "type": "uint8"
        }
      ],
      "name": "getBuyerRequestListByType",
      "outputs": [
        {
          "components": [
            {
              "internalType": "address",
              "name": "buyer",
              "type": "address"
            },
            {
              "internalType": "address",
              "name": "seller",
              "type": "address"
            },
            {
              "internalType": "uint256",
              "name": "size",
              "type": "uint256"
            },
            {
              "internalType": "uint256",
              "name": "amount",
              "type": "uint256"
            },
            {
              "internalType": "uint256",
              "name": "price",
              "type": "uint256"
            },
            {
              "internalType": "uint256",
              "name": "startDate",
              "type": "uint256"
            },
            {
              "internalType": "uint256",
              "name": "endDate",
              "type": "uint256"
            }
          ],
          "internalType": "struct MHT.BuyItem[]",
          "name": "",
          "type": "tuple[]"
        }
      ],
      "stateMutability": "view",
      "type": "function"
    },
    {
      "inputs": [
        {
          "internalType": "address",
          "name": "seller",
          "type": "address"
        },
        {
          "internalType": "uint8",
          "name": "riceType",
          "type": "uint8"
        }
      ],
      "name": "getPriceListBySellerType",
      "outputs": [
        {
          "components": [
            {
              "internalType": "address",
              "name": "seller",
              "type": "address"
            },
            {
              "internalType": "uint256",
              "name": "size",
              "type": "uint256"
            },
            {
              "internalType": "uint256",
              "name": "amount",
              "type": "uint256"
            },
            {
              "internalType": "uint256",
              "name": "price",
              "type": "uint256"
            },
            {
              "internalType": "uint256",
              "name": "startDate",
              "type": "uint256"
            },
            {
              "internalType": "uint256",
              "name": "endDate",
              "type": "uint256"
            }
          ],
          "internalType": "struct MHT.SellItem[]",
          "name": "",
          "type": "tuple[]"
        }
      ],
      "stateMutability": "view",
      "type": "function"
    },
    {
      "inputs": [
        {
          "internalType": "uint8",
          "name": "riceType",
          "type": "uint8"
        }
      ],
      "name": "getPriceListByType",
      "outputs": [
        {
          "components": [
            {
              "internalType": "address",
              "name": "seller",
              "type": "address"
            },
            {
              "internalType": "uint256",
              "name": "size",
              "type": "uint256"
            },
            {
              "internalType": "uint256",
              "name": "amount",
              "type": "uint256"
            },
            {
              "internalType": "uint256",
              "name": "price",
              "type": "uint256"
            },
            {
              "internalType": "uint256",
              "name": "startDate",
              "type": "uint256"
            },
            {
              "internalType": "uint256",
              "name": "endDate",
              "type": "uint256"
            }
          ],
          "internalType": "struct MHT.SellItem[]",
          "name": "",
          "type": "tuple[]"
        }
      ],
      "stateMutability": "view",
      "type": "function"
    },
    {
      "inputs": [
        {
          "internalType": "address",
          "name": "seller",
          "type": "address"
        },
        {
          "internalType": "uint8",
          "name": "riceType",
          "type": "uint8"
        }
      ],
      "name": "getSellerRequestListByType",
      "outputs": [
        {
          "components": [
            {
              "internalType": "address",
              "name": "buyer",
              "type": "address"
            },
            {
              "internalType": "address",
              "name": "seller",
              "type": "address"
            },
            {
              "internalType": "uint256",
              "name": "size",
              "type": "uint256"
            },
            {
              "internalType": "uint256",
              "name": "amount",
              "type": "uint256"
            },
            {
              "internalType": "uint256",
              "name": "price",
              "type": "uint256"
            },
            {
              "internalType": "uint256",
              "name": "startDate",
              "type": "uint256"
            },
            {
              "internalType": "uint256",
              "name": "endDate",
              "type": "uint256"
            }
          ],
          "internalType": "struct MHT.BuyItem[]",
          "name": "",
          "type": "tuple[]"
        }
      ],
      "stateMutability": "view",
      "type": "function"
    },
    {
      "inputs": [
        {
          "internalType": "address",
          "name": "seller",
          "type": "address"
        }
      ],
      "name": "getSellerSoldList",
      "outputs": [
        {
          "components": [
            {
              "internalType": "address",
              "name": "buyer",
              "type": "address"
            },
            {
              "internalType": "uint256",
              "name": "amount",
              "type": "uint256"
            },
            {
              "internalType": "uint8",
              "name": "riceType",
              "type": "uint8"
            },
            {
              "internalType": "uint256",
              "name": "price",
              "type": "uint256"
            },
            {
              "internalType": "uint256",
              "name": "startDate",
              "type": "uint256"
            },
            {
              "internalType": "uint256",
              "name": "endDate",
              "type": "uint256"
            },
            {
              "internalType": "uint256",
              "name": "soldTime",
              "type": "uint256"
            }
          ],
          "internalType": "struct MHT.SoldItem[]",
          "name": "",
          "type": "tuple[]"
        }
      ],
      "stateMutability": "view",
      "type": "function"
    },
    {
      "inputs": [
        {
          "internalType": "address",
          "name": "seller",
          "type": "address"
        }
      ],
      "name": "getSellerTypeBalance",
      "outputs": [
        {
          "components": [
            {
              "internalType": "uint8",
              "name": "riceType",
              "type": "uint8"
            },
            {
              "internalType": "uint256",
              "name": "balance",
              "type": "uint256"
            },
            {
              "internalType": "uint256",
              "name": "startDate",
              "type": "uint256"
            },
            {
              "internalType": "uint256",
              "name": "endDate",
              "type": "uint256"
            }
          ],
          "internalType": "struct MHT.TypeBalance[]",
          "name": "",
          "type": "tuple[]"
        }
      ],
      "stateMutability": "view",
      "type": "function"
    },
    {
      "inputs": [],
      "name": "getTotalBuyerBalance",
      "outputs": [
        {
          "internalType": "uint256",
          "name": "",
          "type": "uint256"
        }
      ],
      "stateMutability": "view",
      "type": "function"
    },
    {
      "inputs": [],
      "name": "getTotalFarmerBalance",
      "outputs": [
        {
          "internalType": "uint256",
          "name": "",
          "type": "uint256"
        }
      ],
      "stateMutability": "view",
      "type": "function"
    },
    {
      "inputs": [],
      "name": "getTotalSupply",
      "outputs": [
        {
          "internalType": "uint256",
          "name": "",
          "type": "uint256"
        }
      ],
      "stateMutability": "view",
      "type": "function"
    },
    {
      "inputs": [
        {
          "internalType": "address",
          "name": "seller",
          "type": "address"
        }
      ],
      "name": "getUnharvestBalance",
      "outputs": [
        {
          "components": [
            {
              "internalType": "uint8",
              "name": "riceType",
              "type": "uint8"
            },
            {
              "internalType": "uint256",
              "name": "balance",
              "type": "uint256"
            },
            {
              "internalType": "uint256",
              "name": "startDate",
              "type": "uint256"
            },
            {
              "internalType": "uint256",
              "name": "endDate",
              "type": "uint256"
            }
          ],
          "internalType": "struct MHT.TypeBalance[]",
          "name": "",
          "type": "tuple[]"
        }
      ],
      "stateMutability": "view",
      "type": "function"
    },
    {
      "inputs": [
        {
          "internalType": "address",
          "name": "seller",
          "type": "address"
        },
        {
          "components": [
            {
              "internalType": "uint8",
              "name": "riceType",
              "type": "uint8"
            },
            {
              "internalType": "uint256",
              "name": "balance",
              "type": "uint256"
            },
            {
              "internalType": "uint256",
              "name": "startDate",
              "type": "uint256"
            },
            {
              "internalType": "uint256",
              "name": "endDate",
              "type": "uint256"
            }
          ],
          "internalType": "struct MHT.TypeBalance",
          "name": "unharvestItem",
          "type": "tuple"
        }
      ],
      "name": "harvest",
      "outputs": [],
      "stateMutability": "nonpayable",
      "type": "function"
    },
    {
      "inputs": [
        {
          "internalType": "address",
          "name": "userAdd",
          "type": "address"
        }
      ],
      "name": "isAddressSeller",
      "outputs": [
        {
          "internalType": "bool",
          "name": "",
          "type": "bool"
        }
      ],
      "stateMutability": "view",
      "type": "function"
    },
    {
      "inputs": [],
      "name": "name",
      "outputs": [
        {
          "internalType": "string",
          "name": "",
          "type": "string"
        }
      ],
      "stateMutability": "view",
      "type": "function"
    },
    {
      "inputs": [],
      "name": "owner",
      "outputs": [
        {
          "internalType": "address",
          "name": "",
          "type": "address"
        }
      ],
      "stateMutability": "view",
      "type": "function"
    },
    {
      "inputs": [
        {
          "internalType": "uint8",
          "name": "riceType",
          "type": "uint8"
        },
        {
          "components": [
            {
              "internalType": "address",
              "name": "buyer",
              "type": "address"
            },
            {
              "internalType": "address",
              "name": "seller",
              "type": "address"
            },
            {
              "internalType": "uint256",
              "name": "size",
              "type": "uint256"
            },
            {
              "internalType": "uint256",
              "name": "amount",
              "type": "uint256"
            },
            {
              "internalType": "uint256",
              "name": "price",
              "type": "uint256"
            },
            {
              "internalType": "uint256",
              "name": "startDate",
              "type": "uint256"
            },
            {
              "internalType": "uint256",
              "name": "endDate",
              "type": "uint256"
            }
          ],
          "internalType": "struct MHT.BuyItem",
          "name": "newItemList",
          "type": "tuple"
        }
      ],
      "name": "sendItemToBuyer",
      "outputs": [],
      "stateMutability": "nonpayable",
      "type": "function"
    },
    {
      "inputs": [
        {
          "components": [
            {
              "internalType": "address",
              "name": "seller",
              "type": "address"
            },
            {
              "internalType": "uint8",
              "name": "riceType",
              "type": "uint8"
            },
            {
              "internalType": "uint256",
              "name": "balance",
              "type": "uint256"
            },
            {
              "internalType": "uint256",
              "name": "startDate",
              "type": "uint256"
            },
            {
              "internalType": "uint256",
              "name": "endDate",
              "type": "uint256"
            }
          ],
          "internalType": "struct MHT.AddressTypeBalance[]",
          "name": "assignedTypeBalance",
          "type": "tuple[]"
        }
      ],
      "name": "setUnHarvestBalance",
      "outputs": [],
      "stateMutability": "nonpayable",
      "type": "function"
    },
    {
      "inputs": [],
      "name": "symbol",
      "outputs": [
        {
          "internalType": "string",
          "name": "",
          "type": "string"
        }
      ],
      "stateMutability": "view",
      "type": "function"
    },
    {
      "inputs": [],
      "name": "totalBuyerBalance",
      "outputs": [
        {
          "internalType": "uint256",
          "name": "",
          "type": "uint256"
        }
      ],
      "stateMutability": "view",
      "type": "function"
    },
    {
      "inputs": [],
      "name": "totalFarmerBalance",
      "outputs": [
        {
          "internalType": "uint256",
          "name": "",
          "type": "uint256"
        }
      ],
      "stateMutability": "view",
      "type": "function"
    },
    {
      "inputs": [],
      "name": "totalSupply",
      "outputs": [
        {
          "internalType": "uint256",
          "name": "",
          "type": "uint256"
        }
      ],
      "stateMutability": "view",
      "type": "function"
    },
    {
      "inputs": [
        {
          "internalType": "address",
          "name": "to",
          "type": "address"
        },
        {
          "internalType": "uint256",
          "name": "amount",
          "type": "uint256"
        }
      ],
      "name": "transfer",
      "outputs": [],
      "stateMutability": "nonpayable",
      "type": "function"
    },
    {
      "inputs": [
        {
          "internalType": "address",
          "name": "seller",
          "type": "address"
        },
        {
          "internalType": "address",
          "name": "buyer",
          "type": "address"
        },
        {
          "internalType": "uint256",
          "name": "numTokens",
          "type": "uint256"
        }
      ],
      "name": "transferFrom",
      "outputs": [],
      "stateMutability": "nonpayable",
      "type": "function"
    }
  ],
  "bytecode": "0x60806040526040518060400160405280600e81526020017f4d7920547261646520546f6b656e000000000000000000000000000000000000815250600090816200004a9190620003ae565b506040518060400160405280600381526020017f4d4854000000000000000000000000000000000000000000000000000000000081525060019081620000919190620003ae565b50620f4240600455348015620000a657600080fd5b50600454600660003373ffffffffffffffffffffffffffffffffffffffff1673ffffffffffffffffffffffffffffffffffffffff1681526020019081526020016000208190555033600560006101000a81548173ffffffffffffffffffffffffffffffffffffffff021916908373ffffffffffffffffffffffffffffffffffffffff16021790555062000495565b600081519050919050565b7f4e487b7100000000000000000000000000000000000000000000000000000000600052604160045260246000fd5b7f4e487b7100000000000000000000000000000000000000000000000000000000600052602260045260246000fd5b60006002820490506001821680620001b657607f821691505b602082108103620001cc57620001cb6200016e565b5b50919050565b60008190508160005260206000209050919050565b60006020601f8301049050919050565b600082821b905092915050565b600060088302620002367fffffffffffffffffffffffffffffffffffffffffffffffffffffffffffffffff82620001f7565b620002428683620001f7565b95508019841693508086168417925050509392505050565b6000819050919050565b6000819050919050565b60006200028f6200028962000283846200025a565b62000264565b6200025a565b9050919050565b6000819050919050565b620002ab836200026e565b620002c3620002ba8262000296565b84845462000204565b825550505050565b600090565b620002da620002cb565b620002e7818484620002a0565b505050565b5b818110156200030f5762000303600082620002d0565b600181019050620002ed565b5050565b601f8211156200035e576200032881620001d2565b6200033384620001e7565b8101602085101562000343578190505b6200035b6200035285620001e7565b830182620002ec565b50505b505050565b600082821c905092915050565b6000620003836000198460080262000363565b1980831691505092915050565b60006200039e838362000370565b9150826002028217905092915050565b620003b98262000134565b67ffffffffffffffff811115620003d557620003d46200013f565b5b620003e182546200019d565b620003ee82828562000313565b600060209050601f83116001811462000426576000841562000411578287015190505b6200041d858262000390565b8655506200048d565b601f1984166200043686620001d2565b60005b82811015620004605784890151825560018201915060208501945060208101905062000439565b868310156200048057848901516200047c601f89168262000370565b8355505b6001600288020188555050505b505050505050565b615b7780620004a56000396000f3fe608060405234801561001057600080fd5b506004361061018e5760003560e01c806370a08231116100de5780639f14a3b911610097578063c4e41b2211610071578063c4e41b22146104ab578063cc1974b8146104c9578063d4999971146104f9578063de6f1fed146105155761018e565b80639f14a3b914610443578063a9059cbb1461045f578063bdf107b31461047b5761018e565b806370a082311461037d5780637537a635146103ad57806386b52faf146103cb5780638da5cb5b146103e957806395d89b41146104075780639e289001146104255761018e565b80632d7f01c31161014b57806342578ce71161012557806342578ce7146102e55780634949c90f146103155780635943e241146103455780636afb38bf146103615761018e565b80632d7f01c31461026757806336466004146102975780633e9970d2146102b55761018e565b806306fdde031461019357806318160ddd146101b15780631a6dcc06146101cf5780631c0e7d91146101eb57806323b872dd1461021b57806329b087e814610237575b600080fd5b61019b610545565b6040516101a891906147a2565b60405180910390f35b6101b96105d3565b6040516101c691906147dd565b60405180910390f35b6101e960048036038101906101e491906149c7565b6105d9565b005b61020560048036038101906102009190614a07565b611075565b6040516102129190614b56565b60405180910390f35b61023560048036038101906102309190614b78565b61114e565b005b610251600480360381019061024c9190614a07565b61137a565b60405161025e9190614b56565b60405180910390f35b610281600480360381019061027c9190614bcb565b611453565b60405161028e9190614d31565b60405180910390f35b61029f611553565b6040516102ac91906147dd565b60405180910390f35b6102cf60048036038101906102ca9190614a07565b61155d565b6040516102dc9190614e90565b60405180910390f35b6102ff60048036038101906102fa9190614eb2565b6116a0565b60405161030c9190614d31565b60405180910390f35b61032f600480360381019061032a9190614a07565b6119a8565b60405161033c919061501c565b60405180910390f35b61035f600480360381019061035a91906151bf565b611ae1565b005b61037b6004803603810190610376919061537e565b611c24565b005b61039760048036038101906103929190614a07565b612331565b6040516103a491906147dd565b60405180910390f35b6103b561237a565b6040516103c291906147dd565b60405180910390f35b6103d3612380565b6040516103e091906147dd565b60405180910390f35b6103f1612386565b6040516103fe91906153e9565b60405180910390f35b61040f6123ac565b60405161041c91906147a2565b60405180910390f35b61042d61243a565b60405161043a91906147dd565b60405180910390f35b61045d60048036038101906104589190615404565b612444565b005b61047960048036038101906104749190615445565b613a51565b005b61049560048036038101906104909190614eb2565b613be8565b6040516104a291906155c2565b60405180910390f35b6104b3613f46565b6040516104c091906147dd565b60405180910390f35b6104e360048036038101906104de9190614eb2565b613f50565b6040516104f091906155c2565b60405180910390f35b610513600480360381019061050e9190615733565b6142ae565b005b61052f600480360381019061052a9190614a07565b61452a565b60405161053c9190615797565b60405180910390f35b60008054610552906157e1565b80601f016020809104026020016040519081016040528092919081815260200182805461057e906157e1565b80156105cb5780601f106105a0576101008083540402835291602001916105cb565b820191906000526020600020905b8154815290600101906020018083116105ae57829003601f168201915b505050505081565b60045481565b8173ffffffffffffffffffffffffffffffffffffffff163373ffffffffffffffffffffffffffffffffffffffff161461061157600080fd5b6000806000905060005b600760008673ffffffffffffffffffffffffffffffffffffffff1673ffffffffffffffffffffffffffffffffffffffff1681526020019081526020016000208054905081101561085857836000015160ff16600760008773ffffffffffffffffffffffffffffffffffffffff1673ffffffffffffffffffffffffffffffffffffffff16815260200190815260200160002082815481106106be576106bd615812565b5b906000526020600020906004020160000160009054906101000a900460ff1660ff1614801561075257508360400151600760008773ffffffffffffffffffffffffffffffffffffffff1673ffffffffffffffffffffffffffffffffffffffff168152602001908152602001600020828154811061073e5761073d615812565b5b906000526020600020906004020160020154145b80156107c357508360600151600760008773ffffffffffffffffffffffffffffffffffffffff1673ffffffffffffffffffffffffffffffffffffffff16815260200190815260200160002082815481106107af576107ae615812565b5b906000526020600020906004020160030154145b801561083457508360200151600760008773ffffffffffffffffffffffffffffffffffffffff1673ffffffffffffffffffffffffffffffffffffffff16815260200190815260200160002082815481106108205761081f615812565b5b906000526020600020906004020160010154145b156108455780925060019150610858565b808061085090615870565b91505061061b565b5080610899576040517f08c379a000000000000000000000000000000000000000000000000000000000815260040161089090615904565b60405180910390fd5b600760008573ffffffffffffffffffffffffffffffffffffffff1673ffffffffffffffffffffffffffffffffffffffff1681526020019081526020016000206001600760008773ffffffffffffffffffffffffffffffffffffffff1673ffffffffffffffffffffffffffffffffffffffff168152602001908152602001600020805490506109279190615924565b8154811061093857610937615812565b5b9060005260206000209060040201600760008673ffffffffffffffffffffffffffffffffffffffff1673ffffffffffffffffffffffffffffffffffffffff168152602001908152602001600020838154811061099757610996615812565b5b90600052602060002090600402016000820160009054906101000a900460ff168160000160006101000a81548160ff021916908360ff160217905550600182015481600101556002820154816002015560038201548160030155905050600760008573ffffffffffffffffffffffffffffffffffffffff1673ffffffffffffffffffffffffffffffffffffffff168152602001908152602001600020805480610a4357610a42615958565b5b6001900381819060005260206000209060040201600080820160006101000a81549060ff0219169055600182016000905560028201600090556003820160009055505090556000600860008673ffffffffffffffffffffffffffffffffffffffff1673ffffffffffffffffffffffffffffffffffffffff168152602001908152602001600020805490501115610e0d576000805b600860008773ffffffffffffffffffffffffffffffffffffffff1673ffffffffffffffffffffffffffffffffffffffff16815260200190815260200160002080549050811015610d1d57846000015160ff16600860008873ffffffffffffffffffffffffffffffffffffffff1673ffffffffffffffffffffffffffffffffffffffff1681526020019081526020016000208281548110610b7a57610b79615812565b5b906000526020600020906004020160000160009054906101000a900460ff1660ff16148015610c0e57508460400151600860008873ffffffffffffffffffffffffffffffffffffffff1673ffffffffffffffffffffffffffffffffffffffff1681526020019081526020016000208281548110610bfa57610bf9615812565b5b906000526020600020906004020160020154145b8015610c7f57508460600151600860008873ffffffffffffffffffffffffffffffffffffffff1673ffffffffffffffffffffffffffffffffffffffff1681526020019081526020016000208281548110610c6b57610c6a615812565b5b906000526020600020906004020160030154145b15610d0a578460200151600860008873ffffffffffffffffffffffffffffffffffffffff1673ffffffffffffffffffffffffffffffffffffffff1681526020019081526020016000208281548110610cda57610cd9615812565b5b90600052602060002090600402016001016000828254610cfa9190615987565b9250508190555060019150610d1d565b8080610d1590615870565b915050610ad7565b5080610e075760006040518060800160405280866000015160ff168152602001866020015181526020018660400151815260200186606001518152509050600860008773ffffffffffffffffffffffffffffffffffffffff1673ffffffffffffffffffffffffffffffffffffffff16815260200190815260200160002081908060018154018082558091505060019003906000526020600020906004020160009091909190915060008201518160000160006101000a81548160ff021916908360ff1602179055506020820151816001015560408201518160020155606082015181600301555050505b50610ef1565b60006040518060800160405280856000015160ff168152602001856020015181526020018560400151815260200185606001518152509050600860008673ffffffffffffffffffffffffffffffffffffffff1673ffffffffffffffffffffffffffffffffffffffff16815260200190815260200160002081908060018154018082558091505060019003906000526020600020906004020160009091909190915060008201518160000160006101000a81548160ff021916908360ff1602179055506020820151816001015560408201518160020155606082015181600301555050505b826020015160066000600560009054906101000a900473ffffffffffffffffffffffffffffffffffffffff1673ffffffffffffffffffffffffffffffffffffffff1673ffffffffffffffffffffffffffffffffffffffff1681526020019081526020016000206000828254610f669190615924565b925050819055508260200151600660008673ffffffffffffffffffffffffffffffffffffffff1673ffffffffffffffffffffffffffffffffffffffff1681526020019081526020016000206000828254610fc09190615987565b92505081905550826020015160026000828254610fdd9190615987565b925050819055508373ffffffffffffffffffffffffffffffffffffffff16600560009054906101000a900473ffffffffffffffffffffffffffffffffffffffff1673ffffffffffffffffffffffffffffffffffffffff167fddf252ad1be2c89b69c2b068fc378daa952ba7f163c4a11628f55a4df523b3ef856020015160405161106791906147dd565b60405180910390a350505050565b6060600760008373ffffffffffffffffffffffffffffffffffffffff1673ffffffffffffffffffffffffffffffffffffffff168152602001908152602001600020805480602002602001604051908101604052809291908181526020016000905b8282101561114357838290600052602060002090600402016040518060800160405290816000820160009054906101000a900460ff1660ff1660ff1681526020016001820154815260200160028201548152602001600382015481525050815260200190600101906110d6565b505050509050919050565b600660008473ffffffffffffffffffffffffffffffffffffffff1673ffffffffffffffffffffffffffffffffffffffff1681526020019081526020016000205481111561119a57600080fd5b600560009054906101000a900473ffffffffffffffffffffffffffffffffffffffff1673ffffffffffffffffffffffffffffffffffffffff168373ffffffffffffffffffffffffffffffffffffffff16146111f457600080fd5b80600660008573ffffffffffffffffffffffffffffffffffffffff1673ffffffffffffffffffffffffffffffffffffffff1681526020019081526020016000205461123f9190615924565b600660008573ffffffffffffffffffffffffffffffffffffffff1673ffffffffffffffffffffffffffffffffffffffff1681526020019081526020016000208190555080600660008473ffffffffffffffffffffffffffffffffffffffff1673ffffffffffffffffffffffffffffffffffffffff168152602001908152602001600020546112cd9190615987565b600660008473ffffffffffffffffffffffffffffffffffffffff1673ffffffffffffffffffffffffffffffffffffffff168152602001908152602001600020819055508173ffffffffffffffffffffffffffffffffffffffff168373ffffffffffffffffffffffffffffffffffffffff167fddf252ad1be2c89b69c2b068fc378daa952ba7f163c4a11628f55a4df523b3ef8360405161136d91906147dd565b60405180910390a3505050565b6060600860008373ffffffffffffffffffffffffffffffffffffffff1673ffffffffffffffffffffffffffffffffffffffff168152602001908152602001600020805480602002602001604051908101604052809291908181526020016000905b8282101561144857838290600052602060002090600402016040518060800160405290816000820160009054906101000a900460ff1660ff1660ff1681526020016001820154815260200160028201548152602001600382015481525050815260200190600101906113db565b505050509050919050565b6060600b60008360ff1660ff168152602001908152602001600020805480602002602001604051908101604052809291908181526020016000905b8282101561154857838290600052602060002090600602016040518060c00160405290816000820160009054906101000a900473ffffffffffffffffffffffffffffffffffffffff1673ffffffffffffffffffffffffffffffffffffffff1673ffffffffffffffffffffffffffffffffffffffff168152602001600182015481526020016002820154815260200160038201548152602001600482015481526020016005820154815250508152602001906001019061148e565b505050509050919050565b6000600254905090565b6060600960008373ffffffffffffffffffffffffffffffffffffffff1673ffffffffffffffffffffffffffffffffffffffff168152602001908152602001600020805480602002602001604051908101604052809291908181526020016000905b8282101561169557838290600052602060002090600702016040518060e00160405290816000820160009054906101000a900473ffffffffffffffffffffffffffffffffffffffff1673ffffffffffffffffffffffffffffffffffffffff1673ffffffffffffffffffffffffffffffffffffffff168152602001600182015481526020016002820160009054906101000a900460ff1660ff1660ff168152602001600382015481526020016004820154815260200160058201548152602001600682015481525050815260200190600101906115be565b505050509050919050565b6060600080600090505b600b60008560ff1660ff1681526020019081526020016000208054905081101561177f578473ffffffffffffffffffffffffffffffffffffffff16600b60008660ff1660ff16815260200190815260200160002082815481106117105761170f615812565b5b906000526020600020906006020160000160009054906101000a900473ffffffffffffffffffffffffffffffffffffffff1673ffffffffffffffffffffffffffffffffffffffff160361176c57818061176890615870565b9250505b808061177790615870565b9150506116aa565b5060008167ffffffffffffffff81111561179c5761179b61486f565b5b6040519080825280602002602001820160405280156117d557816020015b6117c2614632565b8152602001906001900390816117ba5790505b5090506000805b600b60008760ff1660ff1681526020019081526020016000208054905081101561199b578673ffffffffffffffffffffffffffffffffffffffff16600b60008860ff1660ff168152602001908152602001600020828154811061184257611841615812565b5b906000526020600020906006020160000160009054906101000a900473ffffffffffffffffffffffffffffffffffffffff1673ffffffffffffffffffffffffffffffffffffffff160361198857600b60008760ff1660ff16815260200190815260200160002081815481106118ba576118b9615812565b5b90600052602060002090600602016040518060c00160405290816000820160009054906101000a900473ffffffffffffffffffffffffffffffffffffffff1673ffffffffffffffffffffffffffffffffffffffff1673ffffffffffffffffffffffffffffffffffffffff1681526020016001820154815260200160028201548152602001600382015481526020016004820154815260200160058201548152505083838151811061196e5761196d615812565b5b6020026020010181905250818061198490615870565b9250505b808061199390615870565b9150506117dc565b5081935050505092915050565b6060600a60008373ffffffffffffffffffffffffffffffffffffffff1673ffffffffffffffffffffffffffffffffffffffff168152602001908152602001600020805480602002602001604051908101604052809291908181526020016000905b82821015611ad657838290600052602060002090600602016040518060c00160405290816000820160009054906101000a900473ffffffffffffffffffffffffffffffffffffffff1673ffffffffffffffffffffffffffffffffffffffff1673ffffffffffffffffffffffffffffffffffffffff168152602001600182015481526020016002820160009054906101000a900460ff1660ff1660ff168152602001600382015481526020016004820154815260200160058201548152505081526020019060010190611a09565b505050509050919050565b60005b8151811015611c1f57600c60008460ff1660ff168152602001908152602001600020828281518110611b1957611b18615812565b5b6020026020010151908060018154018082558091505060019003906000526020600020906007020160009091909190915060008201518160000160006101000a81548173ffffffffffffffffffffffffffffffffffffffff021916908373ffffffffffffffffffffffffffffffffffffffff16021790555060208201518160010160006101000a81548173ffffffffffffffffffffffffffffffffffffffff021916908373ffffffffffffffffffffffffffffffffffffffff16021790555060408201518160020155606082015181600301556080820151816004015560a0820151816005015560c0820151816006015550508080611c1790615870565b915050611ae4565b505050565b600080600080600090505b6008600086600081518110611c4757611c46615812565b5b60200260200101516000015173ffffffffffffffffffffffffffffffffffffffff1673ffffffffffffffffffffffffffffffffffffffff16815260200190815260200160002080549050811015611f26578560ff166008600087600081518110611cb457611cb3615812565b5b60200260200101516000015173ffffffffffffffffffffffffffffffffffffffff1673ffffffffffffffffffffffffffffffffffffffff1681526020019081526020016000208281548110611d0c57611d0b615812565b5b906000526020600020906004020160000160009054906101000a900460ff1660ff16148015611dda575084600081518110611d4a57611d49615812565b5b6020026020010151608001516008600087600081518110611d6e57611d6d615812565b5b60200260200101516000015173ffffffffffffffffffffffffffffffffffffffff1673ffffffffffffffffffffffffffffffffffffffff1681526020019081526020016000208281548110611dc657611dc5615812565b5b906000526020600020906004020160020154145b8015611e85575084600081518110611df557611df4615812565b5b602002602001015160a001516008600087600081518110611e1957611e18615812565b5b60200260200101516000015173ffffffffffffffffffffffffffffffffffffffff1673ffffffffffffffffffffffffffffffffffffffff1681526020019081526020016000208281548110611e7157611e70615812565b5b906000526020600020906004020160030154145b15611f13576008600086600081518110611ea257611ea1615812565b5b60200260200101516000015173ffffffffffffffffffffffffffffffffffffffff1673ffffffffffffffffffffffffffffffffffffffff1681526020019081526020016000208181548110611efa57611ef9615812565b5b9060005260206000209060040201600101549350611f26565b8080611f1e90615870565b915050611c2f565b5060005b600b60008760ff1660ff1681526020019081526020016000208054905081101561216e5784600081518110611f6257611f61615812565b5b60200260200101516000015173ffffffffffffffffffffffffffffffffffffffff16600b60008860ff1660ff1681526020019081526020016000208281548110611faf57611fae615812565b5b906000526020600020906006020160000160009054906101000a900473ffffffffffffffffffffffffffffffffffffffff1673ffffffffffffffffffffffffffffffffffffffff1614801561205e57508460008151811061201357612012615812565b5b602002602001015160800151600b60008860ff1660ff168152602001908152602001600020828154811061204a57612049615812565b5b906000526020600020906006020160040154145b80156120c457508460008151811061207957612078615812565b5b602002602001015160a00151600b60008860ff1660ff16815260200190815260200160002082815481106120b0576120af615812565b5b906000526020600020906006020160050154145b1561215b57600b60008760ff1660ff16815260200190815260200160002081815481106120f4576120f3615812565b5b906000526020600020906006020160010154600b60008860ff1660ff168152602001908152602001600020828154811061213157612130615812565b5b90600052602060002090600602016002015461214d91906159bb565b836121589190615987565b92505b808061216690615870565b915050611f2a565b5060005b84518110156121e35784818151811061218e5761218d615812565b5b6020026020010151602001518582815181106121ad576121ac615812565b5b6020026020010151604001516121c391906159bb565b826121ce9190615987565b915080806121db90615870565b915050612172565b508281836121f19190615987565b1115612232576040517f08c379a000000000000000000000000000000000000000000000000000000000815260040161222990615a49565b60405180910390fd5b60005b845181101561232957600b60008760ff1660ff16815260200190815260200160002085828151811061226a57612269615812565b5b6020026020010151908060018154018082558091505060019003906000526020600020906006020160009091909190915060008201518160000160006101000a81548173ffffffffffffffffffffffffffffffffffffffff021916908373ffffffffffffffffffffffffffffffffffffffff1602179055506020820151816001015560408201518160020155606082015181600301556080820151816004015560a082015181600501555050808061232190615870565b915050612235565b505050505050565b6000600660008373ffffffffffffffffffffffffffffffffffffffff1673ffffffffffffffffffffffffffffffffffffffff168152602001908152602001600020549050919050565b60035481565b60025481565b600560009054906101000a900473ffffffffffffffffffffffffffffffffffffffff1681565b600180546123b9906157e1565b80601f01602080910402602001604051908101604052809291908181526020018280546123e5906157e1565b80156124325780601f1061240757610100808354040283529160200191612432565b820191906000526020600020905b81548152906001019060200180831161241557829003601f168201915b505050505081565b6000600354905090565b61244c61467e565b60005b60086000846020015173ffffffffffffffffffffffffffffffffffffffff1673ffffffffffffffffffffffffffffffffffffffff168152602001908152602001600020805490508110156126cb578360ff1660086000856020015173ffffffffffffffffffffffffffffffffffffffff1673ffffffffffffffffffffffffffffffffffffffff16815260200190815260200160002082815481106124f6576124f5615812565b5b906000526020600020906004020160000160009054906101000a900460ff1660ff1614801561258e57508260a0015160086000856020015173ffffffffffffffffffffffffffffffffffffffff1673ffffffffffffffffffffffffffffffffffffffff168152602001908152602001600020828154811061257a57612579615812565b5b906000526020600020906004020160020154145b801561260357508260c0015160086000856020015173ffffffffffffffffffffffffffffffffffffffff1673ffffffffffffffffffffffffffffffffffffffff16815260200190815260200160002082815481106125ef576125ee615812565b5b906000526020600020906004020160030154145b156126b85760086000846020015173ffffffffffffffffffffffffffffffffffffffff1673ffffffffffffffffffffffffffffffffffffffff168152602001908152602001600020818154811061265d5761265c615812565b5b90600052602060002090600402016040518060800160405290816000820160009054906101000a900460ff1660ff1660ff168152602001600182015481526020016002820154815260200160038201548152505091506126cb565b80806126c390615870565b91505061244f565b506126d4614632565b600080600090505b600b60008760ff1660ff168152602001908152602001600020805490508110156129a957846020015173ffffffffffffffffffffffffffffffffffffffff16600b60008860ff1660ff168152602001908152602001600020828154811061274657612745615812565b5b906000526020600020906006020160000160009054906101000a900473ffffffffffffffffffffffffffffffffffffffff1673ffffffffffffffffffffffffffffffffffffffff161480156127da57508460a00151600b60008860ff1660ff16815260200190815260200160002082815481106127c6576127c5615812565b5b906000526020600020906006020160040154145b801561282557508460c00151600b60008860ff1660ff168152602001908152602001600020828154811061281157612810615812565b5b906000526020600020906006020160050154145b801561287057508460800151600b60008860ff1660ff168152602001908152602001600020828154811061285c5761285b615812565b5b906000526020600020906006020160030154145b80156128bb57508460400151600b60008860ff1660ff16815260200190815260200160002082815481106128a7576128a6615812565b5b906000526020600020906006020160010154145b1561299657600b60008760ff1660ff16815260200190815260200160002081815481106128eb576128ea615812565b5b90600052602060002090600602016040518060c00160405290816000820160009054906101000a900473ffffffffffffffffffffffffffffffffffffffff1673ffffffffffffffffffffffffffffffffffffffff1673ffffffffffffffffffffffffffffffffffffffff1681526020016001820154815260200160028201548152602001600382015481526020016004820154815260200160058201548152505092508091506129a9565b80806129a190615870565b9150506126dc565b506000846040015185606001516129c091906159bb565b9050826020015183604001516129d691906159bb565b811115612a18576040517f08c379a0000000000000000000000000000000000000000000000000000000008152600401612a0f90615ab5565b60405180910390fd5b8360200151811115612a5f576040517f08c379a0000000000000000000000000000000000000000000000000000000008152600401612a5690615a49565b60405180910390fd5b846060015183604001818151612a759190615924565b915081815250508084602001818151612a8e9190615924565b9150818152505060006040518060c00160405280876020015173ffffffffffffffffffffffffffffffffffffffff168152602001876060015181526020018860ff168152602001876080015181526020018760a0015181526020018760c001518152509050600a6000876000015173ffffffffffffffffffffffffffffffffffffffff1673ffffffffffffffffffffffffffffffffffffffff16815260200190815260200160002081908060018154018082558091505060019003906000526020600020906006020160009091909190915060008201518160000160006101000a81548173ffffffffffffffffffffffffffffffffffffffff021916908373ffffffffffffffffffffffffffffffffffffffff1602179055506020820151816001015560408201518160020160006101000a81548160ff021916908360ff160217905550606082015181600301556080820151816004015560a08201518160050155505060006040518060e00160405280886000015173ffffffffffffffffffffffffffffffffffffffff168152602001886060015181526020018960ff168152602001886080015181526020018860a0015181526020018860c00151815260200142815250905060096000886020015173ffffffffffffffffffffffffffffffffffffffff1673ffffffffffffffffffffffffffffffffffffffff16815260200190815260200160002081908060018154018082558091505060019003906000526020600020906007020160009091909190915060008201518160000160006101000a81548173ffffffffffffffffffffffffffffffffffffffff021916908373ffffffffffffffffffffffffffffffffffffffff1602179055506020820151816001015560408201518160020160006101000a81548160ff021916908360ff160217905550606082015181600301556080820151816004015560a0820151816005015560c0820151816006015550506000805b600c60008b60ff1660ff1681526020019081526020016000208054905081101561304457886000015173ffffffffffffffffffffffffffffffffffffffff16600c60008c60ff1660ff1681526020019081526020016000208281548110612dcd57612dcc615812565b5b906000526020600020906007020160000160009054906101000a900473ffffffffffffffffffffffffffffffffffffffff1673ffffffffffffffffffffffffffffffffffffffff16148015612ead5750886020015173ffffffffffffffffffffffffffffffffffffffff16600c60008c60ff1660ff1681526020019081526020016000208281548110612e6357612e62615812565b5b906000526020600020906007020160010160009054906101000a900473ffffffffffffffffffffffffffffffffffffffff1673ffffffffffffffffffffffffffffffffffffffff16145b8015612ef857508860400151600c60008c60ff1660ff1681526020019081526020016000208281548110612ee457612ee3615812565b5b906000526020600020906007020160020154145b8015612f4357508860600151600c60008c60ff1660ff1681526020019081526020016000208281548110612f2f57612f2e615812565b5b906000526020600020906007020160030154145b8015612f8e57508860800151600c60008c60ff1660ff1681526020019081526020016000208281548110612f7a57612f79615812565b5b906000526020600020906007020160040154145b8015612fd957508860a00151600c60008c60ff1660ff1681526020019081526020016000208281548110612fc557612fc4615812565b5b906000526020600020906007020160050154145b801561302457508860c00151600c60008c60ff1660ff16815260200190815260200160002082815481106130105761300f615812565b5b906000526020600020906007020160060154145b1561303157809150613044565b808061303c90615870565b915050612d63565b50600c60008a60ff1660ff1681526020019081526020016000206001600c60008c60ff1660ff168152602001908152602001600020805490506130879190615924565b8154811061309857613097615812565b5b9060005260206000209060070201600c60008b60ff1660ff16815260200190815260200160002082815481106130d1576130d0615812565b5b90600052602060002090600702016000820160009054906101000a900473ffffffffffffffffffffffffffffffffffffffff168160000160006101000a81548173ffffffffffffffffffffffffffffffffffffffff021916908373ffffffffffffffffffffffffffffffffffffffff1602179055506001820160009054906101000a900473ffffffffffffffffffffffffffffffffffffffff168160010160006101000a81548173ffffffffffffffffffffffffffffffffffffffff021916908373ffffffffffffffffffffffffffffffffffffffff1602179055506002820154816002015560038201548160030155600482015481600401556005820154816005015560068201548160060155905050600c60008a60ff1660ff16815260200190815260200160002080548061320b5761320a615958565b5b6001900381819060005260206000209060070201600080820160006101000a81549073ffffffffffffffffffffffffffffffffffffffff02191690556001820160006101000a81549073ffffffffffffffffffffffffffffffffffffffff02191690556002820160009055600382016000905560048201600090556005820160009055600682016000905550509055600086604001510361346657600b60008a60ff1660ff168152602001908152602001600020600b60008b60ff1660ff16815260200190815260200160002080549050815481106132ed576132ec615812565b5b9060005260206000209060060201600b60008b60ff1660ff168152602001908152602001600020868154811061332657613325615812565b5b90600052602060002090600602016000820160009054906101000a900473ffffffffffffffffffffffffffffffffffffffff168160000160006101000a81548173ffffffffffffffffffffffffffffffffffffffff021916908373ffffffffffffffffffffffffffffffffffffffff1602179055506001820154816001015560028201548160020155600382015481600301556004820154816004015560058201548160050155905050600b60008a60ff1660ff1681526020019081526020016000208054806133f9576133f8615958565b5b6001900381819060005260206000209060060201600080820160006101000a81549073ffffffffffffffffffffffffffffffffffffffff0219169055600182016000905560028201600090556003820160009055600482016000905560058201600090555050905561351d565b85600b60008b60ff1660ff168152602001908152602001600020868154811061349257613491615812565b5b906000526020600020906006020160008201518160000160006101000a81548173ffffffffffffffffffffffffffffffffffffffff021916908373ffffffffffffffffffffffffffffffffffffffff1602179055506020820151816001015560408201518160020155606082015181600301556080820151816004015560a082015181600501559050505b60005b600860008a6020015173ffffffffffffffffffffffffffffffffffffffff1673ffffffffffffffffffffffffffffffffffffffff168152602001908152602001600020805490508110156139dc578960ff16600860008b6020015173ffffffffffffffffffffffffffffffffffffffff1673ffffffffffffffffffffffffffffffffffffffff16815260200190815260200160002082815481106135c7576135c6615812565b5b906000526020600020906004020160000160009054906101000a900460ff1660ff1614801561365f57508860a00151600860008b6020015173ffffffffffffffffffffffffffffffffffffffff1673ffffffffffffffffffffffffffffffffffffffff168152602001908152602001600020828154811061364b5761364a615812565b5b906000526020600020906004020160020154145b80156136d457508860c00151600860008b6020015173ffffffffffffffffffffffffffffffffffffffff1673ffffffffffffffffffffffffffffffffffffffff16815260200190815260200160002082815481106136c0576136bf615812565b5b906000526020600020906004020160030154145b156139c95784600860008b6020015173ffffffffffffffffffffffffffffffffffffffff1673ffffffffffffffffffffffffffffffffffffffff168152602001908152602001600020828154811061372f5761372e615812565b5b9060005260206000209060040201600101600082825461374f9190615924565b925050819055506000600860008b6020015173ffffffffffffffffffffffffffffffffffffffff1673ffffffffffffffffffffffffffffffffffffffff16815260200190815260200160002082815481106137ad576137ac615812565b5b906000526020600020906004020160010154036139c457600860008a6020015173ffffffffffffffffffffffffffffffffffffffff1673ffffffffffffffffffffffffffffffffffffffff1681526020019081526020016000206001600860008c6020015173ffffffffffffffffffffffffffffffffffffffff1673ffffffffffffffffffffffffffffffffffffffff1681526020019081526020016000208054905061385a9190615924565b8154811061386b5761386a615812565b5b9060005260206000209060040201600860008b6020015173ffffffffffffffffffffffffffffffffffffffff1673ffffffffffffffffffffffffffffffffffffffff16815260200190815260200160002082815481106138ce576138cd615812565b5b90600052602060002090600402016000820160009054906101000a900460ff168160000160006101000a81548160ff021916908360ff160217905550600182015481600101556002820154816002015560038201548160030155905050600860008a6020015173ffffffffffffffffffffffffffffffffffffffff1673ffffffffffffffffffffffffffffffffffffffff16815260200190815260200160002080548061397e5761397d615958565b5b6001900381819060005260206000209060040201600080820160006101000a81549060ff0219169055600182016000905560028201600090556003820160009055505090555b6139dc565b80806139d490615870565b915050613520565b50876000015173ffffffffffffffffffffffffffffffffffffffff163373ffffffffffffffffffffffffffffffffffffffff167fddf252ad1be2c89b69c2b068fc378daa952ba7f163c4a11628f55a4df523b3ef86604051613a3e91906147dd565b60405180910390a3505050505050505050565b80600660003373ffffffffffffffffffffffffffffffffffffffff1673ffffffffffffffffffffffffffffffffffffffff168152602001908152602001600020541015613ad3576040517f08c379a0000000000000000000000000000000000000000000000000000000008152600401613aca90615b21565b60405180910390fd5b80600660003373ffffffffffffffffffffffffffffffffffffffff1673ffffffffffffffffffffffffffffffffffffffff1681526020019081526020016000206000828254613b229190615924565b9250508190555080600660008473ffffffffffffffffffffffffffffffffffffffff1673ffffffffffffffffffffffffffffffffffffffff1681526020019081526020016000206000828254613b789190615987565b925050819055508173ffffffffffffffffffffffffffffffffffffffff163373ffffffffffffffffffffffffffffffffffffffff167fddf252ad1be2c89b69c2b068fc378daa952ba7f163c4a11628f55a4df523b3ef83604051613bdc91906147dd565b60405180910390a35050565b6060600080600090505b600c60008560ff1660ff16815260200190815260200160002080549050811015613cc7578473ffffffffffffffffffffffffffffffffffffffff16600c60008660ff1660ff1681526020019081526020016000208281548110613c5857613c57615812565b5b906000526020600020906007020160000160009054906101000a900473ffffffffffffffffffffffffffffffffffffffff1673ffffffffffffffffffffffffffffffffffffffff1603613cb4578180613cb090615870565b9250505b8080613cbf90615870565b915050613bf2565b5060008167ffffffffffffffff811115613ce457613ce361486f565b5b604051908082528060200260200182016040528015613d1d57816020015b613d0a6146a9565b815260200190600190039081613d025790505b5090506000805b600c60008760ff1660ff16815260200190815260200160002080549050811015613f39578673ffffffffffffffffffffffffffffffffffffffff16600c60008860ff1660ff1681526020019081526020016000208281548110613d8a57613d89615812565b5b906000526020600020906007020160000160009054906101000a900473ffffffffffffffffffffffffffffffffffffffff1673ffffffffffffffffffffffffffffffffffffffff1603613f2657600c60008760ff1660ff1681526020019081526020016000208181548110613e0257613e01615812565b5b90600052602060002090600702016040518060e00160405290816000820160009054906101000a900473ffffffffffffffffffffffffffffffffffffffff1673ffffffffffffffffffffffffffffffffffffffff1673ffffffffffffffffffffffffffffffffffffffff1681526020016001820160009054906101000a900473ffffffffffffffffffffffffffffffffffffffff1673ffffffffffffffffffffffffffffffffffffffff1673ffffffffffffffffffffffffffffffffffffffff16815260200160028201548152602001600382015481526020016004820154815260200160058201548152602001600682015481525050838381518110613f0c57613f0b615812565b5b60200260200101819052508180613f2290615870565b9250505b8080613f3190615870565b915050613d24565b5081935050505092915050565b6000600454905090565b6060600080600090505b600c60008560ff1660ff1681526020019081526020016000208054905081101561402f578473ffffffffffffffffffffffffffffffffffffffff16600c60008660ff1660ff1681526020019081526020016000208281548110613fc057613fbf615812565b5b906000526020600020906007020160010160009054906101000a900473ffffffffffffffffffffffffffffffffffffffff1673ffffffffffffffffffffffffffffffffffffffff160361401c57818061401890615870565b9250505b808061402790615870565b915050613f5a565b5060008167ffffffffffffffff81111561404c5761404b61486f565b5b60405190808252806020026020018201604052801561408557816020015b6140726146a9565b81526020019060019003908161406a5790505b5090506000805b600c60008760ff1660ff168152602001908152602001600020805490508110156142a1578673ffffffffffffffffffffffffffffffffffffffff16600c60008860ff1660ff16815260200190815260200160002082815481106140f2576140f1615812565b5b906000526020600020906007020160010160009054906101000a900473ffffffffffffffffffffffffffffffffffffffff1673ffffffffffffffffffffffffffffffffffffffff160361428e57600c60008760ff1660ff168152602001908152602001600020818154811061416a57614169615812565b5b90600052602060002090600702016040518060e00160405290816000820160009054906101000a900473ffffffffffffffffffffffffffffffffffffffff1673ffffffffffffffffffffffffffffffffffffffff1673ffffffffffffffffffffffffffffffffffffffff1681526020016001820160009054906101000a900473ffffffffffffffffffffffffffffffffffffffff1673ffffffffffffffffffffffffffffffffffffffff1673ffffffffffffffffffffffffffffffffffffffff1681526020016002820154815260200160038201548152602001600482015481526020016005820154815260200160068201548152505083838151811061427457614273615812565b5b6020026020010181905250818061428a90615870565b9250505b808061429990615870565b91505061408c565b5081935050505092915050565b600560009054906101000a900473ffffffffffffffffffffffffffffffffffffffff1673ffffffffffffffffffffffffffffffffffffffff163373ffffffffffffffffffffffffffffffffffffffff161461430857600080fd5b6000614313826145d6565b905080600660003373ffffffffffffffffffffffffffffffffffffffff1673ffffffffffffffffffffffffffffffffffffffff168152602001908152602001600020541015614397576040517f08c379a000000000000000000000000000000000000000000000000000000000815260040161438e90615b21565b60405180910390fd5b60005b82518110156145255760008382815181106143b8576143b7615812565b5b6020026020010151600001519050600060405180608001604052808685815181106143e6576143e5615812565b5b60200260200101516020015160ff16815260200186858151811061440d5761440c615812565b5b602002602001015160400151815260200186858151811061443157614430615812565b5b602002602001015160600151815260200186858151811061445557614454615812565b5b6020026020010151608001518152509050600760008373ffffffffffffffffffffffffffffffffffffffff1673ffffffffffffffffffffffffffffffffffffffff16815260200190815260200160002081908060018154018082558091505060019003906000526020600020906004020160009091909190915060008201518160000160006101000a81548160ff021916908360ff16021790555060208201518160010155604082015181600201556060820151816003015550505050808061451d90615870565b91505061439a565b505050565b600080600860008473ffffffffffffffffffffffffffffffffffffffff1673ffffffffffffffffffffffffffffffffffffffff1681526020019081526020016000208054905011806145be57506000600760008473ffffffffffffffffffffffffffffffffffffffff1673ffffffffffffffffffffffffffffffffffffffff16815260200190815260200160002080549050115b156145cc57600190506145d1565b600090505b919050565b6000806000905060005b8351811015614628578381815181106145fc576145fb615812565b5b602002602001015160400151826146139190615987565b9150808061462090615870565b9150506145e0565b5080915050919050565b6040518060c00160405280600073ffffffffffffffffffffffffffffffffffffffff16815260200160008152602001600081526020016000815260200160008152602001600081525090565b6040518060800160405280600060ff1681526020016000815260200160008152602001600081525090565b6040518060e00160405280600073ffffffffffffffffffffffffffffffffffffffff168152602001600073ffffffffffffffffffffffffffffffffffffffff16815260200160008152602001600081526020016000815260200160008152602001600081525090565b600081519050919050565b600082825260208201905092915050565b60005b8381101561474c578082015181840152602081019050614731565b60008484015250505050565b6000601f19601f8301169050919050565b600061477482614712565b61477e818561471d565b935061478e81856020860161472e565b61479781614758565b840191505092915050565b600060208201905081810360008301526147bc8184614769565b905092915050565b6000819050919050565b6147d7816147c4565b82525050565b60006020820190506147f260008301846147ce565b92915050565b6000604051905090565b600080fd5b600080fd5b600073ffffffffffffffffffffffffffffffffffffffff82169050919050565b60006148378261480c565b9050919050565b6148478161482c565b811461485257600080fd5b50565b6000813590506148648161483e565b92915050565b600080fd5b7f4e487b7100000000000000000000000000000000000000000000000000000000600052604160045260246000fd5b6148a782614758565b810181811067ffffffffffffffff821117156148c6576148c561486f565b5b80604052505050565b60006148d96147f8565b90506148e5828261489e565b919050565b600060ff82169050919050565b614900816148ea565b811461490b57600080fd5b50565b60008135905061491d816148f7565b92915050565b61492c816147c4565b811461493757600080fd5b50565b60008135905061494981614923565b92915050565b6000608082840312156149655761496461486a565b5b61496f60806148cf565b9050600061497f8482850161490e565b60008301525060206149938482850161493a565b60208301525060406149a78482850161493a565b60408301525060606149bb8482850161493a565b60608301525092915050565b60008060a083850312156149de576149dd614802565b5b60006149ec85828601614855565b92505060206149fd8582860161494f565b9150509250929050565b600060208284031215614a1d57614a1c614802565b5b6000614a2b84828501614855565b91505092915050565b600081519050919050565b600082825260208201905092915050565b6000819050602082019050919050565b614a69816148ea565b82525050565b614a78816147c4565b82525050565b608082016000820151614a946000850182614a60565b506020820151614aa76020850182614a6f565b506040820151614aba6040850182614a6f565b506060820151614acd6060850182614a6f565b50505050565b6000614adf8383614a7e565b60808301905092915050565b6000602082019050919050565b6000614b0382614a34565b614b0d8185614a3f565b9350614b1883614a50565b8060005b83811015614b49578151614b308882614ad3565b9750614b3b83614aeb565b925050600181019050614b1c565b5085935050505092915050565b60006020820190508181036000830152614b708184614af8565b905092915050565b600080600060608486031215614b9157614b90614802565b5b6000614b9f86828701614855565b9350506020614bb086828701614855565b9250506040614bc18682870161493a565b9150509250925092565b600060208284031215614be157614be0614802565b5b6000614bef8482850161490e565b91505092915050565b600081519050919050565b600082825260208201905092915050565b6000819050602082019050919050565b614c2d8161482c565b82525050565b60c082016000820151614c496000850182614c24565b506020820151614c5c6020850182614a6f565b506040820151614c6f6040850182614a6f565b506060820151614c826060850182614a6f565b506080820151614c956080850182614a6f565b5060a0820151614ca860a0850182614a6f565b50505050565b6000614cba8383614c33565b60c08301905092915050565b6000602082019050919050565b6000614cde82614bf8565b614ce88185614c03565b9350614cf383614c14565b8060005b83811015614d24578151614d0b8882614cae565b9750614d1683614cc6565b925050600181019050614cf7565b5085935050505092915050565b60006020820190508181036000830152614d4b8184614cd3565b905092915050565b600081519050919050565b600082825260208201905092915050565b6000819050602082019050919050565b60e082016000820151614d956000850182614c24565b506020820151614da86020850182614a6f565b506040820151614dbb6040850182614a60565b506060820151614dce6060850182614a6f565b506080820151614de16080850182614a6f565b5060a0820151614df460a0850182614a6f565b5060c0820151614e0760c0850182614a6f565b50505050565b6000614e198383614d7f565b60e08301905092915050565b6000602082019050919050565b6000614e3d82614d53565b614e478185614d5e565b9350614e5283614d6f565b8060005b83811015614e83578151614e6a8882614e0d565b9750614e7583614e25565b925050600181019050614e56565b5085935050505092915050565b60006020820190508181036000830152614eaa8184614e32565b905092915050565b60008060408385031215614ec957614ec8614802565b5b6000614ed785828601614855565b9250506020614ee88582860161490e565b9150509250929050565b600081519050919050565b600082825260208201905092915050565b6000819050602082019050919050565b60c082016000820151614f346000850182614c24565b506020820151614f476020850182614a6f565b506040820151614f5a6040850182614a60565b506060820151614f6d6060850182614a6f565b506080820151614f806080850182614a6f565b5060a0820151614f9360a0850182614a6f565b50505050565b6000614fa58383614f1e565b60c08301905092915050565b6000602082019050919050565b6000614fc982614ef2565b614fd38185614efd565b9350614fde83614f0e565b8060005b8381101561500f578151614ff68882614f99565b975061500183614fb1565b925050600181019050614fe2565b5085935050505092915050565b600060208201905081810360008301526150368184614fbe565b905092915050565b600080fd5b600067ffffffffffffffff82111561505e5761505d61486f565b5b602082029050602081019050919050565b600080fd5b600060e0828403121561508a5761508961486a565b5b61509460e06148cf565b905060006150a484828501614855565b60008301525060206150b884828501614855565b60208301525060406150cc8482850161493a565b60408301525060606150e08482850161493a565b60608301525060806150f48482850161493a565b60808301525060a06151088482850161493a565b60a08301525060c061511c8482850161493a565b60c08301525092915050565b600061513b61513684615043565b6148cf565b90508083825260208201905060e0840283018581111561515e5761515d61506f565b5b835b8181101561518757806151738882615074565b84526020840193505060e081019050615160565b5050509392505050565b600082601f8301126151a6576151a561503e565b5b81356151b6848260208601615128565b91505092915050565b600080604083850312156151d6576151d5614802565b5b60006151e48582860161490e565b925050602083013567ffffffffffffffff81111561520557615204614807565b5b61521185828601615191565b9150509250929050565b600067ffffffffffffffff8211156152365761523561486f565b5b602082029050602081019050919050565b600060c0828403121561525d5761525c61486a565b5b61526760c06148cf565b9050600061527784828501614855565b600083015250602061528b8482850161493a565b602083015250604061529f8482850161493a565b60408301525060606152b38482850161493a565b60608301525060806152c78482850161493a565b60808301525060a06152db8482850161493a565b60a08301525092915050565b60006152fa6152f58461521b565b6148cf565b90508083825260208201905060c0840283018581111561531d5761531c61506f565b5b835b8181101561534657806153328882615247565b84526020840193505060c08101905061531f565b5050509392505050565b600082601f8301126153655761536461503e565b5b81356153758482602086016152e7565b91505092915050565b6000806040838503121561539557615394614802565b5b60006153a38582860161490e565b925050602083013567ffffffffffffffff8111156153c4576153c3614807565b5b6153d085828601615350565b9150509250929050565b6153e38161482c565b82525050565b60006020820190506153fe60008301846153da565b92915050565b600080610100838503121561541c5761541b614802565b5b600061542a8582860161490e565b925050602061543b85828601615074565b9150509250929050565b6000806040838503121561545c5761545b614802565b5b600061546a85828601614855565b925050602061547b8582860161493a565b9150509250929050565b600081519050919050565b600082825260208201905092915050565b6000819050602082019050919050565b60e0820160008201516154c76000850182614c24565b5060208201516154da6020850182614c24565b5060408201516154ed6040850182614a6f565b5060608201516155006060850182614a6f565b5060808201516155136080850182614a6f565b5060a082015161552660a0850182614a6f565b5060c082015161553960c0850182614a6f565b50505050565b600061554b83836154b1565b60e08301905092915050565b6000602082019050919050565b600061556f82615485565b6155798185615490565b9350615584836154a1565b8060005b838110156155b557815161559c888261553f565b97506155a783615557565b925050600181019050615588565b5085935050505092915050565b600060208201905081810360008301526155dc8184615564565b905092915050565b600067ffffffffffffffff8211156155ff576155fe61486f565b5b602082029050602081019050919050565b600060a082840312156156265761562561486a565b5b61563060a06148cf565b9050600061564084828501614855565b60008301525060206156548482850161490e565b60208301525060406156688482850161493a565b604083015250606061567c8482850161493a565b60608301525060806156908482850161493a565b60808301525092915050565b60006156af6156aa846155e4565b6148cf565b90508083825260208201905060a084028301858111156156d2576156d161506f565b5b835b818110156156fb57806156e78882615610565b84526020840193505060a0810190506156d4565b5050509392505050565b600082601f83011261571a5761571961503e565b5b813561572a84826020860161569c565b91505092915050565b60006020828403121561574957615748614802565b5b600082013567ffffffffffffffff81111561576757615766614807565b5b61577384828501615705565b91505092915050565b60008115159050919050565b6157918161577c565b82525050565b60006020820190506157ac6000830184615788565b92915050565b7f4e487b7100000000000000000000000000000000000000000000000000000000600052602260045260246000fd5b600060028204905060018216806157f957607f821691505b60208210810361580c5761580b6157b2565b5b50919050565b7f4e487b7100000000000000000000000000000000000000000000000000000000600052603260045260246000fd5b7f4e487b7100000000000000000000000000000000000000000000000000000000600052601160045260246000fd5b600061587b826147c4565b91507fffffffffffffffffffffffffffffffffffffffffffffffffffffffffffffffff82036158ad576158ac615841565b5b600182019050919050565b7f556e48617276657374206974656d206e6f7420666f756e640000000000000000600082015250565b60006158ee60188361471d565b91506158f9826158b8565b602082019050919050565b6000602082019050818103600083015261591d816158e1565b9050919050565b600061592f826147c4565b915061593a836147c4565b925082820390508181111561595257615951615841565b5b92915050565b7f4e487b7100000000000000000000000000000000000000000000000000000000600052603160045260246000fd5b6000615992826147c4565b915061599d836147c4565b92508282019050808211156159b5576159b4615841565b5b92915050565b60006159c6826147c4565b91506159d1836147c4565b92508282026159df816147c4565b915082820484148315176159f6576159f5615841565b5b5092915050565b7f42616c616e6365206e6f7420656e6f7567680000000000000000000000000000600082015250565b6000615a3360128361471d565b9150615a3e826159fd565b602082019050919050565b60006020820190508181036000830152615a6281615a26565b9050919050565b7f53656c6c204974656d206e6f7420656e6f756768000000000000000000000000600082015250565b6000615a9f60148361471d565b9150615aaa82615a69565b602082019050919050565b60006020820190508181036000830152615ace81615a92565b9050919050565b7f4e6f7420656e6f75676820746f6b656e73000000000000000000000000000000600082015250565b6000615b0b60118361471d565b9150615b1682615ad5565b602082019050919050565b60006020820190508181036000830152615b3a81615afe565b905091905056fea26469706673582212206911f1c3120528a5e6541760a7f4bee5450a6caa783e0b5aa66e005b5296a8e064736f6c63430008110033",
  "linkReferences": {},
  "deployedLinkReferences": {}
}